{
  "contractName": "AutomatonMinion",
  "abi": [
    {
      "anonymous": false,
      "inputs": [
        {
          "indexed": true,
          "internalType": "address",
          "name": "target",
          "type": "address"
        },
        {
          "indexed": false,
          "internalType": "bool",
          "name": "result",
          "type": "bool"
        },
        {
          "indexed": false,
          "internalType": "uint256",
          "name": "gasLeft",
          "type": "uint256"
        }
      ],
      "name": "OrderExecuted",
      "type": "event"
    },
    {
      "anonymous": false,
      "inputs": [
        {
          "indexed": true,
          "internalType": "address",
          "name": "payer",
          "type": "address"
        },
        {
          "indexed": false,
          "internalType": "uint256",
          "name": "amount",
          "type": "uint256"
        }
      ],
      "name": "ReceivedFund",
      "type": "event"
    },
    {
      "stateMutability": "payable",
      "type": "fallback"
    },
    {
      "inputs": [],
      "name": "creator",
      "outputs": [
        {
          "internalType": "address",
          "name": "",
          "type": "address"
        }
      ],
      "stateMutability": "view",
      "type": "function"
    },
    {
      "inputs": [
        {
          "internalType": "uint256",
          "name": "",
          "type": "uint256"
        }
      ],
      "name": "owners",
      "outputs": [
        {
          "internalType": "address",
          "name": "",
          "type": "address"
        }
      ],
      "stateMutability": "view",
      "type": "function"
    },
    {
      "stateMutability": "payable",
      "type": "receive"
    },
    {
      "inputs": [
        {
          "internalType": "address",
          "name": "first",
          "type": "address"
        },
        {
          "internalType": "address",
          "name": "second",
          "type": "address"
        }
      ],
      "name": "_addressesAreEmpty",
      "outputs": [
        {
          "internalType": "bool",
          "name": "",
          "type": "bool"
        }
      ],
      "stateMutability": "pure",
      "type": "function"
    },
    {
      "inputs": [
        {
          "internalType": "address",
          "name": "automaton",
          "type": "address"
        },
        {
          "internalType": "address",
          "name": "client",
          "type": "address"
        }
      ],
      "name": "register",
      "outputs": [],
      "stateMutability": "nonpayable",
      "type": "function"
    },
    {
      "inputs": [
        {
          "internalType": "uint256",
          "name": "amount",
          "type": "uint256"
        }
      ],
      "name": "withdraw",
      "outputs": [],
      "stateMutability": "nonpayable",
      "type": "function"
    },
    {
      "inputs": [
        {
          "internalType": "address",
          "name": "target",
          "type": "address"
        },
        {
          "internalType": "bytes",
          "name": "data",
          "type": "bytes"
        },
        {
          "internalType": "uint256",
          "name": "gas",
          "type": "uint256"
        },
        {
          "internalType": "uint256",
          "name": "value",
          "type": "uint256"
        }
      ],
      "name": "executeOrder",
      "outputs": [
        {
          "internalType": "bool",
          "name": "success",
          "type": "bool"
        },
        {
          "internalType": "bytes",
          "name": "result",
          "type": "bytes"
        }
      ],
      "stateMutability": "nonpayable",
      "type": "function"
    }
  ],
  "bytecode": "0x608060405233600160006101000a81548173ffffffffffffffffffffffffffffffffffffffff021916908373ffffffffffffffffffffffffffffffffffffffff16021790555034801561005157600080fd5b5060016000819055506118cd806100696000396000f3fe6080604052600436106100595760003560e01c8063025e7c27146100b357806302d05d3f146100f05780632e1a7d4d1461011b57806354e59cec14610144578063797530b914610181578063aa677354146101bf576100ae565b366100ae573373ffffffffffffffffffffffffffffffffffffffff167f94f7a42a79a6287f9b381600144ffe3c2ae50ac9ba3dc7a60c6449037a4c1ee1346040516100a49190610d48565b60405180910390a2005b600080fd5b3480156100bf57600080fd5b506100da60048036038101906100d59190610da3565b6101e8565b6040516100e79190610e11565b60405180910390f35b3480156100fc57600080fd5b5061010561021e565b6040516101129190610e11565b60405180910390f35b34801561012757600080fd5b50610142600480360381019061013d9190610da3565b610244565b005b34801561015057600080fd5b5061016b60048036038101906101669190610e58565b6104cf565b6040516101789190610eb3565b60405180910390f35b34801561018d57600080fd5b506101a860048036038101906101a39190611014565b61053f565b6040516101b692919061111f565b60405180910390f35b3480156101cb57600080fd5b506101e660048036038101906101e19190610e58565b6108d0565b005b600281600281106101f857600080fd5b016000915054906101000a900473ffffffffffffffffffffffffffffffffffffffff1681565b600160009054906101000a900473ffffffffffffffffffffffffffffffffffffffff1681565b6102ba600260006002811061025c5761025b61114f565b5b0160009054906101000a900473ffffffffffffffffffffffffffffffffffffffff1660026001600281106102935761029261114f565b5b0160009054906101000a900473ffffffffffffffffffffffffffffffffffffffff166104cf565b156102fa576040517f08c379a00000000000000000000000000000000000000000000000000000000081526004016102f190611201565b60405180910390fd5b3373ffffffffffffffffffffffffffffffffffffffff1660026000600281106103265761032561114f565b5b0160009054906101000a900473ffffffffffffffffffffffffffffffffffffffff1673ffffffffffffffffffffffffffffffffffffffff1614806103cb57503373ffffffffffffffffffffffffffffffffffffffff1660026001600281106103915761039061114f565b5b0160009054906101000a900473ffffffffffffffffffffffffffffffffffffffff1673ffffffffffffffffffffffffffffffffffffffff16145b61040a576040517f08c379a000000000000000000000000000000000000000000000000000000000815260040161040190611293565b60405180910390fd5b60026000541415610450576040517f08c379a0000000000000000000000000000000000000000000000000000000008152600401610447906112ff565b60405180910390fd5b60026000819055506000471161049b576040517f08c379a00000000000000000000000000000000000000000000000000000000081526004016104929061136b565b60405180910390fd5b6104c4813373ffffffffffffffffffffffffffffffffffffffff16610bd490919063ffffffff16565b600160008190555050565b60008073ffffffffffffffffffffffffffffffffffffffff168373ffffffffffffffffffffffffffffffffffffffff1614806105375750600073ffffffffffffffffffffffffffffffffffffffff168273ffffffffffffffffffffffffffffffffffffffff16145b905092915050565b600060606105b9600260006002811061055b5761055a61114f565b5b0160009054906101000a900473ffffffffffffffffffffffffffffffffffffffff1660026001600281106105925761059161114f565b5b0160009054906101000a900473ffffffffffffffffffffffffffffffffffffffff166104cf565b156105f9576040517f08c379a00000000000000000000000000000000000000000000000000000000081526004016105f090611201565b60405180910390fd5b3373ffffffffffffffffffffffffffffffffffffffff1660026000600281106106255761062461114f565b5b0160009054906101000a900473ffffffffffffffffffffffffffffffffffffffff1673ffffffffffffffffffffffffffffffffffffffff1614806106ca57503373ffffffffffffffffffffffffffffffffffffffff1660026001600281106106905761068f61114f565b5b0160009054906101000a900473ffffffffffffffffffffffffffffffffffffffff1673ffffffffffffffffffffffffffffffffffffffff16145b610709576040517f08c379a000000000000000000000000000000000000000000000000000000000815260040161070090611293565b60405180910390fd5b6002600054141561074f576040517f08c379a0000000000000000000000000000000000000000000000000000000008152600401610746906112ff565b60405180910390fd5b60026000819055508247101561079a576040517f08c379a0000000000000000000000000000000000000000000000000000000008152600401610791906113d7565b60405180910390fd5b60005a90506000808873ffffffffffffffffffffffffffffffffffffffff168688908a6040516107ca9190611433565b600060405180830381858888f193505050503d8060008114610808576040519150601f19603f3d011682016040523d82523d6000602084013e61080d565b606091505b509150915060005a846108209190611479565b905061086283836040518060400160405280601e81526020017f4d696e696f6e3a20657865637574696e67206f72646572206661696c65640000815250610cc8565b9450600085511495508973ffffffffffffffffffffffffffffffffffffffff167f6064d1b32650a8200625b5c4a0ad953066ae460a7886658d66901d7b121ab97d87836040516108b39291906114ad565b60405180910390a250505050600160008190555094509492505050565b6108da82826104cf565b1561091a576040517f08c379a000000000000000000000000000000000000000000000000000000000815260040161091190611522565b60405180910390fd5b61099060026000600281106109325761093161114f565b5b0160009054906101000a900473ffffffffffffffffffffffffffffffffffffffff1660026001600281106109695761096861114f565b5b0160009054906101000a900473ffffffffffffffffffffffffffffffffffffffff166104cf565b6109cf576040517f08c379a00000000000000000000000000000000000000000000000000000000081526004016109c6906115b4565b60405180910390fd5b8073ffffffffffffffffffffffffffffffffffffffff168273ffffffffffffffffffffffffffffffffffffffff161415610a3e576040517f08c379a0000000000000000000000000000000000000000000000000000000008152600401610a3590611646565b60405180910390fd5b600160009054906101000a900473ffffffffffffffffffffffffffffffffffffffff1673ffffffffffffffffffffffffffffffffffffffff168273ffffffffffffffffffffffffffffffffffffffff161480610ae75750600160009054906101000a900473ffffffffffffffffffffffffffffffffffffffff1673ffffffffffffffffffffffffffffffffffffffff168173ffffffffffffffffffffffffffffffffffffffff16145b610b26576040517f08c379a0000000000000000000000000000000000000000000000000000000008152600401610b1d906116d8565b60405180910390fd5b816002600060028110610b3c57610b3b61114f565b5b0160006101000a81548173ffffffffffffffffffffffffffffffffffffffff021916908373ffffffffffffffffffffffffffffffffffffffff160217905550806002600160028110610b9157610b9061114f565b5b0160006101000a81548173ffffffffffffffffffffffffffffffffffffffff021916908373ffffffffffffffffffffffffffffffffffffffff1602179055505050565b80471015610c17576040517f08c379a0000000000000000000000000000000000000000000000000000000008152600401610c0e90611744565b60405180910390fd5b60008273ffffffffffffffffffffffffffffffffffffffff1682604051610c3d9061178a565b60006040518083038185875af1925050503d8060008114610c7a576040519150601f19603f3d011682016040523d82523d6000602084013e610c7f565b606091505b5050905080610cc3576040517f08c379a0000000000000000000000000000000000000000000000000000000008152600401610cba90611811565b60405180910390fd5b505050565b60608315610cd857829050610d28565b600083511115610ceb5782518084602001fd5b816040517f08c379a0000000000000000000000000000000000000000000000000000000008152600401610d1f9190611875565b60405180910390fd5b9392505050565b6000819050919050565b610d4281610d2f565b82525050565b6000602082019050610d5d6000830184610d39565b92915050565b6000604051905090565b600080fd5b600080fd5b610d8081610d2f565b8114610d8b57600080fd5b50565b600081359050610d9d81610d77565b92915050565b600060208284031215610db957610db8610d6d565b5b6000610dc784828501610d8e565b91505092915050565b600073ffffffffffffffffffffffffffffffffffffffff82169050919050565b6000610dfb82610dd0565b9050919050565b610e0b81610df0565b82525050565b6000602082019050610e266000830184610e02565b92915050565b610e3581610df0565b8114610e4057600080fd5b50565b600081359050610e5281610e2c565b92915050565b60008060408385031215610e6f57610e6e610d6d565b5b6000610e7d85828601610e43565b9250506020610e8e85828601610e43565b9150509250929050565b60008115159050919050565b610ead81610e98565b82525050565b6000602082019050610ec86000830184610ea4565b92915050565b600080fd5b600080fd5b6000601f19601f8301169050919050565b7f4e487b7100000000000000000000000000000000000000000000000000000000600052604160045260246000fd5b610f2182610ed8565b810181811067ffffffffffffffff82111715610f4057610f3f610ee9565b5b80604052505050565b6000610f53610d63565b9050610f5f8282610f18565b919050565b600067ffffffffffffffff821115610f7f57610f7e610ee9565b5b610f8882610ed8565b9050602081019050919050565b82818337600083830152505050565b6000610fb7610fb284610f64565b610f49565b905082815260208101848484011115610fd357610fd2610ed3565b5b610fde848285610f95565b509392505050565b600082601f830112610ffb57610ffa610ece565b5b813561100b848260208601610fa4565b91505092915050565b6000806000806080858703121561102e5761102d610d6d565b5b600061103c87828801610e43565b945050602085013567ffffffffffffffff81111561105d5761105c610d72565b5b61106987828801610fe6565b935050604061107a87828801610d8e565b925050606061108b87828801610d8e565b91505092959194509250565b600081519050919050565b600082825260208201905092915050565b60005b838110156110d15780820151818401526020810190506110b6565b838111156110e0576000848401525b50505050565b60006110f182611097565b6110fb81856110a2565b935061110b8185602086016110b3565b61111481610ed8565b840191505092915050565b60006040820190506111346000830185610ea4565b818103602083015261114681846110e6565b90509392505050565b7f4e487b7100000000000000000000000000000000000000000000000000000000600052603260045260246000fd5b600082825260208201905092915050565b7f4d696e696f6e3a20636f6e74726163742063616e206e6f74206265207573656460008201527f206265666f7265207265676973746572696e6700000000000000000000000000602082015250565b60006111eb60338361117e565b91506111f68261118f565b604082019050919050565b6000602082019050818103600083015261121a816111de565b9050919050565b7f4d696e696f6e3a206f6e6c79206f776e65727320616c6c6f77656420746f207060008201527f6572666f726d207468697320616374696f6e0000000000000000000000000000602082015250565b600061127d60328361117e565b915061128882611221565b604082019050919050565b600060208201905081810360008301526112ac81611270565b9050919050565b7f5265656e7472616e637947756172643a207265656e7472616e742063616c6c00600082015250565b60006112e9601f8361117e565b91506112f4826112b3565b602082019050919050565b60006020820190508181036000830152611318816112dc565b9050919050565b7f4d696e696f6e3a20696e73756666696369656e742066756e6473000000000000600082015250565b6000611355601a8361117e565b91506113608261131f565b602082019050919050565b6000602082019050818103600083015261138481611348565b9050919050565b7f4d696e696f6e3a20696e73756666696369656e742062616c616e636500000000600082015250565b60006113c1601c8361117e565b91506113cc8261138b565b602082019050919050565b600060208201905081810360008301526113f0816113b4565b9050919050565b600081905092915050565b600061140d82611097565b61141781856113f7565b93506114278185602086016110b3565b80840191505092915050565b600061143f8284611402565b915081905092915050565b7f4e487b7100000000000000000000000000000000000000000000000000000000600052601160045260246000fd5b600061148482610d2f565b915061148f83610d2f565b9250828210156114a2576114a161144a565b5b828203905092915050565b60006040820190506114c26000830185610ea4565b6114cf6020830184610d39565b9392505050565b7f4d696e696f6e3a20696e76616c6964206164647265737320676976656e000000600082015250565b600061150c601d8361117e565b9150611517826114d6565b602082019050919050565b6000602082019050818103600083015261153b816114ff565b9050919050565b7f4d696e696f6e3a206f776e65727320616c72656164792072656769737465726560008201527f6400000000000000000000000000000000000000000000000000000000000000602082015250565b600061159e60218361117e565b91506115a982611542565b604082019050919050565b600060208201905081810360008301526115cd81611591565b9050919050565b7f4d696e696f6e3a2073616d65206164647265737320666f7220616c6c206f776e60008201527f6572730000000000000000000000000000000000000000000000000000000000602082015250565b600061163060238361117e565b915061163b826115d4565b604082019050919050565b6000602082019050818103600083015261165f81611623565b9050919050565b7f4d696e696f6e3a20636f6e74726163742063726561746f722073686f756c642060008201527f626520696e206f776e6572730000000000000000000000000000000000000000602082015250565b60006116c2602c8361117e565b91506116cd82611666565b604082019050919050565b600060208201905081810360008301526116f1816116b5565b9050919050565b7f416464726573733a20696e73756666696369656e742062616c616e6365000000600082015250565b600061172e601d8361117e565b9150611739826116f8565b602082019050919050565b6000602082019050818103600083015261175d81611721565b9050919050565b50565b60006117746000836113f7565b915061177f82611764565b600082019050919050565b600061179582611767565b9150819050919050565b7f416464726573733a20756e61626c6520746f2073656e642076616c75652c207260008201527f6563697069656e74206d61792068617665207265766572746564000000000000602082015250565b60006117fb603a8361117e565b91506118068261179f565b604082019050919050565b6000602082019050818103600083015261182a816117ee565b9050919050565b600081519050919050565b600061184782611831565b611851818561117e565b93506118618185602086016110b3565b61186a81610ed8565b840191505092915050565b6000602082019050818103600083015261188f818461183c565b90509291505056fea2646970667358221220680dd38388fb872005ee5df6221e081ace06fbb593173cbbaef94a77921c9a3864736f6c63430008090033",
  "immutableReferences": {},
  "source": "\n//SPDX-License-Identifier: MIT\npragma solidity 0.8.9;\n\nimport \"@openzeppelin/contracts/security/ReentrancyGuard.sol\";\nimport \"@openzeppelin/contracts/utils/Address.sol\";\nimport \"./IAutomatonMinion.sol\";\n\ncontract AutomatonMinion is IAutomatonMinion, ReentrancyGuard {\n  using Address for address payable;\n\n  address public creator = msg.sender;\n  address[2] public owners;\n\n  event ReceivedFund(address indexed payer, uint amount);\n  event OrderExecuted(address indexed target, bool result, uint gasLeft);\n\n  modifier onlyOwners() {\n    require(!_addressesAreEmpty(owners[0], owners[1]), 'Minion: contract can not be used before registering');\n    require(owners[0] == msg.sender || owners[1] == msg.sender, 'Minion: only owners allowed to perform this action');\n    _;\n  }\n\n  /**\n   * Checks whether any of the two given addresses are empty\n   */\n  function _addressesAreEmpty(address first, address second) public pure returns (bool) {\n    return first == address(0) || second == address(0);\n  }\n\n  function register(address automaton, address client) external {\n    require(!_addressesAreEmpty(automaton, client), 'Minion: invalid address given');\n    require(_addressesAreEmpty(owners[0], owners[1]), 'Minion: owners already registered');\n    require(automaton != client, 'Minion: same address for all owners');\n    require(automaton == creator || client == creator, 'Minion: contract creator should be in owners');\n\n    owners[0] = automaton;\n    owners[1] = client;\n  }\n\n  fallback() external payable {\n    revert();\n  }\n\n  receive() external payable {\n    emit ReceivedFund(msg.sender, msg.value);\n  }\n\n  function withdraw(uint amount) external onlyOwners nonReentrant {\n    require(address(this).balance > 0, 'Minion: insufficient funds');\n    payable(msg.sender).sendValue(amount);\n\n  }\n\n  function executeOrder(\n    address target,\n    bytes memory data,\n    uint gas,\n    uint value\n  ) external onlyOwners nonReentrant\n    returns (bool success, bytes memory result) {\n    require(address(this).balance >= value, \"Minion: insufficient balance\");\n\n    uint startGas = gasleft();\n    (bool _success, bytes memory returndata) = payable(target).call{value: value, gas: gas}(data);\n    uint remainingGas = startGas - gasleft();\n\n    result = Address.verifyCallResult(_success, returndata, 'Minion: executing order failed');\n    success = result.length == 0;\n\n    emit OrderExecuted(target, success, remainingGas);\n  }\n}\n",
  "sourcePath": "/Users/dimitriskyriazopoulos/Development/solid/consesys/blockchain-developer-bootcamp-final-project/solidity/contracts/AutomatonMinion.sol",
  "compiler": {
    "name": "solc",
    "version": "0.8.9+commit.e5eed63a.Emscripten.clang"
  },
  "schemaVersion": "3.4.3",
  "updatedAt": "2021-11-16T23:35:32.138Z",
  "devdoc": {
    "kind": "dev",
    "methods": {},
    "version": 1
  },
  "userdoc": {
    "kind": "user",
    "methods": {
      "_addressesAreEmpty(address,address)": {
        "notice": "Checks whether any of the two given addresses are empty"
      }
    },
    "version": 1
  }
}