{
  "contractName": "Automaton",
  "abi": [
    {
      "anonymous": false,
      "inputs": [
        {
          "indexed": true,
          "internalType": "address",
          "name": "creator",
          "type": "address"
        },
        {
          "indexed": false,
          "internalType": "uint256",
          "name": "automationId",
          "type": "uint256"
        }
      ],
      "name": "AutomationCompleted",
      "type": "event"
    },
    {
      "anonymous": false,
      "inputs": [
        {
          "indexed": true,
          "internalType": "address",
          "name": "creator",
          "type": "address"
        },
        {
          "indexed": false,
          "internalType": "uint256",
          "name": "automationId",
          "type": "uint256"
        }
      ],
      "name": "AutomationCreated",
      "type": "event"
    },
    {
      "anonymous": false,
      "inputs": [
        {
          "indexed": true,
          "internalType": "address",
          "name": "creator",
          "type": "address"
        },
        {
          "indexed": false,
          "internalType": "uint256",
          "name": "automationId",
          "type": "uint256"
        }
      ],
      "name": "AutomationFailed",
      "type": "event"
    },
    {
      "anonymous": false,
      "inputs": [
        {
          "indexed": true,
          "internalType": "address",
          "name": "minion",
          "type": "address"
        },
        {
          "indexed": false,
          "internalType": "uint256",
          "name": "automationId",
          "type": "uint256"
        },
        {
          "indexed": false,
          "internalType": "uint256",
          "name": "amount",
          "type": "uint256"
        }
      ],
      "name": "AutomationValueForwarded",
      "type": "event"
    },
    {
      "anonymous": false,
      "inputs": [
        {
          "indexed": true,
          "internalType": "address",
          "name": "creator",
          "type": "address"
        },
        {
          "indexed": true,
          "internalType": "address",
          "name": "minion",
          "type": "address"
        }
      ],
      "name": "MinionRegistered",
      "type": "event"
    },
    {
      "anonymous": false,
      "inputs": [
        {
          "indexed": true,
          "internalType": "address",
          "name": "previousOwner",
          "type": "address"
        },
        {
          "indexed": true,
          "internalType": "address",
          "name": "newOwner",
          "type": "address"
        }
      ],
      "name": "OwnershipTransferred",
      "type": "event"
    },
    {
      "anonymous": false,
      "inputs": [
        {
          "indexed": false,
          "internalType": "address",
          "name": "account",
          "type": "address"
        }
      ],
      "name": "Paused",
      "type": "event"
    },
    {
      "anonymous": false,
      "inputs": [
        {
          "indexed": true,
          "internalType": "address",
          "name": "sender",
          "type": "address"
        },
        {
          "indexed": false,
          "internalType": "uint256",
          "name": "amount",
          "type": "uint256"
        }
      ],
      "name": "Received",
      "type": "event"
    },
    {
      "anonymous": false,
      "inputs": [
        {
          "indexed": false,
          "internalType": "address",
          "name": "account",
          "type": "address"
        }
      ],
      "name": "Unpaused",
      "type": "event"
    },
    {
      "stateMutability": "payable",
      "type": "fallback"
    },
    {
      "inputs": [],
      "name": "autoId",
      "outputs": [
        {
          "internalType": "uint256",
          "name": "",
          "type": "uint256"
        }
      ],
      "stateMutability": "view",
      "type": "function"
    },
    {
      "inputs": [
        {
          "internalType": "uint256",
          "name": "",
          "type": "uint256"
        }
      ],
      "name": "automations",
      "outputs": [
        {
          "internalType": "address",
          "name": "creator",
          "type": "address"
        },
        {
          "internalType": "address",
          "name": "target",
          "type": "address"
        },
        {
          "internalType": "address",
          "name": "minion",
          "type": "address"
        },
        {
          "internalType": "bytes",
          "name": "data",
          "type": "bytes"
        },
        {
          "internalType": "uint256",
          "name": "gasLimit",
          "type": "uint256"
        },
        {
          "internalType": "uint256",
          "name": "gasCost",
          "type": "uint256"
        },
        {
          "internalType": "uint256",
          "name": "amount",
          "type": "uint256"
        },
        {
          "internalType": "enum Automaton.State",
          "name": "state",
          "type": "uint8"
        }
      ],
      "stateMutability": "view",
      "type": "function"
    },
    {
      "inputs": [
        {
          "internalType": "address",
          "name": "",
          "type": "address"
        }
      ],
      "name": "clientForMinion",
      "outputs": [
        {
          "internalType": "address",
          "name": "",
          "type": "address"
        }
      ],
      "stateMutability": "view",
      "type": "function"
    },
    {
      "inputs": [],
      "name": "fee",
      "outputs": [
        {
          "internalType": "uint256",
          "name": "",
          "type": "uint256"
        }
      ],
      "stateMutability": "view",
      "type": "function"
    },
    {
      "inputs": [],
      "name": "feeBalance",
      "outputs": [
        {
          "internalType": "uint256",
          "name": "",
          "type": "uint256"
        }
      ],
      "stateMutability": "view",
      "type": "function"
    },
    {
      "inputs": [],
      "name": "owner",
      "outputs": [
        {
          "internalType": "address",
          "name": "",
          "type": "address"
        }
      ],
      "stateMutability": "view",
      "type": "function"
    },
    {
      "inputs": [],
      "name": "paused",
      "outputs": [
        {
          "internalType": "bool",
          "name": "",
          "type": "bool"
        }
      ],
      "stateMutability": "view",
      "type": "function"
    },
    {
      "inputs": [],
      "name": "renounceOwnership",
      "outputs": [],
      "stateMutability": "nonpayable",
      "type": "function"
    },
    {
      "inputs": [
        {
          "internalType": "address",
          "name": "newOwner",
          "type": "address"
        }
      ],
      "name": "transferOwnership",
      "outputs": [],
      "stateMutability": "nonpayable",
      "type": "function"
    },
    {
      "stateMutability": "payable",
      "type": "receive"
    },
    {
      "inputs": [],
      "name": "pause",
      "outputs": [],
      "stateMutability": "nonpayable",
      "type": "function"
    },
    {
      "inputs": [],
      "name": "unpause",
      "outputs": [],
      "stateMutability": "nonpayable",
      "type": "function"
    },
    {
      "inputs": [
        {
          "internalType": "uint256",
          "name": "newFee",
          "type": "uint256"
        }
      ],
      "name": "changeFeeCost",
      "outputs": [],
      "stateMutability": "nonpayable",
      "type": "function"
    },
    {
      "inputs": [
        {
          "internalType": "uint256",
          "name": "amount",
          "type": "uint256"
        }
      ],
      "name": "withdrawFees",
      "outputs": [],
      "stateMutability": "nonpayable",
      "type": "function"
    },
    {
      "inputs": [
        {
          "internalType": "address",
          "name": "target",
          "type": "address"
        },
        {
          "internalType": "uint256",
          "name": "amount",
          "type": "uint256"
        },
        {
          "internalType": "uint256",
          "name": "gasPrice",
          "type": "uint256"
        },
        {
          "internalType": "bytes",
          "name": "data",
          "type": "bytes"
        }
      ],
      "name": "setupAutomation",
      "outputs": [
        {
          "internalType": "uint256",
          "name": "",
          "type": "uint256"
        }
      ],
      "stateMutability": "payable",
      "type": "function"
    },
    {
      "inputs": [
        {
          "internalType": "uint256",
          "name": "_autoId",
          "type": "uint256"
        }
      ],
      "name": "executeAutomation",
      "outputs": [
        {
          "internalType": "bool",
          "name": "executed",
          "type": "bool"
        },
        {
          "internalType": "bytes",
          "name": "result",
          "type": "bytes"
        }
      ],
      "stateMutability": "nonpayable",
      "type": "function"
    }
  ],
  "bytecode": "0x608060405265886c98b7600060055534801561001a57600080fd5b5061002433610037565b600180556002805460ff19169055610087565b600080546001600160a01b038381166001600160a01b0319831681178455604051919092169283917f8be0079c531659141344cd1fd0a4f28419497f9722a3daafe3b4186f6b6457e09190a35050565b6124e5806100966000396000f3fe6080604052600436106100eb5760003560e01c8063715018a61161008a578063a443c74711610059578063a443c747146102a0578063ddca3f43146102d4578063ed945983146102ea578063f2fde38b1461030a57600080fd5b8063715018a61461020a5780638456cb591461021f5780638abb4c91146102345780638da5cb5b1461028257600080fd5b80634b2f073a116100c65780634b2f073a1461019b5780635c975abb146101b15780635e318e07146101d457806360b71d4e146101f457600080fd5b8062c6ecc21461012c578063298da149146101635780633f4ba83a1461018457600080fd5b366101275760405134815233907f88a5966d370b9919b20f3e2c13ff65706f196a4e32cc2c12bf57088f885258749060200160405180910390a2005b600080fd5b34801561013857600080fd5b5061014c6101473660046113fe565b61032a565b60405161015a92919061146f565b60405180910390f35b61017661017136600461151d565b610525565b60405190815260200161015a565b34801561019057600080fd5b50610199610992565b005b3480156101a757600080fd5b5061017660045481565b3480156101bd57600080fd5b5060025460ff16604051901515815260200161015a565b3480156101e057600080fd5b506101996101ef3660046113fe565b6109c6565b34801561020057600080fd5b5061017660065481565b34801561021657600080fd5b50610199610bb8565b34801561022b57600080fd5b50610199610bec565b34801561024057600080fd5b5061026a61024f3660046115c1565b6007602052600090815260409020546001600160a01b031681565b6040516001600160a01b03909116815260200161015a565b34801561028e57600080fd5b506000546001600160a01b031661026a565b3480156102ac57600080fd5b506102c06102bb3660046113fe565b610c1e565b60405161015a9897969594939291906115f2565b3480156102e057600080fd5b5061017660055481565b3480156102f657600080fd5b506101996103053660046113fe565b610cfb565b34801561031657600080fd5b506101996103253660046115c1565b610db6565b6000606061033a60025460ff1690565b156103605760405162461bcd60e51b81526004016103579061166d565b60405180910390fd5b600260015414156103b35760405162461bcd60e51b815260206004820152601f60248201527f5265656e7472616e637947756172643a207265656e7472616e742063616c6c006044820152606401610357565b6002600181815560008581526008602052604090819020928301549183015460058401546006850154925163797530b960e01b81526001600160a01b039485169463797530b994610412949091169260038801929091906004016116d2565b600060405180830381600087803b15801561042c57600080fd5b505af1158015610440573d6000803e3d6000fd5b505050506040513d6000823e601f3d908101601f19168201604052610468919081019061179a565b909350915082156104c85760078101805460ff1916600217905580546040518581526001600160a01b03909116907f297da755a56f6595ca28ebcd6ae5b6fff6a55b8bbf97a9c29a481bfec58093069060200160405180910390a2610519565b60078101805460ff1916600417905580546040518581526001600160a01b03909116907f3fe0420cd991208b732a8eb46ece80be99434b998654a80ce7cab868895d71159060200160405180910390a25b50600180559092909150565b600061053360025460ff1690565b156105505760405162461bcd60e51b81526004016103579061166d565b6001600160a01b0385166105985760405162461bcd60e51b815260206004820152600f60248201526e696e76616c6964206164647265737360881b6044820152606401610357565b600034116105dd5760405162461bcd60e51b8152602060048201526012602482015271696e73756666696369656e742066756e647360701b6044820152606401610357565b600183116106215760405162461bcd60e51b8152602060048201526011602482015270696e76616c69642067617320707269636560781b6044820152606401610357565b6001600160a01b0385163014156106715760405162461bcd60e51b815260206004820152601460248201527334b73b30b634b21031b0b63634b7339039b2b63360611b6044820152606401610357565b6005546108fc9061520890600090610696908890610690903490610e51565b90610e51565b905060006106cf87604051806040016040528060088152602001676f766572666c6f7760c01b81525084610e649092919063ffffffff16565b9050600081116107145760405162461bcd60e51b815260206004820152601060248201526f696e73756666696369656e742067617360801b6044820152606401610357565b838110156107645760405162461bcd60e51b815260206004820152601860248201527f696e73756666696369656e742073746970656e642067617300000000000000006044820152606401610357565b60008811801561077c57506107798484610e9e565b81105b156107d35760405162461bcd60e51b815260206004820152602160248201527f696e73756666696369656e742073746970656e642b7472616e736665722067616044820152607360f81b6064820152608401610357565b60006107dd610eaa565b6004805491925060006107ef83611842565b9190505550604051806101000160405280336001600160a01b031681526020018b6001600160a01b03168152602001826001600160a01b031681526020018881526020018381526020018481526020018a815260200160006004811115610858576108586115dc565b9052600454600090815260086020908152604091829020835181546001600160a01b03199081166001600160a01b0392831617835585840151600184018054831691841691909117905593850151600283018054909516911617909255606083015180516108cc9260038501920190611358565b506080820151816004015560a0820151816005015560c0820151816006015560e08201518160070160006101000a81548160ff02191690836004811115610915576109156115dc565b0217905550506004546040519081523391507fa60bf4d51360f5f4bae1314f7b82d2c7954a4ff4bf83f716c3cd2d2cf418c4de9060200160405180910390a261097460045461096f60055434610e5190919063ffffffff16565b610fcc565b61097f60045461032a565b50506004549a9950505050505050505050565b6000546001600160a01b031633146109bc5760405162461bcd60e51b81526004016103579061185d565b6109c46110ff565b565b6000546001600160a01b031633146109f05760405162461bcd60e51b81526004016103579061185d565b60026001541415610a435760405162461bcd60e51b815260206004820152601f60248201527f5265656e7472616e637947756172643a207265656e7472616e742063616c6c006044820152606401610357565b60026001553081610a8d5760405162461bcd60e51b8152602060048201526014602482015273696e76616c696420616d6f756e742076616c756560601b6044820152606401610357565b600654821115610adf5760405162461bcd60e51b815260206004820152601760248201527f696e737566696369656e74207469702062616c616e63650000000000000000006044820152606401610357565b806001600160a01b031631821115610b2d5760405162461bcd60e51b8152602060048201526011602482015270696e737566696369656e742066756e647360781b6044820152606401610357565b81610b735760405133906001600160a01b0383163180156108fc02916000818181858888f19350505050158015610b68573d6000803e3d6000fd5b506000600655610bb0565b604051339083156108fc029084906000818181858888f19350505050158015610ba0573d6000803e3d6000fd5b50600654610bae9083610e51565b505b505060018055565b6000546001600160a01b03163314610be25760405162461bcd60e51b81526004016103579061185d565b6109c46000611192565b6000546001600160a01b03163314610c165760405162461bcd60e51b81526004016103579061185d565b6109c46111e2565b60086020526000908152604090208054600182015460028301546003840180546001600160a01b0394851695938516949092169291610c5c90611697565b80601f0160208091040260200160405190810160405280929190818152602001828054610c8890611697565b8015610cd55780601f10610caa57610100808354040283529160200191610cd5565b820191906000526020600020905b815481529060010190602001808311610cb857829003601f168201915b505050506004830154600584015460068501546007909501549394919390925060ff1688565b6000546001600160a01b03163314610d255760405162461bcd60e51b81526004016103579061185d565b60025460ff16610d6e5760405162461bcd60e51b815260206004820152601460248201527314185d5cd8589b194e881b9bdd081c185d5cd95960621b6044820152606401610357565b60405162461bcd60e51b815260206004820152601d60248201527f74697020776173206c657373206f7220657175616c20746f207a65726f0000006044820152606401610357565b6000546001600160a01b03163314610de05760405162461bcd60e51b81526004016103579061185d565b6001600160a01b038116610e455760405162461bcd60e51b815260206004820152602660248201527f4f776e61626c653a206e6577206f776e657220697320746865207a65726f206160448201526564647265737360d01b6064820152608401610357565b610e4e81611192565b50565b6000610e5d8284611892565b9392505050565b60008183610e855760405162461bcd60e51b815260040161035791906118a9565b50828481610e9557610e956118bc565b04949350505050565b6000610e5d82846118d2565b336000908152600760205260408120546001600160a01b0316610faf576000604051610ed5906113dc565b604051809103906000f080158015610ef1573d6000803e3d6000fd5b50336000818152600760205260409081902080546001600160a01b0319166001600160a01b0385169081179091559051632a99dcd560e21b8152306004820152602481019290925291925063aa67735490604401600060405180830381600087803b158015610f5f57600080fd5b505af1158015610f73573d6000803e3d6000fd5b50506040516001600160a01b03851692503091507f07bd85b4378bcbedd07b63c5e1c4bea32a82304bdf2bc8bc5f012f103941244090600090a3505b50336000908152600760205260409020546001600160a01b031690565b60025460ff1615610fef5760405162461bcd60e51b81526004016103579061166d565b8034116110545760405162461bcd60e51b815260206004820152602d60248201527f6e6f7420656e6f756768742065746865722073656e6420746f2073617469736660448201526c3c903a3434b99030b1ba34b7b760991b6064820152608401610357565b6000828152600860205260409020600281015447919061107d906001600160a01b03168461123a565b60078101805460ff19166001179055600281015460408051868152602081018690526001600160a01b03909216917f4a613e9c42f26e4aff0d776fd9bb4b8c9e8516c1c7095968c0c59d0205284f3d910160405180910390a26110e08234610e51565b6005546110ee904790610e9e565b10156110f957600080fd5b50505050565b60025460ff166111485760405162461bcd60e51b815260206004820152601460248201527314185d5cd8589b194e881b9bdd081c185d5cd95960621b6044820152606401610357565b6002805460ff191690557f5db9ee0a495bf2e6ff9c91a7834c1ba4fdd244a5e8aa4e537bd38aeae4b073aa335b6040516001600160a01b03909116815260200160405180910390a1565b600080546001600160a01b038381166001600160a01b0319831681178455604051919092169283917f8be0079c531659141344cd1fd0a4f28419497f9722a3daafe3b4186f6b6457e09190a35050565b60025460ff16156112055760405162461bcd60e51b81526004016103579061166d565b6002805460ff191660011790557f62e78cea01bee320cd4e420270b5ea74000d11b0c9f74754ebdbfc544b05a2586111753390565b8047101561128a5760405162461bcd60e51b815260206004820152601d60248201527f416464726573733a20696e73756666696369656e742062616c616e63650000006044820152606401610357565b6000826001600160a01b03168260405160006040518083038185875af1925050503d80600081146112d7576040519150601f19603f3d011682016040523d82523d6000602084013e6112dc565b606091505b50509050806113535760405162461bcd60e51b815260206004820152603a60248201527f416464726573733a20756e61626c6520746f2073656e642076616c75652c207260448201527f6563697069656e74206d617920686176652072657665727465640000000000006064820152608401610357565b505050565b82805461136490611697565b90600052602060002090601f01602090048101928261138657600085556113cc565b82601f1061139f57805160ff19168380011785556113cc565b828001600101855582156113cc579182015b828111156113cc5782518255916020019190600101906113b1565b506113d89291506113e9565b5090565b610bc5806118eb83390190565b5b808211156113d857600081556001016113ea565b60006020828403121561141057600080fd5b5035919050565b60005b8381101561143257818101518382015260200161141a565b838111156110f95750506000910152565b6000815180845261145b816020860160208601611417565b601f01601f19169290920160200192915050565b821515815260406020820152600061148a6040830184611443565b949350505050565b80356001600160a01b03811681146114a957600080fd5b919050565b634e487b7160e01b600052604160045260246000fd5b604051601f8201601f1916810167ffffffffffffffff811182821017156114ed576114ed6114ae565b604052919050565b600067ffffffffffffffff82111561150f5761150f6114ae565b50601f01601f191660200190565b6000806000806080858703121561153357600080fd5b61153c85611492565b93506020850135925060408501359150606085013567ffffffffffffffff81111561156657600080fd5b8501601f8101871361157757600080fd5b803561158a611585826114f5565b6114c4565b81815288602083850101111561159f57600080fd5b8160208401602083013760006020838301015280935050505092959194509250565b6000602082840312156115d357600080fd5b610e5d82611492565b634e487b7160e01b600052602160045260246000fd5b6001600160a01b0389811682528881166020830152871660408201526101006060820181905260009061162783820189611443565b9150508560808301528460a08301528360c08301526005831061165a57634e487b7160e01b600052602160045260246000fd5b8260e08301529998505050505050505050565b60208082526010908201526f14185d5cd8589b194e881c185d5cd95960821b604082015260600190565b600181811c908216806116ab57607f821691505b602082108114156116cc57634e487b7160e01b600052602260045260246000fd5b50919050565b60018060a01b0385168152600060206080818401526000865481600182811c91508083168061170257607f831692505b85831081141561172057634e487b7160e01b85526022600452602485fd5b6080880183905260a0880181801561173f57600181146117505761177b565b60ff1986168252878201965061177b565b60008d81526020902060005b868110156117755781548482015290850190890161175c565b83019750505b5050505050604085019690965260609093019390935250949350505050565b600080604083850312156117ad57600080fd5b825180151581146117bd57600080fd5b602084015190925067ffffffffffffffff8111156117da57600080fd5b8301601f810185136117eb57600080fd5b80516117f9611585826114f5565b81815286602083850101111561180e57600080fd5b61181f826020830160208601611417565b8093505050509250929050565b634e487b7160e01b600052601160045260246000fd5b60006000198214156118565761185661182c565b5060010190565b6020808252818101527f4f776e61626c653a2063616c6c6572206973206e6f7420746865206f776e6572604082015260600190565b6000828210156118a4576118a461182c565b500390565b602081526000610e5d6020830184611443565b634e487b7160e01b600052601260045260246000fd5b600082198211156118e5576118e561182c565b50019056fe6080604052600180546001600160a01b0319163317905534801561002257600080fd5b506001600055610b8e806100376000396000f3fe6080604052600436106100595760003560e01c8063025e7c271461009c57806302d05d3f146100d95780632e1a7d4d146100f957806354e59cec1461011b578063797530b91461014b578063aa6773541461017957600080fd5b3661009757604051348152339030907f6047e5fc9c9d18a0e28e778d1344733e25b1c535c56ed9090b40aba96bc118ee9060200160405180910390a3005b600080fd5b3480156100a857600080fd5b506100bc6100b7366004610890565b610199565b6040516001600160a01b0390911681526020015b60405180910390f35b3480156100e557600080fd5b506001546100bc906001600160a01b031681565b34801561010557600080fd5b50610119610114366004610890565b6101b9565b005b34801561012757600080fd5b5061013b6101363660046108c5565b6102fc565b60405190151581526020016100d0565b34801561015757600080fd5b5061016b61016636600461090e565b610322565b6040516100d0929190610a3c565b34801561018557600080fd5b506101196101943660046108c5565b61055a565b600281600281106101a957600080fd5b01546001600160a01b0316905081565b6101e0600260005b01546001600160a01b03166002600101546001600160a01b03166102fc565b156102065760405162461bcd60e51b81526004016101fd90610a5f565b60405180910390fd5b6002546001600160a01b031633148061022957506003546001600160a01b031633145b6102455760405162461bcd60e51b81526004016101fd90610ab2565b600260005414156102985760405162461bcd60e51b815260206004820152601f60248201527f5265656e7472616e637947756172643a207265656e7472616e742063616c6c0060448201526064016101fd565b6002600055476102ea5760405162461bcd60e51b815260206004820152601a60248201527f4d696e696f6e3a20696e73756666696369656e742066756e647300000000000060448201526064016101fd565b6102f43382610739565b506001600055565b60006001600160a01b038316158061031b57506001600160a01b038216155b9392505050565b600060606103316002836101c1565b1561034e5760405162461bcd60e51b81526004016101fd90610a5f565b6002546001600160a01b031633148061037157506003546001600160a01b031633145b61038d5760405162461bcd60e51b81526004016101fd90610ab2565b600260005414156103e05760405162461bcd60e51b815260206004820152601f60248201527f5265656e7472616e637947756172643a207265656e7472616e742063616c6c0060448201526064016101fd565b6002600055478311156104355760405162461bcd60e51b815260206004820152601c60248201527f4d696e696f6e3a20696e73756666696369656e742062616c616e63650000000060448201526064016101fd565b60005a9050600080886001600160a01b03168688908a6040516104589190610b04565b600060405180830381858888f193505050503d8060008114610496576040519150601f19603f3d011682016040523d82523d6000602084013e61049b565b606091505b509150915060005a6104ad9085610b20565b90506104ef83836040518060400160405280601e81526020017f4d696e696f6e3a20657865637574696e67206f72646572206661696c65640000815250610857565b8051604080516001600160a01b038e1681529115602083018190529082018490529750909550339030907fe804b280aa12cd5093196599c6e208dac4edc6ea9d2e690031382a2bc8468bc39060600160405180910390a3505060016000555091969095509350505050565b61056482826102fc565b156105b15760405162461bcd60e51b815260206004820152601d60248201527f4d696e696f6e3a20696e76616c6964206164647265737320676976656e00000060448201526064016101fd565b6105bd600260006101c1565b6106135760405162461bcd60e51b815260206004820152602160248201527f4d696e696f6e3a206f776e65727320616c7265616479207265676973746572656044820152601960fa1b60648201526084016101fd565b806001600160a01b0316826001600160a01b031614156106815760405162461bcd60e51b815260206004820152602360248201527f4d696e696f6e3a2073616d65206164647265737320666f7220616c6c206f776e60448201526265727360e81b60648201526084016101fd565b6001546001600160a01b03838116911614806106aa57506001546001600160a01b038281169116145b61070b5760405162461bcd60e51b815260206004820152602c60248201527f4d696e696f6e3a20636f6e74726163742063726561746f722073686f756c642060448201526b626520696e206f776e65727360a01b60648201526084016101fd565b600280546001600160a01b039384166001600160a01b03199182161790915560038054929093169116179055565b804710156107895760405162461bcd60e51b815260206004820152601d60248201527f416464726573733a20696e73756666696369656e742062616c616e636500000060448201526064016101fd565b6000826001600160a01b03168260405160006040518083038185875af1925050503d80600081146107d6576040519150601f19603f3d011682016040523d82523d6000602084013e6107db565b606091505b50509050806108525760405162461bcd60e51b815260206004820152603a60248201527f416464726573733a20756e61626c6520746f2073656e642076616c75652c207260448201527f6563697069656e74206d6179206861766520726576657274656400000000000060648201526084016101fd565b505050565b6060831561086657508161031b565b8251156108765782518084602001fd5b8160405162461bcd60e51b81526004016101fd9190610b45565b6000602082840312156108a257600080fd5b5035919050565b80356001600160a01b03811681146108c057600080fd5b919050565b600080604083850312156108d857600080fd5b6108e1836108a9565b91506108ef602084016108a9565b90509250929050565b634e487b7160e01b600052604160045260246000fd5b6000806000806080858703121561092457600080fd5b61092d856108a9565b9350602085013567ffffffffffffffff8082111561094a57600080fd5b818701915087601f83011261095e57600080fd5b813581811115610970576109706108f8565b604051601f8201601f19908116603f01168101908382118183101715610998576109986108f8565b816040528281528a60208487010111156109b157600080fd5b826020860160208301376000928101602001929092525095989597505050506040840135936060013592915050565b60005b838110156109fb5781810151838201526020016109e3565b83811115610a0a576000848401525b50505050565b60008151808452610a288160208601602086016109e0565b601f01601f19169290920160200192915050565b8215158152604060208201526000610a576040830184610a10565b949350505050565b60208082526033908201527f4d696e696f6e3a20636f6e74726163742063616e206e6f742062652075736564604082015272206265666f7265207265676973746572696e6760681b606082015260800190565b60208082526032908201527f4d696e696f6e3a206f6e6c79206f776e65727320616c6c6f77656420746f207060408201527132b93337b936903a3434b99030b1ba34b7b760711b606082015260800190565b60008251610b168184602087016109e0565b9190910192915050565b600082821015610b4057634e487b7160e01b600052601160045260246000fd5b500390565b60208152600061031b6020830184610a1056fea26469706673582212208c35561d6e5115eddb830e99646ba8151b1b7d55aa76e22e664215e3ded432fb64736f6c63430008090033a2646970667358221220ec8b603868ff04ef19601e0ca159e936ff3f95c48b595cbfe8fe67cff6be91dd64736f6c63430008090033",
  "immutableReferences": {},
  "source": "//SPDX-License-Identifier: MIT\npragma solidity 0.8.9;\n\nimport \"@openzeppelin/contracts/utils/math/SafeMath.sol\";\nimport \"@openzeppelin/contracts/access/Ownable.sol\";\nimport \"@openzeppelin/contracts/security/ReentrancyGuard.sol\";\nimport \"@openzeppelin/contracts/security/Pausable.sol\";\n\nimport \"./AutomatonMinion.sol\";\nimport \"./IAutomatonMinion.sol\";\n\n\ncontract Automaton is Ownable, ReentrancyGuard, Pausable {\n  using SafeMath for uint256;\n  using Address for address payable;\n\n  enum State {\n    Open,\n    Forwarded,\n    Completed,\n    Closed,\n    Failed\n  }\n\n  struct Automation {\n    address creator;\n    address target;\n    address minion;\n    bytes data;\n    uint gasLimit;\n    uint gasCost;\n    uint amount;\n    State state;\n  }\n\n  uint storedData;\n  uint256 public autoId;\n  uint256 public fee = 150000000000000; // 150.000 gwei\n  uint256 public feeBalance;\n\n  mapping(address => address) public clientForMinion;\n  mapping(uint256 => Automation) public automations;\n\n  event MinionRegistered(address indexed creator, address indexed minion);\n  event AutomationCreated(address indexed creator, uint automationId);\n  event AutomationFailed(address indexed creator, uint automationId);\n  event AutomationCompleted(address indexed creator, uint automationId);\n  event AutomationValueForwarded(address indexed minion, uint automationId, uint amount);\n  event Received(address indexed sender, uint amount);\n\n  fallback() external payable {\n    revert();\n  }\n\n  receive() external payable {\n    emit Received(msg.sender, msg.value);\n  }\n\n  function pause() public onlyOwner {\n    super._pause();\n  }\n\n  function unpause() public onlyOwner {\n    super._unpause();\n  }\n\n  function changeFeeCost(uint newFee) public onlyOwner whenPaused {\n    require(newFee < 0, 'tip was less or equal to zero');\n    fee = newFee;\n  }\n\n  function withdrawFees(uint amount) public onlyOwner nonReentrant {\n    address _this = address(this);\n    require(amount > 0, 'invalid amount value');\n    require(amount <= feeBalance, 'insuficient tip balance');\n    require(amount <= _this.balance, 'insuficient funds');\n\n    if (amount == 0) {\n      payable(msg.sender).transfer(_this.balance);\n      feeBalance = 0;\n    } else {\n      payable(msg.sender).transfer(amount);\n      feeBalance.sub(amount);\n    }\n  }\n\n  function _getOrRegisterMinion() internal returns (address minion) {\n    if (clientForMinion[msg.sender] == address(0)) {\n      AutomatonMinion _minion = new AutomatonMinion();\n      clientForMinion[msg.sender] = address(_minion);\n      _minion.register(address(this), msg.sender);\n      emit MinionRegistered(address(this), minion);\n    }\n\n    minion = clientForMinion[msg.sender];\n  }\n\n\n  function _forwardAutomationValue(uint _autoId, uint amount) internal whenNotPaused {\n    require(msg.value > amount, 'not enought ether send to satisfy this action');\n    require(amount >= 0);\n    uint startBalance = address(this).balance;\n    Automation storage automation = automations[_autoId];\n    Address.sendValue(payable(automation.minion), amount);\n    automation.state = State.Forwarded;\n    emit AutomationValueForwarded(automation.minion, _autoId, amount);\n    require(address(this).balance.add(fee)>= startBalance.sub(msg.value));\n  }\n\n  function setupAutomation(address target, uint amount, uint gasPrice, bytes memory data) public payable whenNotPaused returns (uint) {\n    require(target != address(0), 'invalid address');\n    require(msg.value > 0, 'insufficient funds');\n    require(gasPrice > 1, 'invalid gas price');\n    require(target != address(this), 'invalid calling self');\n\n    uint stipendGas = 2300;\n    uint transferGas = 21000;\n    uint carriedGasCost = msg.value.sub(fee).sub(amount);\n    uint carriedGas = carriedGasCost.div(gasPrice, 'overflow');\n    require(carriedGas > 0, 'insufficient gas');\n    require(carriedGas >= stipendGas, 'insufficient stipend gas');\n    if (amount > 0 && carriedGas < stipendGas.add(transferGas)) {\n      revert('insufficient stipend+transfer gas');\n    }\n\n    address minion = _getOrRegisterMinion();\n    autoId++;\n    automations[autoId] = Automation({\n      creator: msg.sender,\n      target: target,\n      minion: minion,\n      data: data,\n      gasLimit: carriedGas,\n      gasCost: carriedGasCost,\n      amount: amount,\n      state: State.Open\n    });\n\n    emit AutomationCreated(msg.sender, autoId);\n\n    _forwardAutomationValue(autoId, msg.value.sub(fee));\n\n    executeAutomation(autoId);\n\n    return autoId;\n  }\n\n\n  function executeAutomation(uint _autoId) public whenNotPaused nonReentrant returns  (bool executed, bytes memory result) {\n    Automation storage automation = automations[_autoId];\n    (executed, result) = IAutomatonMinion(automation.minion).executeOrder({\n      target: automation.target,\n      data: automation.data,\n      gas: automation.gasCost,\n      value: automation.amount\n    });\n\n    if (executed) {\n      automation.state = State.Completed;\n      emit AutomationCompleted(automation.creator, _autoId);\n    } else {\n      automation.state = State.Failed;\n      emit AutomationFailed(automation.creator, _autoId);\n    }\n  }\n\n}\n\n",
  "sourcePath": "/Users/dimitriskyriazopoulos/Development/solid/consesys/blockchain-developer-bootcamp-final-project/solidity/contracts/Automaton.sol",
  "compiler": {
    "name": "solc",
    "version": "0.8.9+commit.e5eed63a.Emscripten.clang"
  },
  "schemaVersion": "3.4.3",
  "updatedAt": "2021-11-23T02:26:51.762Z",
  "devdoc": {
    "kind": "dev",
    "methods": {
      "owner()": {
        "details": "Returns the address of the current owner."
      },
      "paused()": {
        "details": "Returns true if the contract is paused, and false otherwise."
      },
      "renounceOwnership()": {
        "details": "Leaves the contract without owner. It will not be possible to call `onlyOwner` functions anymore. Can only be called by the current owner. NOTE: Renouncing ownership will leave the contract without an owner, thereby removing any functionality that is only available to the owner."
      },
      "transferOwnership(address)": {
        "details": "Transfers ownership of the contract to a new account (`newOwner`). Can only be called by the current owner."
      }
    },
    "version": 1
  },
  "userdoc": {
    "kind": "user",
    "methods": {},
    "version": 1
  }
}