{
  "contractName": "Automaton",
  "abi": [
    {
      "anonymous": false,
      "inputs": [
        {
          "indexed": true,
          "internalType": "address",
          "name": "creator",
          "type": "address"
        },
        {
          "indexed": false,
          "internalType": "uint256",
          "name": "automationId",
          "type": "uint256"
        }
      ],
      "name": "AutomationCompleted",
      "type": "event"
    },
    {
      "anonymous": false,
      "inputs": [
        {
          "indexed": true,
          "internalType": "address",
          "name": "creator",
          "type": "address"
        },
        {
          "indexed": false,
          "internalType": "uint256",
          "name": "automationId",
          "type": "uint256"
        },
        {
          "components": [
            {
              "internalType": "address",
              "name": "creator",
              "type": "address"
            },
            {
              "internalType": "address",
              "name": "minion",
              "type": "address"
            },
            {
              "components": [
                {
                  "internalType": "bytes",
                  "name": "data",
                  "type": "bytes"
                },
                {
                  "internalType": "uint256",
                  "name": "gasLimit",
                  "type": "uint256"
                },
                {
                  "internalType": "uint256",
                  "name": "gasPrice",
                  "type": "uint256"
                },
                {
                  "internalType": "uint256",
                  "name": "amount",
                  "type": "uint256"
                },
                {
                  "internalType": "address",
                  "name": "target",
                  "type": "address"
                }
              ],
              "internalType": "struct Automaton.Action",
              "name": "action",
              "type": "tuple"
            },
            {
              "components": [
                {
                  "internalType": "address",
                  "name": "oracle",
                  "type": "address"
                },
                {
                  "internalType": "enum Automaton.Comparator",
                  "name": "comparator",
                  "type": "uint8"
                },
                {
                  "internalType": "bytes",
                  "name": "subject",
                  "type": "bytes"
                }
              ],
              "internalType": "struct Automaton.Condition",
              "name": "condition",
              "type": "tuple"
            },
            {
              "internalType": "enum Automaton.State",
              "name": "state",
              "type": "uint8"
            }
          ],
          "indexed": false,
          "internalType": "struct Automaton.Automation",
          "name": "automation",
          "type": "tuple"
        }
      ],
      "name": "AutomationCreated",
      "type": "event"
    },
    {
      "anonymous": false,
      "inputs": [
        {
          "indexed": true,
          "internalType": "address",
          "name": "creator",
          "type": "address"
        },
        {
          "indexed": false,
          "internalType": "uint256",
          "name": "automationId",
          "type": "uint256"
        },
        {
          "indexed": false,
          "internalType": "bytes",
          "name": "reason",
          "type": "bytes"
        }
      ],
      "name": "AutomationFailed",
      "type": "event"
    },
    {
      "anonymous": false,
      "inputs": [
        {
          "indexed": true,
          "internalType": "address",
          "name": "minion",
          "type": "address"
        },
        {
          "indexed": false,
          "internalType": "uint256",
          "name": "automationId",
          "type": "uint256"
        },
        {
          "indexed": false,
          "internalType": "uint256",
          "name": "amount",
          "type": "uint256"
        }
      ],
      "name": "AutomationValueForwarded",
      "type": "event"
    },
    {
      "anonymous": false,
      "inputs": [
        {
          "indexed": false,
          "internalType": "uint256",
          "name": "newValue",
          "type": "uint256"
        },
        {
          "indexed": false,
          "internalType": "uint256",
          "name": "prevValue",
          "type": "uint256"
        }
      ],
      "name": "FeeCostChanged",
      "type": "event"
    },
    {
      "anonymous": false,
      "inputs": [
        {
          "indexed": true,
          "internalType": "address",
          "name": "sender",
          "type": "address"
        },
        {
          "indexed": false,
          "internalType": "uint256",
          "name": "amount",
          "type": "uint256"
        }
      ],
      "name": "FundsReceived",
      "type": "event"
    },
    {
      "anonymous": false,
      "inputs": [
        {
          "indexed": true,
          "internalType": "address",
          "name": "creator",
          "type": "address"
        },
        {
          "indexed": false,
          "internalType": "address",
          "name": "minion",
          "type": "address"
        }
      ],
      "name": "MinionRegistered",
      "type": "event"
    },
    {
      "anonymous": false,
      "inputs": [
        {
          "indexed": true,
          "internalType": "address",
          "name": "previousOwner",
          "type": "address"
        },
        {
          "indexed": true,
          "internalType": "address",
          "name": "newOwner",
          "type": "address"
        }
      ],
      "name": "OwnershipTransferred",
      "type": "event"
    },
    {
      "anonymous": false,
      "inputs": [
        {
          "indexed": false,
          "internalType": "address",
          "name": "account",
          "type": "address"
        }
      ],
      "name": "Paused",
      "type": "event"
    },
    {
      "anonymous": false,
      "inputs": [
        {
          "indexed": false,
          "internalType": "address",
          "name": "account",
          "type": "address"
        }
      ],
      "name": "Unpaused",
      "type": "event"
    },
    {
      "stateMutability": "payable",
      "type": "fallback",
      "payable": true
    },
    {
      "inputs": [],
      "name": "autoId",
      "outputs": [
        {
          "internalType": "uint256",
          "name": "",
          "type": "uint256"
        }
      ],
      "stateMutability": "view",
      "type": "function",
      "constant": true
    },
    {
      "inputs": [
        {
          "internalType": "uint256",
          "name": "",
          "type": "uint256"
        }
      ],
      "name": "automations",
      "outputs": [
        {
          "internalType": "address",
          "name": "creator",
          "type": "address"
        },
        {
          "internalType": "address",
          "name": "minion",
          "type": "address"
        },
        {
          "components": [
            {
              "internalType": "bytes",
              "name": "data",
              "type": "bytes"
            },
            {
              "internalType": "uint256",
              "name": "gasLimit",
              "type": "uint256"
            },
            {
              "internalType": "uint256",
              "name": "gasPrice",
              "type": "uint256"
            },
            {
              "internalType": "uint256",
              "name": "amount",
              "type": "uint256"
            },
            {
              "internalType": "address",
              "name": "target",
              "type": "address"
            }
          ],
          "internalType": "struct Automaton.Action",
          "name": "action",
          "type": "tuple"
        },
        {
          "components": [
            {
              "internalType": "address",
              "name": "oracle",
              "type": "address"
            },
            {
              "internalType": "enum Automaton.Comparator",
              "name": "comparator",
              "type": "uint8"
            },
            {
              "internalType": "bytes",
              "name": "subject",
              "type": "bytes"
            }
          ],
          "internalType": "struct Automaton.Condition",
          "name": "condition",
          "type": "tuple"
        },
        {
          "internalType": "enum Automaton.State",
          "name": "state",
          "type": "uint8"
        }
      ],
      "stateMutability": "view",
      "type": "function",
      "constant": true
    },
    {
      "inputs": [
        {
          "internalType": "uint256",
          "name": "newFee",
          "type": "uint256"
        }
      ],
      "name": "changeFeeCost",
      "outputs": [],
      "stateMutability": "nonpayable",
      "type": "function"
    },
    {
      "inputs": [
        {
          "internalType": "address",
          "name": "",
          "type": "address"
        }
      ],
      "name": "clientForMinion",
      "outputs": [
        {
          "internalType": "address",
          "name": "",
          "type": "address"
        }
      ],
      "stateMutability": "view",
      "type": "function",
      "constant": true
    },
    {
      "inputs": [],
      "name": "fee",
      "outputs": [
        {
          "internalType": "uint256",
          "name": "",
          "type": "uint256"
        }
      ],
      "stateMutability": "view",
      "type": "function",
      "constant": true
    },
    {
      "inputs": [],
      "name": "gasOverhead",
      "outputs": [
        {
          "internalType": "uint256",
          "name": "",
          "type": "uint256"
        }
      ],
      "stateMutability": "view",
      "type": "function",
      "constant": true
    },
    {
      "inputs": [],
      "name": "lastAutoIdChecked",
      "outputs": [
        {
          "internalType": "uint256",
          "name": "",
          "type": "uint256"
        }
      ],
      "stateMutability": "view",
      "type": "function",
      "constant": true
    },
    {
      "inputs": [],
      "name": "owner",
      "outputs": [
        {
          "internalType": "address",
          "name": "",
          "type": "address"
        }
      ],
      "stateMutability": "view",
      "type": "function",
      "constant": true
    },
    {
      "inputs": [],
      "name": "pause",
      "outputs": [],
      "stateMutability": "nonpayable",
      "type": "function"
    },
    {
      "inputs": [],
      "name": "paused",
      "outputs": [
        {
          "internalType": "bool",
          "name": "",
          "type": "bool"
        }
      ],
      "stateMutability": "view",
      "type": "function",
      "constant": true
    },
    {
      "inputs": [],
      "name": "renounceOwnership",
      "outputs": [],
      "stateMutability": "nonpayable",
      "type": "function"
    },
    {
      "inputs": [
        {
          "internalType": "address",
          "name": "newOwner",
          "type": "address"
        }
      ],
      "name": "transferOwnership",
      "outputs": [],
      "stateMutability": "nonpayable",
      "type": "function"
    },
    {
      "inputs": [],
      "name": "unpause",
      "outputs": [],
      "stateMutability": "nonpayable",
      "type": "function"
    },
    {
      "inputs": [
        {
          "internalType": "uint256",
          "name": "amount",
          "type": "uint256"
        }
      ],
      "name": "withdrawFees",
      "outputs": [],
      "stateMutability": "nonpayable",
      "type": "function"
    },
    {
      "stateMutability": "payable",
      "type": "receive",
      "payable": true
    },
    {
      "inputs": [
        {
          "internalType": "address",
          "name": "minionFactoryAddress",
          "type": "address"
        },
        {
          "internalType": "uint256",
          "name": "initialFee",
          "type": "uint256"
        }
      ],
      "name": "initialize",
      "outputs": [],
      "stateMutability": "nonpayable",
      "type": "function"
    },
    {
      "inputs": [
        {
          "internalType": "uint256",
          "name": "initialFee",
          "type": "uint256"
        }
      ],
      "name": "initialize",
      "outputs": [],
      "stateMutability": "nonpayable",
      "type": "function"
    },
    {
      "inputs": [
        {
          "internalType": "address",
          "name": "target",
          "type": "address"
        },
        {
          "internalType": "uint256",
          "name": "amount",
          "type": "uint256"
        },
        {
          "internalType": "uint256",
          "name": "gasPrice",
          "type": "uint256"
        },
        {
          "internalType": "bytes",
          "name": "data",
          "type": "bytes"
        },
        {
          "internalType": "bytes",
          "name": "subject",
          "type": "bytes"
        },
        {
          "internalType": "enum Automaton.Comparator",
          "name": "comparator",
          "type": "uint8"
        },
        {
          "internalType": "address",
          "name": "oracle",
          "type": "address"
        }
      ],
      "name": "setupAutomation",
      "outputs": [
        {
          "internalType": "uint256",
          "name": "",
          "type": "uint256"
        }
      ],
      "stateMutability": "payable",
      "type": "function",
      "payable": true
    },
    {
      "inputs": [
        {
          "internalType": "address",
          "name": "oracle",
          "type": "address"
        },
        {
          "internalType": "enum Automaton.Comparator",
          "name": "comparator",
          "type": "uint8"
        },
        {
          "internalType": "bytes",
          "name": "subject",
          "type": "bytes"
        }
      ],
      "name": "checkCondition",
      "outputs": [
        {
          "internalType": "bool",
          "name": "",
          "type": "bool"
        }
      ],
      "stateMutability": "view",
      "type": "function",
      "constant": true
    },
    {
      "inputs": [
        {
          "internalType": "uint256",
          "name": "_autoId",
          "type": "uint256"
        }
      ],
      "name": "executeAutomation",
      "outputs": [
        {
          "internalType": "bool",
          "name": "executed",
          "type": "bool"
        },
        {
          "internalType": "bytes",
          "name": "result",
          "type": "bytes"
        }
      ],
      "stateMutability": "nonpayable",
      "type": "function"
    }
  ],
  "bytecode": "0x608060405234801561001057600080fd5b5061001a3361002d565b600180556002805460ff1916905561007d565b600080546001600160a01b038381166001600160a01b0319831681178455604051919092169283917f8be0079c531659141344cd1fd0a4f28419497f9722a3daafe3b4186f6b6457e09190a35050565b6126b78061008c6000396000f3fe6080604052600436106101175760003560e01c80638abb4c91116100a0578063ddca3f4311610064578063ddca3f4314610334578063e38981fc1461034a578063ed9459831461036a578063f2fde38b1461038a578063fe4b84df146103aa57600080fd5b80638abb4c91146102615780638da5cb5b146102af57806391947954146102cd578063a443c747146102e3578063cd6dc6871461031457600080fd5b80635e318e07116100e75780635e318e07146101ee578063633b2dba1461020e578063715018a61461022157806383fea4ef146102365780638456cb591461024c57600080fd5b8062c6ecc2146101585780633f4ba83a1461018f5780634b2f073a146101a65780635c975abb146101ca57600080fd5b366101535760405134815233907f8e47b87b0ef542cdfa1659c551d88bad38aa7f452d2bbb349ab7530dfec8be8f9060200160405180910390a2005b600080fd5b34801561016457600080fd5b50610178610173366004611da4565b6103ca565b604051610186929190611e15565b60405180910390f35b34801561019b57600080fd5b506101a4610941565b005b3480156101b257600080fd5b506101bc60055481565b604051908152602001610186565b3480156101d657600080fd5b5060025460ff165b6040519015158152602001610186565b3480156101fa57600080fd5b506101a4610209366004611da4565b610975565b6101bc61021c366004611f26565b610a7d565b34801561022d57600080fd5b506101a4610d74565b34801561024257600080fd5b506101bc61fb2c81565b34801561025857600080fd5b506101a4610da8565b34801561026d57600080fd5b5061029761027c366004611fd5565b6007602052600090815260409020546001600160a01b031681565b6040516001600160a01b039091168152602001610186565b3480156102bb57600080fd5b506000546001600160a01b0316610297565b3480156102d957600080fd5b506101bc60065481565b3480156102ef57600080fd5b506103036102fe366004611da4565b610dda565b604051610186959493929190612068565b34801561032057600080fd5b506101a461032f3660046120f6565b610fce565b34801561034057600080fd5b506101bc60035481565b34801561035657600080fd5b506101de610365366004612122565b61109b565b34801561037657600080fd5b506101a4610385366004611da4565b611321565b34801561039657600080fd5b506101a46103a5366004611fd5565b611458565b3480156103b657600080fd5b506101a46103c5366004611da4565b6114f3565b600060606103da60025460ff1690565b156104005760405162461bcd60e51b81526004016103f790612182565b60405180910390fd5b600260015414156104535760405162461bcd60e51b815260206004820152601f60248201527f5265656e7472616e637947756172643a207265656e7472616e742063616c6c0060448201526064016103f7565b600260018181556000858152600860209081526040808320815160a0808201845282546001600160a01b039081168352968301549096169381019390935281519485018252948501805489969495939493928501929190829082906104b7906121ac565b80601f01602080910402602001604051908101604052809291908181526020018280546104e3906121ac565b80156105305780601f1061050557610100808354040283529160200191610530565b820191906000526020600020905b81548152906001019060200180831161051357829003601f168201915b5050509183525050600182015460208083019190915260028301546040808401919091526003808501546060808601919091526004909501546001600160a01b0390811660809095019490945294865280519384019052600786018054928316845294810194929390840191600160a01b900460ff16908111156105b6576105b6611ff2565b60038111156105c7576105c7611ff2565b81526020016001820180546105db906121ac565b80601f0160208091040260200160405190810160405280929190818152602001828054610607906121ac565b80156106545780601f1061062957610100808354040283529160200191610654565b820191906000526020600020905b81548152906001019060200180831161063757829003601f168201915b505050919092525050508152600982015460209091019060ff16600481111561067f5761067f611ff2565b600481111561069057610690611ff2565b90525080519091506001600160a01b03166106ed5760405162461bcd60e51b815260206004820152601d60248201527f4175746f6d61746f6e3a20696e76616c6964206175746f6d6174696f6e00000060448201526064016103f7565b60028160800151600481111561070557610705611ff2565b14158015610729575060038160800151600481111561072657610726611ff2565b14155b801561074b575060048160800151600481111561074857610748611ff2565b14155b6107a35760405162461bcd60e51b8152602060048201526024808201527f4175746f6d61746f6e3a206175746f6d6174696f6e20737461746520697320666044820152631a5b985b60e21b60648201526084016103f7565b600085815260086020526040902060048101543a11156107c257600080fd5b60018101546006820154600483015460038401546001600160a01b039384169363797530b993169160028601916107f891611548565b60058601546040516001600160e01b031960e087901b1681526108219493929190600401612288565b600060405180830381600087803b15801561083b57600080fd5b505af115801561084f573d6000803e3d6000fd5b505050506040513d6000823e601f3d908101601f191682016040526108779190810190612304565b909550935084156108d75760098101805460ff1916600217905580546040518781526001600160a01b03909116907f297da755a56f6595ca28ebcd6ae5b6fff6a55b8bbf97a9c29a481bfec58093069060200160405180910390a2610933565b60098101805460ff1916600417905580546040516001600160a01b03909116907f86af9ca08712e0c48c4ea63a22975cd1153a51e65a592b4f5736fb24e6277eab90610926908990889061235a565b60405180910390a2600080fd5b505060018055509092909150565b6000546001600160a01b0316331461096b5760405162461bcd60e51b81526004016103f790612373565b610973611554565b565b6003546109945760405162461bcd60e51b81526004016103f7906123a8565b6000546001600160a01b031633146109be5760405162461bcd60e51b81526004016103f790612373565b308031821115610a105760405162461bcd60e51b815260206004820152601a60248201527f426173654665653a20696e737566696369656e742066756e647300000000000060448201526064016103f7565b81610a505760405133906001600160a01b0383163180156108fc02916000818181858888f19350505050158015610a4b573d6000803e3d6000fd5b505050565b604051339083156108fc029084906000818181858888f19350505050158015610a4b573d6000803e3d6000fd5b6000610a8b60025460ff1690565b15610aa85760405162461bcd60e51b81526004016103f790612182565b876001600160a01b038116610acf5760405162461bcd60e51b81526004016103f7906123df565b6001600160a01b038116301415610af85760405162461bcd60e51b81526004016103f790612426565b6000610b04888a6115e7565b90506000610b10611738565b600580549192506000610b2283612483565b919050555060006040518060a001604052808a81526020018481526020018b81526020018c81526020018d6001600160a01b031681525090506040518060a00160405280336001600160a01b03168152602001836001600160a01b031681526020018281526020016040518060600160405280896001600160a01b031681526020018a6003811115610bb657610bb6611ff2565b815260209081018c90529082520160009052600554600090815260086020908152604091829020835181546001600160a01b039182166001600160a01b031991821617835585840151600184018054919093169116179055918301518051805191926002850192610c2a9284920190611d14565b50602082810151600183015560408301516002830155606080840151600380850191909155608090940151600490930180546001600160a01b03199081166001600160a01b0395861617909155908601518051600787018054938416919095169081178555928101519094909284926001600160a81b0319161790600160a01b908490811115610cbc57610cbc611ff2565b021790555060408201518051610cdc916001840191602090910190611d14565b505050608082015160098201805460ff19166001836004811115610d0257610d02611ff2565b0217905550506005546000818152600860205260409081902090513393507fb703e997cac1d4c3782cdf36d28d3ddfbca21d28a004a8e0963fbc7db8c37e1092610d4d9290916124db565b60405180910390a2610d618b600554611844565b50506005549a9950505050505050505050565b6000546001600160a01b03163314610d9e5760405162461bcd60e51b81526004016103f790612373565b6109736000611964565b6000546001600160a01b03163314610dd25760405162461bcd60e51b81526004016103f790612373565b6109736119b4565b6008602052600090815260409081902080546001820154835160a081019094526002830180546001600160a01b039384169592909316939282908290610e1f906121ac565b80601f0160208091040260200160405190810160405280929190818152602001828054610e4b906121ac565b8015610e985780601f10610e6d57610100808354040283529160200191610e98565b820191906000526020600020905b815481529060010190602001808311610e7b57829003601f168201915b5050509183525050600182015460208083019190915260028301546040808401919091526003808501546060808601919091526004909501546001600160a01b03908116608090950194909452815194850190915260078601805493841685529495949291840191600160a01b900460ff1690811115610f1a57610f1a611ff2565b6003811115610f2b57610f2b611ff2565b8152602001600182018054610f3f906121ac565b80601f0160208091040260200160405190810160405280929190818152602001828054610f6b906121ac565b8015610fb85780601f10610f8d57610100808354040283529160200191610fb8565b820191906000526020600020905b815481529060010190602001808311610f9b57829003601f168201915b5050509190925250505060099091015460ff1685565b816001600160a01b038116610ff55760405162461bcd60e51b81526004016103f7906123df565b6001600160a01b03811630141561101e5760405162461bcd60e51b81526004016103f790612426565b6004546001600160a01b0316156110775760405162461bcd60e51b815260206004820152601e60248201527f4175746f6d61746f6e3a20416c726561647920696e697469616c697a6564000060448201526064016103f7565b600480546001600160a01b0319166001600160a01b038516179055610a4b826114f3565b60006001600160a01b0384163014156111005760405162461bcd60e51b815260206004820152602160248201527f4175746f6d61746f6e3a20696e76616c6964206f7261636c65206164647265736044820152607360f81b60648201526084016103f7565b6001600160a01b0384166111565760405162461bcd60e51b815260206004820152601e60248201527f4175746f6d61746f6e3a207a65726f206f7261636c652061646472657373000060448201526064016103f7565b6000846001600160a01b031663338cdca16040518163ffffffff1660e01b815260040160006040518083038186803b15801561119157600080fd5b505afa1580156111a5573d6000803e3d6000fd5b505050506040513d6000823e601f3d908101601f191682016040526111cd9190810190612590565b905060008460038111156111e3576111e3611ff2565b14156112135780805190602001208380519060200120141561120957600191505061131a565b600091505061131a565b600284600381111561122757611227611ff2565b141561124c57808051906020012083805190602001201461120957600191505061131a565b600184600381111561126057611260611ff2565b14156112b65760008180602001905181019061127c91906125c5565b905060008480602001905181019061129491906125c5565b9050818113156112aa576001935050505061131a565b6000935050505061131a565b60038460038111156112ca576112ca611ff2565b1415611314576000818060200190518101906112e691906125c5565b90506000848060200190518101906112fe91906125c5565b9050818112156112aa576001935050505061131a565b60009150505b9392505050565b6003546113405760405162461bcd60e51b81526004016103f7906123a8565b6000546001600160a01b0316331461136a5760405162461bcd60e51b81526004016103f790612373565b60025460ff166113b35760405162461bcd60e51b815260206004820152601460248201527314185d5cd8589b194e881b9bdd081c185d5cd95960621b60448201526064016103f7565b600081116114135760405162461bcd60e51b815260206004820152602760248201527f426173654665653a206e657720666565206d757374206265206d6f7265207468604482015266616e207a65726f60c81b60648201526084016103f7565b600380549082905560408051838152602081018390527f322db3b249bc1ef9ce998a3f21ae4d5225266d3a4d93e0684c5b128c114091f0910160405180910390a15050565b6000546001600160a01b031633146114825760405162461bcd60e51b81526004016103f790612373565b6001600160a01b0381166114e75760405162461bcd60e51b815260206004820152602660248201527f4f776e61626c653a206e6577206f776e657220697320746865207a65726f206160448201526564647265737360d01b60648201526084016103f7565b6114f081611964565b50565b600354156115435760405162461bcd60e51b815260206004820152601c60248201527f426173654665653a20616c726561647920696e697469616c697a65640000000060448201526064016103f7565b600355565b600061131a82846125de565b60025460ff1661159d5760405162461bcd60e51b815260206004820152601460248201527314185d5cd8589b194e881b9bdd081c185d5cd95960621b60448201526064016103f7565b6002805460ff191690557f5db9ee0a495bf2e6ff9c91a7834c1ba4fdd244a5e8aa4e537bd38aeae4b073aa335b6040516001600160a01b03909116815260200160405180910390a1565b60006003546000141561160c5760405162461bcd60e51b81526004016103f7906123a8565b6000341161165c5760405162461bcd60e51b815260206004820152601b60248201527f426173654665653a20696e73756666696369656e742066756e6473000000000060448201526064016103f7565b600083116116ac5760405162461bcd60e51b815260206004820152601a60248201527f426173654665653a20696e76616c69642067617320707269636500000000000060448201526064016103f7565b60006116cd836116c760035434611a0c90919063ffffffff16565b90611a0c565b90506116df61fb2c6116c78387611a18565b9150600082116117315760405162461bcd60e51b815260206004820152601960248201527f426173654665653a20696e73756666696369656e74206761730000000000000060448201526064016103f7565b5092915050565b336000908152600760205260408120546001600160a01b03168061183c576004805460405163c63300a560e01b815233928101929092526001600160a01b03169063c63300a590602401602060405180830381600087803b15801561179c57600080fd5b505af11580156117b0573d6000803e3d6000fd5b505050506040513d601f19601f820116820180604052508101906117d491906125fd565b3360008181526007602090815260409182902080546001600160a01b0319166001600160a01b038616908117909155915191825292945090917f07bd85b4378bcbedd07b63c5e1c4bea32a82304bdf2bc8bc5f012f1039412440910160405180910390a25090565b8091505b5090565b60025460ff16156118675760405162461bcd60e51b81526004016103f790612182565b600081815260086020526040812090600982015460ff16600481111561188f5761188f611ff2565b146118ec5760405162461bcd60e51b815260206004820152602760248201527f4175746f6d61746f6e3a206175746f6d6174696f6e20616c726561647920696e6044820152661a5d1a585d195960ca1b60648201526084016103f7565b60098101805460ff191660019081179091558101546119159084906001600160a01b0316611a24565b600181015460408051848152602081018690526001600160a01b03909216917f4a613e9c42f26e4aff0d776fd9bb4b8c9e8516c1c7095968c0c59d0205284f3d910160405180910390a2505050565b600080546001600160a01b038381166001600160a01b0319831681178455604051919092169283917f8be0079c531659141344cd1fd0a4f28419497f9722a3daafe3b4186f6b6457e09190a35050565b60025460ff16156119d75760405162461bcd60e51b81526004016103f790612182565b6002805460ff191660011790557f62e78cea01bee320cd4e420270b5ea74000d11b0c9f74754ebdbfc544b05a2586115ca3390565b600061131a828461261a565b600061131a8284612631565b600354611a435760405162461bcd60e51b81526004016103f7906123a8565b60025460ff1615611a665760405162461bcd60e51b81526004016103f790612182565b306001600160a01b038216611ac85760405162461bcd60e51b815260206004820152602260248201527f426173654665653a20696e76616c696420726563697069656e74206164647265604482015261737360f01b60648201526084016103f7565b806001600160a01b0316826001600160a01b03161415611b355760405162461bcd60e51b815260206004820152602260248201527f426173654665653a2073616d652061646472657373206f6e20626f746820656e604482015261647360f01b60648201526084016103f7565b600354611b43908490611bef565b341015611bab5760405162461bcd60e51b815260206004820152603060248201527f426173654665653a206e6f7420656e6f7567682065746865722073656e64207460448201526f1bc818dbdd995c881999594818dbdcdd60821b60648201526084016103f7565b8215610a4b576001600160a01b03811631611bc68385611bfb565b611bd0848261261a565b826001600160a01b0316311015611be957611be9612653565b50505050565b600061131a8284612669565b80471015611c4b5760405162461bcd60e51b815260206004820152601d60248201527f416464726573733a20696e73756666696369656e742062616c616e636500000060448201526064016103f7565b6000826001600160a01b03168260405160006040518083038185875af1925050503d8060008114611c98576040519150601f19603f3d011682016040523d82523d6000602084013e611c9d565b606091505b5050905080610a4b5760405162461bcd60e51b815260206004820152603a60248201527f416464726573733a20756e61626c6520746f2073656e642076616c75652c207260448201527f6563697069656e74206d6179206861766520726576657274656400000000000060648201526084016103f7565b828054611d20906121ac565b90600052602060002090601f016020900481019282611d425760008555611d88565b82601f10611d5b57805160ff1916838001178555611d88565b82800160010185558215611d88579182015b82811115611d88578251825591602001919060010190611d6d565b506118409291505b808211156118405760008155600101611d90565b600060208284031215611db657600080fd5b5035919050565b60005b83811015611dd8578181015183820152602001611dc0565b83811115611be95750506000910152565b60008151808452611e01816020860160208601611dbd565b601f01601f19169290920160200192915050565b8215158152604060208201526000611e306040830184611de9565b949350505050565b6001600160a01b03811681146114f057600080fd5b634e487b7160e01b600052604160045260246000fd5b604051601f8201601f1916810167ffffffffffffffff81118282101715611e8c57611e8c611e4d565b604052919050565b600067ffffffffffffffff821115611eae57611eae611e4d565b50601f01601f191660200190565b600082601f830112611ecd57600080fd5b8135611ee0611edb82611e94565b611e63565b818152846020838601011115611ef557600080fd5b816020850160208301376000918101602001919091529392505050565b803560048110611f2157600080fd5b919050565b600080600080600080600060e0888a031215611f4157600080fd5b8735611f4c81611e38565b96506020880135955060408801359450606088013567ffffffffffffffff80821115611f7757600080fd5b611f838b838c01611ebc565b955060808a0135915080821115611f9957600080fd5b50611fa68a828b01611ebc565b935050611fb560a08901611f12565b915060c0880135611fc581611e38565b8091505092959891949750929550565b600060208284031215611fe757600080fd5b813561131a81611e38565b634e487b7160e01b600052602160045260246000fd5b6004811061201857612018611ff2565b9052565b80516001600160a01b0316825260208082015160009161203e90850182612008565b50604082015160606040850152611e306060850182611de9565b6005811061201857612018611ff2565b600060018060a01b038088168352808716602084015260a06040840152855160a08085015261209b610140850182611de9565b9050602087015160c0850152604087015160e085015260608701516101008501528160808801511661012085015283810360608501526120db818761201c565b925050506120ec6080830184612058565b9695505050505050565b6000806040838503121561210957600080fd5b823561211481611e38565b946020939093013593505050565b60008060006060848603121561213757600080fd5b833561214281611e38565b925061215060208501611f12565b9150604084013567ffffffffffffffff81111561216c57600080fd5b61217886828701611ebc565b9150509250925092565b60208082526010908201526f14185d5cd8589b194e881c185d5cd95960821b604082015260600190565b600181811c908216806121c057607f821691505b602082108114156121e157634e487b7160e01b600052602260045260246000fd5b50919050565b8054600090600181811c908083168061220157607f831692505b602080841082141561222357634e487b7160e01b600052602260045260246000fd5b83885281801561223a576001811461224e5761227c565b60ff1986168983015260408901965061227c565b876000528160002060005b868110156122745781548b8201850152908501908301612259565b8a0183019750505b50505050505092915050565b6001600160a01b03851681526080602082018190526000906122ac908301866121e7565b6040830194909452506060015292915050565b600082601f8301126122d057600080fd5b81516122de611edb82611e94565b8181528460208386010111156122f357600080fd5b611e30826020830160208701611dbd565b6000806040838503121561231757600080fd5b8251801515811461232757600080fd5b602084015190925067ffffffffffffffff81111561234457600080fd5b612350858286016122bf565b9150509250929050565b828152604060208201526000611e306040830184611de9565b6020808252818101527f4f776e61626c653a2063616c6c6572206973206e6f7420746865206f776e6572604082015260600190565b60208082526018908201527f426173654665653a206e6f7420696e697469616c697a65640000000000000000604082015260600190565b60208082526027908201527f4175746f6d61746f6e3a20696e76616c696420616464726573732c206e6f6e65604082015266081c185cdcd95960ca1b606082015260800190565b60208082526027908201527f4175746f6d61746f6e3a20696e76616c696420616464726573732c2073656c66604082015266081c185cdcd95960ca1b606082015260800190565b634e487b7160e01b600052601160045260246000fd5b60006000198214156124975761249761246d565b5060010190565b80546001600160a01b03811683526000906124c36020850160a083901c60ff16612008565b506060604084015261131a60608401600184016121e7565b82815260406020820152600060018060a01b0380845416604084015280600185015416606084015260a0608084015260a060e08401526125226101808401600286016121e7565b60038501546101008501526004850154610120850152600585015461014085015260068501548216610160850152838103603f190160a0850152612569816007870161249e565b91505061257a600985015460ff1690565b61258760c0850182612058565b50949350505050565b6000602082840312156125a257600080fd5b815167ffffffffffffffff8111156125b957600080fd5b611e30848285016122bf565b6000602082840312156125d757600080fd5b5051919050565b60008160001904831182151516156125f8576125f861246d565b500290565b60006020828403121561260f57600080fd5b815161131a81611e38565b60008282101561262c5761262c61246d565b500390565b60008261264e57634e487b7160e01b600052601260045260246000fd5b500490565b634e487b7160e01b600052600160045260246000fd5b6000821982111561267c5761267c61246d565b50019056fea264697066735822122011e301c9f109c806adb9154ffae8274c576bf19817d30fcdd468c2b11b83a57d64736f6c63430008090033",
  "immutableReferences": {},
  "source": "//SPDX-License-Identifier: MIT\npragma solidity 0.8.9;\n\n// import './interfaces/IGanacheChainlinkClient.sol';\nimport './interfaces/IMinionFactory.sol';\nimport './interfaces/IMinion.sol';\nimport './BaseFeeContract.sol';\n\ninterface IOracleFeed {\n  function request() external view returns (bytes memory response);\n}\n\ncontract Automaton is BaseFeeContract {\n  using SafeMath for uint256;\n  enum State {\n    Open,\n    Forwarded,\n    Completed,\n    Closed,\n    Failed\n  }\n\n  enum Comparator {\n    EQ,\n    GT,\n    NOT,\n    LT\n  }\n\n  struct Condition {\n    address oracle;\n    Comparator comparator;\n    bytes subject;\n  }\n\n  struct Action {\n    bytes data;\n    uint gasLimit;\n    uint gasPrice;\n    uint amount;\n    address target;\n  }\n\n  struct Automation {\n    address creator;\n    address minion;\n    Action action;\n    Condition condition;\n    State state;\n  }\n\n  IMinionFactory MINION_FACTORY;\n  uint256 public autoId;\n  uint256 public lastAutoIdChecked;\n\n  mapping(address => address) public clientForMinion;\n  mapping(uint256 => Automation) public automations;\n\n  /**\n   *  === === === === === Events === === === === === ===\n   */\n  event MinionRegistered(address indexed creator, address minion);\n  event AutomationCreated(address indexed creator, uint256 automationId, Automation automation);\n  event AutomationFailed(address indexed creator, uint256 automationId, bytes reason);\n  event AutomationCompleted(address indexed creator, uint256 automationId);\n  event AutomationValueForwarded(address indexed minion, uint256 automationId, uint256 amount);\n\n  /**\n   *  === === === === === Modifiers === === === === === ===\n   */\n  modifier existingNotFinalAutomation(uint256 _autoId) {\n    Automation memory automation = automations[_autoId];\n    require(automation.creator != address(0), 'Automaton: invalid automation');\n    require(\n      automation.state != State.Completed && automation.state != State.Closed && automation.state != State.Failed,\n      'Automaton: automation state is final'\n    );\n    _;\n  }\n\n  modifier validExternalAddress(address _address) {\n    require(_address != address(0), 'Automaton: invalid address, none passed');\n    require(_address != address(this), 'Automaton: invalid address, self passed');\n    _;\n  }\n\n  /**\n   *  === === === === === Functions === === === === === ===\n   *\n   * Automation functions responsible for running the automaton logic\n   */\n  function initialize(\n    address minionFactoryAddress,\n    uint256 initialFee\n  ) public validExternalAddress(minionFactoryAddress) {\n    require(address(MINION_FACTORY) == address(0), 'Automaton: Already initialized');\n    MINION_FACTORY = IMinionFactory(minionFactoryAddress);\n    super.initialize(initialFee);\n  }\n\n  function _getOrRegisterMinion() internal returns (address minion) {\n    address _minion = clientForMinion[msg.sender];\n    if (_minion == address(0)) {\n      minion = MINION_FACTORY.spawn(msg.sender);\n      clientForMinion[msg.sender] = minion;\n      emit MinionRegistered(msg.sender, minion);\n    } else {\n      minion = _minion;\n    }\n  }\n\n  function _forwardAutomationValue(uint256 amount, uint256 _autoId) internal whenNotPaused {\n    Automation storage automation = automations[_autoId];\n    require(automation.state == State.Open, 'Automaton: automation already initiated');\n    automation.state = State.Forwarded;\n    _chargeFeeAndSendRest(amount, payable(automation.minion));\n    emit AutomationValueForwarded(automation.minion, _autoId, amount);\n  }\n\n  function setupAutomation(\n    address target,\n    uint256 amount,\n    uint256 gasPrice,\n    bytes memory data,\n    bytes memory subject,\n    Comparator comparator,\n    address oracle\n  ) public payable whenNotPaused validExternalAddress(target) returns (uint256) {\n    uint256 usableCarriedGas = _calculateUsableGasFromAmount(gasPrice, amount);\n\n    address minion = _getOrRegisterMinion();\n\n    autoId++;\n\n    Action memory action = Action({\n      target: target,\n      data: data,\n      gasLimit: usableCarriedGas,\n      gasPrice: gasPrice,\n      amount: amount\n    });\n\n    automations[autoId] = Automation({\n      creator: msg.sender,\n      minion: minion,\n      action: action,\n      condition: Condition({\n        oracle: oracle,\n        comparator: comparator,\n        subject: subject\n      }),\n      state: State.Open\n    });\n\n    emit AutomationCreated(msg.sender, autoId, automations[autoId]);\n\n    _forwardAutomationValue(amount, autoId);\n\n    return autoId;\n  }\n\n\n  function checkCondition(\n    address oracle,\n    Comparator comparator,\n    bytes memory subject\n  ) public view returns (bool) {\n    require(oracle != address(this), 'Automaton: invalid oracle address');\n    require(oracle != address(0), 'Automaton: zero oracle address');\n    // require(clientForMinion[msg.sender] != address(0), 'Automaton: you need to create a minion first');\n    // IGanacheChainlinkClient(client).requestEthereumPrice(oracle, job);\n    \n    // It is expected to receive bytes as response. If lt/gt condition check needed\n    // will be casted to int256\n    bytes memory response = IOracleFeed(oracle).request();\n\n    if (comparator == Comparator.EQ) {\n      if (keccak256(subject) == keccak256(response)) {\n        return true;\n      }\n      return false;\n    }\n\n    if (comparator == Comparator.NOT) {\n      if (keccak256(subject) != keccak256(response)) {\n        return true;\n      }\n      return false;\n    }\n\n    if (comparator == Comparator.GT) {\n      int responseDecoded = abi.decode(response, (int));\n      int subjectDecoded = abi.decode(subject, (int));\n\n      if (subjectDecoded > responseDecoded) {\n        return true;\n      }\n      return false;\n    }\n\n    if (comparator == Comparator.LT) {\n      int responseDecoded = abi.decode(response, (int));\n      int subjectDecoded = abi.decode(subject, (int));\n      \n      if (subjectDecoded < responseDecoded) {\n        return true;\n      }\n      return false;\n    }\n\n    return false;\n  }\n\n  function executeAutomation(uint256 _autoId)\n    public\n    whenNotPaused\n    nonReentrant\n    existingNotFinalAutomation(_autoId)\n    returns (bool executed, bytes memory result)\n  {\n    Automation storage automation = automations[_autoId];\n\n    require(tx.gasprice <= automation.action.gasPrice);\n\n    (executed, result) = IMinion(payable(automation.minion)).executeOrder({\n      target: automation.action.target,\n      data: automation.action.data,\n      gas: automation.action.gasLimit.mul(automation.action.gasPrice),\n      value: automation.action.amount\n    });\n\n    if (executed) {\n      automation.state = State.Completed;\n      emit AutomationCompleted(automation.creator, _autoId);\n    } else {\n      automation.state = State.Failed;\n      emit AutomationFailed(automation.creator, _autoId, result);\n      revert();\n    }\n  }\n\n  // function checkUpkeep(\n  //   bytes calldata checkData\n  // )\n  //   external\n  //   view\n  //   returns (\n  //     bool upkeepNeeded,\n  //     bytes memory performData\n  //   ) {\n  //     address _oracle;\n  //     assembly {\n  //       _oracle := calldataload(add(checkData.offset, 20))\n  //     }\n  //     require(_oracle != address(0));\n\n  //     int value = _getChainlinkValue(_oracle);\n\n  //     uint _currentAutoId = lastAutoIdChecked.add(1);\n  //     if (lastAutoIdChecked >= autoId) {\n  //       _currentAutoId = 0;\n  //     }\n\n  //     Automation memory _auto = automations[_currentAutoId];\n\n  //     while (_auto.oracle != _oracle && _currentAutoId <= autoId && ) {\n\n  //     }\n  //   }\n  // /**\n  //  * @notice method that is actually executed by the keepers, via the registry.\n  //  * The data returned by the checkUpkeep simulation will be passed into\n  //  * this method to actually be executed.\n  //  * @dev The input to this method should not be trusted, and the caller of the\n  //  * method should not even be restricted to any single registry. Anyone should\n  //  * be able call it, and the input should be validated, there is no guarantee\n  //  * that the data passed in is the performData returned from checkUpkeep. This\n  //  * could happen due to malicious keepers, racing keepers, or simply a state\n  //  * change while the performUpkeep transaction is waiting for confirmation.\n  //  * Always validate the data passed in.\n  //  * @param performData is the data which was passed back from the checkData\n  //  * simulation. If it is encoded, it can easily be decoded into other types by\n  //  * calling `abi.decode`. This data should not be trusted, and should be\n  //  * validated against the contract's current state.\n  //  */\n  // function performUpkeep(\n  //   bytes calldata performData\n  // ) external {\n\n  // }\n}\n",
  "sourcePath": "/Users/dimitriskyriazopoulos/Development/solid/blockchain-developer-bootcamp-final-project/solidity/contracts/Automaton.sol",
  "compiler": {
    "name": "solc",
    "version": "0.8.9+commit.e5eed63a.Emscripten.clang"
  },
  "schemaVersion": "3.4.3",
  "updatedAt": "2022-01-17T03:49:16.096Z",
  "networkType": "ethereum",
  "devdoc": {
    "kind": "dev",
    "methods": {
      "owner()": {
        "details": "Returns the address of the current owner."
      },
      "paused()": {
        "details": "Returns true if the contract is paused, and false otherwise."
      },
      "renounceOwnership()": {
        "details": "Leaves the contract without owner. It will not be possible to call `onlyOwner` functions anymore. Can only be called by the current owner. NOTE: Renouncing ownership will leave the contract without an owner, thereby removing any functionality that is only available to the owner."
      },
      "transferOwnership(address)": {
        "details": "Transfers ownership of the contract to a new account (`newOwner`). Can only be called by the current owner."
      }
    },
    "version": 1
  },
  "userdoc": {
    "events": {
      "FeeCostChanged(uint256,uint256)": {
        "notice": "=== === === === === Events === === === === === ==="
      },
      "MinionRegistered(address,address)": {
        "notice": "=== === === === === Events === === === === === ==="
      }
    },
    "kind": "user",
    "methods": {
      "fee()": {
        "notice": "Service fee"
      },
      "gasOverhead()": {
        "notice": "Stipend gas of 2300 + 2x Transfer gas of 21000. This gas gets allocated in order to call the minion once the condition has been met This call alone costs 21000 intrinsic gas + ~1500 gas for emmiting an event once the automation fullfiled. The rest goes to refund the chainlink keeper for calling (21000) Automaton plus changes (20000~) in the state of automation once executed."
      },
      "initialize(address,uint256)": {
        "notice": "=== === === === === Functions === === === === === === Automation functions responsible for running the automaton logic"
      },
      "initialize(uint256)": {
        "notice": "=== === === === === Function === === === === === ==="
      }
    },
    "version": 1
  }
}