{
  "contractName": "Automaton",
  "abi": [
    {
      "anonymous": false,
      "inputs": [
        {
          "indexed": true,
          "internalType": "address",
          "name": "creator",
          "type": "address"
        },
        {
          "indexed": false,
          "internalType": "uint256",
          "name": "automationId",
          "type": "uint256"
        }
      ],
      "name": "AutomationCompleted",
      "type": "event"
    },
    {
      "anonymous": false,
      "inputs": [
        {
          "indexed": true,
          "internalType": "address",
          "name": "creator",
          "type": "address"
        },
        {
          "indexed": false,
          "internalType": "uint256",
          "name": "automationId",
          "type": "uint256"
        }
      ],
      "name": "AutomationCreated",
      "type": "event"
    },
    {
      "anonymous": false,
      "inputs": [
        {
          "indexed": true,
          "internalType": "address",
          "name": "creator",
          "type": "address"
        },
        {
          "indexed": false,
          "internalType": "uint256",
          "name": "automationId",
          "type": "uint256"
        }
      ],
      "name": "AutomationFailed",
      "type": "event"
    },
    {
      "anonymous": false,
      "inputs": [
        {
          "indexed": true,
          "internalType": "address",
          "name": "minion",
          "type": "address"
        },
        {
          "indexed": false,
          "internalType": "uint256",
          "name": "automationId",
          "type": "uint256"
        },
        {
          "indexed": false,
          "internalType": "uint256",
          "name": "amount",
          "type": "uint256"
        }
      ],
      "name": "AutomationValueForwarded",
      "type": "event"
    },
    {
      "anonymous": false,
      "inputs": [
        {
          "indexed": true,
          "internalType": "address",
          "name": "creator",
          "type": "address"
        },
        {
          "indexed": true,
          "internalType": "address",
          "name": "minion",
          "type": "address"
        }
      ],
      "name": "MinionRegistered",
      "type": "event"
    },
    {
      "anonymous": false,
      "inputs": [
        {
          "indexed": true,
          "internalType": "address",
          "name": "previousOwner",
          "type": "address"
        },
        {
          "indexed": true,
          "internalType": "address",
          "name": "newOwner",
          "type": "address"
        }
      ],
      "name": "OwnershipTransferred",
      "type": "event"
    },
    {
      "anonymous": false,
      "inputs": [
        {
          "indexed": false,
          "internalType": "address",
          "name": "account",
          "type": "address"
        }
      ],
      "name": "Paused",
      "type": "event"
    },
    {
      "anonymous": false,
      "inputs": [
        {
          "indexed": true,
          "internalType": "address",
          "name": "sender",
          "type": "address"
        },
        {
          "indexed": false,
          "internalType": "uint256",
          "name": "amount",
          "type": "uint256"
        }
      ],
      "name": "Received",
      "type": "event"
    },
    {
      "anonymous": false,
      "inputs": [
        {
          "indexed": false,
          "internalType": "address",
          "name": "account",
          "type": "address"
        }
      ],
      "name": "Unpaused",
      "type": "event"
    },
    {
      "stateMutability": "payable",
      "type": "fallback",
      "payable": true
    },
    {
      "inputs": [],
      "name": "autoId",
      "outputs": [
        {
          "internalType": "uint256",
          "name": "",
          "type": "uint256"
        }
      ],
      "stateMutability": "view",
      "type": "function",
      "constant": true
    },
    {
      "inputs": [
        {
          "internalType": "uint256",
          "name": "",
          "type": "uint256"
        }
      ],
      "name": "automations",
      "outputs": [
        {
          "internalType": "address",
          "name": "creator",
          "type": "address"
        },
        {
          "internalType": "address",
          "name": "target",
          "type": "address"
        },
        {
          "internalType": "address",
          "name": "minion",
          "type": "address"
        },
        {
          "internalType": "bytes",
          "name": "data",
          "type": "bytes"
        },
        {
          "internalType": "uint256",
          "name": "gasLimit",
          "type": "uint256"
        },
        {
          "internalType": "uint256",
          "name": "gasCost",
          "type": "uint256"
        },
        {
          "internalType": "uint256",
          "name": "amount",
          "type": "uint256"
        },
        {
          "internalType": "enum Automaton.State",
          "name": "state",
          "type": "uint8"
        }
      ],
      "stateMutability": "view",
      "type": "function",
      "constant": true
    },
    {
      "inputs": [
        {
          "internalType": "address",
          "name": "",
          "type": "address"
        }
      ],
      "name": "clientForMinion",
      "outputs": [
        {
          "internalType": "address",
          "name": "",
          "type": "address"
        }
      ],
      "stateMutability": "view",
      "type": "function",
      "constant": true
    },
    {
      "inputs": [],
      "name": "fee",
      "outputs": [
        {
          "internalType": "uint256",
          "name": "",
          "type": "uint256"
        }
      ],
      "stateMutability": "view",
      "type": "function",
      "constant": true
    },
    {
      "inputs": [],
      "name": "feeBalance",
      "outputs": [
        {
          "internalType": "uint256",
          "name": "",
          "type": "uint256"
        }
      ],
      "stateMutability": "view",
      "type": "function",
      "constant": true
    },
    {
      "inputs": [],
      "name": "owner",
      "outputs": [
        {
          "internalType": "address",
          "name": "",
          "type": "address"
        }
      ],
      "stateMutability": "view",
      "type": "function",
      "constant": true
    },
    {
      "inputs": [],
      "name": "paused",
      "outputs": [
        {
          "internalType": "bool",
          "name": "",
          "type": "bool"
        }
      ],
      "stateMutability": "view",
      "type": "function",
      "constant": true
    },
    {
      "inputs": [],
      "name": "renounceOwnership",
      "outputs": [],
      "stateMutability": "nonpayable",
      "type": "function"
    },
    {
      "inputs": [
        {
          "internalType": "address",
          "name": "newOwner",
          "type": "address"
        }
      ],
      "name": "transferOwnership",
      "outputs": [],
      "stateMutability": "nonpayable",
      "type": "function"
    },
    {
      "stateMutability": "payable",
      "type": "receive",
      "payable": true
    },
    {
      "inputs": [],
      "name": "pause",
      "outputs": [],
      "stateMutability": "nonpayable",
      "type": "function"
    },
    {
      "inputs": [],
      "name": "unpause",
      "outputs": [],
      "stateMutability": "nonpayable",
      "type": "function"
    },
    {
      "inputs": [
        {
          "internalType": "uint256",
          "name": "newFee",
          "type": "uint256"
        }
      ],
      "name": "changeFeeCost",
      "outputs": [],
      "stateMutability": "nonpayable",
      "type": "function"
    },
    {
      "inputs": [
        {
          "internalType": "uint256",
          "name": "amount",
          "type": "uint256"
        }
      ],
      "name": "withdrawFees",
      "outputs": [],
      "stateMutability": "nonpayable",
      "type": "function"
    },
    {
      "inputs": [
        {
          "internalType": "address",
          "name": "target",
          "type": "address"
        },
        {
          "internalType": "uint256",
          "name": "amount",
          "type": "uint256"
        },
        {
          "internalType": "uint256",
          "name": "gasPrice",
          "type": "uint256"
        },
        {
          "internalType": "bytes",
          "name": "data",
          "type": "bytes"
        }
      ],
      "name": "setupAutomation",
      "outputs": [
        {
          "internalType": "uint256",
          "name": "",
          "type": "uint256"
        }
      ],
      "stateMutability": "payable",
      "type": "function",
      "payable": true
    },
    {
      "inputs": [
        {
          "internalType": "uint256",
          "name": "_autoId",
          "type": "uint256"
        }
      ],
      "name": "executeAutomation",
      "outputs": [
        {
          "internalType": "bool",
          "name": "executed",
          "type": "bool"
        },
        {
          "internalType": "bytes",
          "name": "result",
          "type": "bytes"
        }
      ],
      "stateMutability": "nonpayable",
      "type": "function"
    }
  ],
  "bytecode": "0x608060405265886c98b760006005553480156200001b57600080fd5b506200003c620000306200006460201b60201c565b6200006c60201b60201c565b600180819055506000600260006101000a81548160ff02191690831515021790555062000130565b600033905090565b60008060009054906101000a900473ffffffffffffffffffffffffffffffffffffffff169050816000806101000a81548173ffffffffffffffffffffffffffffffffffffffff021916908373ffffffffffffffffffffffffffffffffffffffff1602179055508173ffffffffffffffffffffffffffffffffffffffff168173ffffffffffffffffffffffffffffffffffffffff167f8be0079c531659141344cd1fd0a4f28419497f9722a3daafe3b4186f6b6457e060405160405180910390a35050565b61474180620001406000396000f3fe6080604052600436106100eb5760003560e01c8063715018a61161008a578063a443c74711610059578063a443c7471461030a578063ddca3f431461034e578063ed94598314610379578063f2fde38b146103a257610140565b8063715018a6146102745780638456cb591461028b5780638abb4c91146102a25780638da5cb5b146102df57610140565b80634b2f073a116100c65780634b2f073a146101ca5780635c975abb146101f55780635e318e071461022057806360b71d4e1461024957610140565b8062c6ecc214610145578063298da149146101835780633f4ba83a146101b357610140565b36610140573373ffffffffffffffffffffffffffffffffffffffff167f88a5966d370b9919b20f3e2c13ff65706f196a4e32cc2c12bf57088f88525874346040516101369190611bcf565b60405180910390a2005b600080fd5b34801561015157600080fd5b5061016c60048036038101906101679190611c2a565b6103cb565b60405161017a929190611d0b565b60405180910390f35b61019d60048036038101906101989190611ece565b610627565b6040516101aa9190611bcf565b60405180910390f35b3480156101bf57600080fd5b506101c8610beb565b005b3480156101d657600080fd5b506101df610c71565b6040516101ec9190611bcf565b60405180910390f35b34801561020157600080fd5b5061020a610c77565b6040516102179190611f51565b60405180910390f35b34801561022c57600080fd5b5061024760048036038101906102429190611c2a565b610c8e565b005b34801561025557600080fd5b5061025e610f1c565b60405161026b9190611bcf565b60405180910390f35b34801561028057600080fd5b50610289610f22565b005b34801561029757600080fd5b506102a0610faa565b005b3480156102ae57600080fd5b506102c960048036038101906102c49190611f6c565b611030565b6040516102d69190611fa8565b60405180910390f35b3480156102eb57600080fd5b506102f4611063565b6040516103019190611fa8565b60405180910390f35b34801561031657600080fd5b50610331600480360381019061032c9190611c2a565b61108c565b60405161034598979695949392919061203a565b60405180910390f35b34801561035a57600080fd5b506103636111c9565b6040516103709190611bcf565b60405180910390f35b34801561038557600080fd5b506103a0600480360381019061039b9190611c2a565b6111cf565b005b3480156103ae57600080fd5b506103c960048036038101906103c49190611f6c565b611298565b005b6000606060006008600085815260200190815260200160002090508060020160009054906101000a900473ffffffffffffffffffffffffffffffffffffffff1673ffffffffffffffffffffffffffffffffffffffff1663797530b98260010160009054906101000a900473ffffffffffffffffffffffffffffffffffffffff1683600301846005015485600601546040518563ffffffff1660e01b815260040161047894939291906121b5565b600060405180830381600087803b15801561049257600080fd5b505af11580156104a6573d6000803e3d6000fd5b505050506040513d6000823e3d601f19601f820116820180604052508101906104cf919061229d565b809350819450505082156105815760028160070160006101000a81548160ff0219169083600481111561050557610504611fc3565b5b02179055508060000160009054906101000a900473ffffffffffffffffffffffffffffffffffffffff1673ffffffffffffffffffffffffffffffffffffffff167f297da755a56f6595ca28ebcd6ae5b6fff6a55b8bbf97a9c29a481bfec5809306856040516105749190611bcf565b60405180910390a2610621565b60048160070160006101000a81548160ff021916908360048111156105a9576105a8611fc3565b5b02179055508060000160009054906101000a900473ffffffffffffffffffffffffffffffffffffffff1673ffffffffffffffffffffffffffffffffffffffff167f3fe0420cd991208b732a8eb46ece80be99434b998654a80ce7cab868895d7115856040516106189190611bcf565b60405180910390a25b50915091565b60006002600154141561066f576040517f08c379a000000000000000000000000000000000000000000000000000000000815260040161066690612356565b60405180910390fd5b6002600181905550600073ffffffffffffffffffffffffffffffffffffffff168573ffffffffffffffffffffffffffffffffffffffff1614156106e7576040517f08c379a00000000000000000000000000000000000000000000000000000000081526004016106de906123c2565b60405180910390fd5b6000341161072a576040517f08c379a00000000000000000000000000000000000000000000000000000000081526004016107219061242e565b60405180910390fd5b6001831161076d576040517f08c379a00000000000000000000000000000000000000000000000000000000081526004016107649061249a565b60405180910390fd5b3073ffffffffffffffffffffffffffffffffffffffff168573ffffffffffffffffffffffffffffffffffffffff1614156107dc576040517f08c379a00000000000000000000000000000000000000000000000000000000081526004016107d390612506565b60405180910390fd5b60006108fc9050600061520890506000610813876108056005543461139090919063ffffffff16565b61139090919063ffffffff16565b90506000610861876040518060400160405280600881526020017f6f766572666c6f77000000000000000000000000000000000000000000000000815250846113a69092919063ffffffff16565b9050600081116108a6576040517f08c379a000000000000000000000000000000000000000000000000000000000815260040161089d90612572565b60405180910390fd5b838110156108e9576040517f08c379a00000000000000000000000000000000000000000000000000000000081526004016108e0906125de565b60405180910390fd5b60008811801561090a5750610907838561140890919063ffffffff16565b81105b1561094a576040517f08c379a000000000000000000000000000000000000000000000000000000000815260040161094190612670565b60405180910390fd5b600061095461141e565b905060046000815480929190610969906126bf565b91905055506040518061010001604052803373ffffffffffffffffffffffffffffffffffffffff1681526020018b73ffffffffffffffffffffffffffffffffffffffff1681526020018273ffffffffffffffffffffffffffffffffffffffff1681526020018881526020018381526020018481526020018a8152602001600060048111156109fa576109f9611fc3565b5b81525060086000600454815260200190815260200160002060008201518160000160006101000a81548173ffffffffffffffffffffffffffffffffffffffff021916908373ffffffffffffffffffffffffffffffffffffffff16021790555060208201518160010160006101000a81548173ffffffffffffffffffffffffffffffffffffffff021916908373ffffffffffffffffffffffffffffffffffffffff16021790555060408201518160020160006101000a81548173ffffffffffffffffffffffffffffffffffffffff021916908373ffffffffffffffffffffffffffffffffffffffff1602179055506060820151816003019080519060200190610b03929190611b05565b506080820151816004015560a0820151816005015560c0820151816006015560e08201518160070160006101000a81548160ff02191690836004811115610b4d57610b4c611fc3565b5b02179055509050503373ffffffffffffffffffffffffffffffffffffffff167fa60bf4d51360f5f4bae1314f7b82d2c7954a4ff4bf83f716c3cd2d2cf418c4de600454604051610b9d9190611bcf565b60405180910390a2610bc5600454610bc06005543461139090919063ffffffff16565b61168c565b610bd06004546103cb565b50506004549550505050505060018081905550949350505050565b610bf3611800565b73ffffffffffffffffffffffffffffffffffffffff16610c11611063565b73ffffffffffffffffffffffffffffffffffffffff1614610c67576040517f08c379a0000000000000000000000000000000000000000000000000000000008152600401610c5e90612754565b60405180910390fd5b610c6f611808565b565b60045481565b6000600260009054906101000a900460ff16905090565b610c96611800565b73ffffffffffffffffffffffffffffffffffffffff16610cb4611063565b73ffffffffffffffffffffffffffffffffffffffff1614610d0a576040517f08c379a0000000000000000000000000000000000000000000000000000000008152600401610d0190612754565b60405180910390fd5b60026001541415610d50576040517f08c379a0000000000000000000000000000000000000000000000000000000008152600401610d4790612356565b60405180910390fd5b6002600181905550600030905060008211610da0576040517f08c379a0000000000000000000000000000000000000000000000000000000008152600401610d97906127c0565b60405180910390fd5b600654821115610de5576040517f08c379a0000000000000000000000000000000000000000000000000000000008152600401610ddc9061282c565b60405180910390fd5b8073ffffffffffffffffffffffffffffffffffffffff1631821115610e3f576040517f08c379a0000000000000000000000000000000000000000000000000000000008152600401610e3690612898565b60405180910390fd5b6000821415610eb3573373ffffffffffffffffffffffffffffffffffffffff166108fc8273ffffffffffffffffffffffffffffffffffffffff16319081150290604051600060405180830381858888f19350505050158015610ea5573d6000803e3d6000fd5b506000600681905550610f11565b3373ffffffffffffffffffffffffffffffffffffffff166108fc839081150290604051600060405180830381858888f19350505050158015610ef9573d6000803e3d6000fd5b50610f0f8260065461139090919063ffffffff16565b505b506001808190555050565b60065481565b610f2a611800565b73ffffffffffffffffffffffffffffffffffffffff16610f48611063565b73ffffffffffffffffffffffffffffffffffffffff1614610f9e576040517f08c379a0000000000000000000000000000000000000000000000000000000008152600401610f9590612754565b60405180910390fd5b610fa860006118aa565b565b610fb2611800565b73ffffffffffffffffffffffffffffffffffffffff16610fd0611063565b73ffffffffffffffffffffffffffffffffffffffff1614611026576040517f08c379a000000000000000000000000000000000000000000000000000000000815260040161101d90612754565b60405180910390fd5b61102e61196e565b565b60076020528060005260406000206000915054906101000a900473ffffffffffffffffffffffffffffffffffffffff1681565b60008060009054906101000a900473ffffffffffffffffffffffffffffffffffffffff16905090565b60086020528060005260406000206000915090508060000160009054906101000a900473ffffffffffffffffffffffffffffffffffffffff16908060010160009054906101000a900473ffffffffffffffffffffffffffffffffffffffff16908060020160009054906101000a900473ffffffffffffffffffffffffffffffffffffffff1690806003018054611121906120ee565b80601f016020809104026020016040519081016040528092919081815260200182805461114d906120ee565b801561119a5780601f1061116f5761010080835404028352916020019161119a565b820191906000526020600020905b81548152906001019060200180831161117d57829003601f168201915b5050505050908060040154908060050154908060060154908060070160009054906101000a900460ff16905088565b60055481565b6111d7611800565b73ffffffffffffffffffffffffffffffffffffffff166111f5611063565b73ffffffffffffffffffffffffffffffffffffffff161461124b576040517f08c379a000000000000000000000000000000000000000000000000000000000815260040161124290612754565b60405180910390fd5b6000811061128e576040517f08c379a000000000000000000000000000000000000000000000000000000000815260040161128590612904565b60405180910390fd5b8060058190555050565b6112a0611800565b73ffffffffffffffffffffffffffffffffffffffff166112be611063565b73ffffffffffffffffffffffffffffffffffffffff1614611314576040517f08c379a000000000000000000000000000000000000000000000000000000000815260040161130b90612754565b60405180910390fd5b600073ffffffffffffffffffffffffffffffffffffffff168173ffffffffffffffffffffffffffffffffffffffff161415611384576040517f08c379a000000000000000000000000000000000000000000000000000000000815260040161137b90612996565b60405180910390fd5b61138d816118aa565b50565b6000818361139e91906129b6565b905092915050565b600080831182906113ed576040517f08c379a00000000000000000000000000000000000000000000000000000000081526004016113e49190612a2e565b60405180910390fd5b508284816113fe576113fd612a50565b5b0490509392505050565b600081836114169190612a7f565b905092915050565b60008073ffffffffffffffffffffffffffffffffffffffff16600760003373ffffffffffffffffffffffffffffffffffffffff1673ffffffffffffffffffffffffffffffffffffffff16815260200190815260200160002060009054906101000a900473ffffffffffffffffffffffffffffffffffffffff1673ffffffffffffffffffffffffffffffffffffffff1614156116275760006040516114c190611b8b565b604051809103906000f0801580156114dd573d6000803e3d6000fd5b50905080600760003373ffffffffffffffffffffffffffffffffffffffff1673ffffffffffffffffffffffffffffffffffffffff16815260200190815260200160002060006101000a81548173ffffffffffffffffffffffffffffffffffffffff021916908373ffffffffffffffffffffffffffffffffffffffff1602179055508073ffffffffffffffffffffffffffffffffffffffff1663aa67735430336040518363ffffffff1660e01b8152600401611599929190612ad5565b600060405180830381600087803b1580156115b357600080fd5b505af11580156115c7573d6000803e3d6000fd5b505050508173ffffffffffffffffffffffffffffffffffffffff163073ffffffffffffffffffffffffffffffffffffffff167f07bd85b4378bcbedd07b63c5e1c4bea32a82304bdf2bc8bc5f012f103941244060405160405180910390a3505b600760003373ffffffffffffffffffffffffffffffffffffffff1673ffffffffffffffffffffffffffffffffffffffff16815260200190815260200160002060009054906101000a900473ffffffffffffffffffffffffffffffffffffffff16905090565b8034116116ce576040517f08c379a00000000000000000000000000000000000000000000000000000000081526004016116c590612b70565b60405180910390fd5b60008110156116dc57600080fd5b600047905060006008600085815260200190815260200160002090506117268160020160009054906101000a900473ffffffffffffffffffffffffffffffffffffffff1684611a11565b60018160070160006101000a81548160ff0219169083600481111561174e5761174d611fc3565b5b02179055508060020160009054906101000a900473ffffffffffffffffffffffffffffffffffffffff1673ffffffffffffffffffffffffffffffffffffffff167f4a613e9c42f26e4aff0d776fd9bb4b8c9e8516c1c7095968c0c59d0205284f3d85856040516117bf929190612b90565b60405180910390a26117da348361139090919063ffffffff16565b6117ef6005544761140890919063ffffffff16565b10156117fa57600080fd5b50505050565b600033905090565b611810610c77565b61184f576040517f08c379a000000000000000000000000000000000000000000000000000000000815260040161184690612c05565b60405180910390fd5b6000600260006101000a81548160ff0219169083151502179055507f5db9ee0a495bf2e6ff9c91a7834c1ba4fdd244a5e8aa4e537bd38aeae4b073aa611893611800565b6040516118a09190611fa8565b60405180910390a1565b60008060009054906101000a900473ffffffffffffffffffffffffffffffffffffffff169050816000806101000a81548173ffffffffffffffffffffffffffffffffffffffff021916908373ffffffffffffffffffffffffffffffffffffffff1602179055508173ffffffffffffffffffffffffffffffffffffffff168173ffffffffffffffffffffffffffffffffffffffff167f8be0079c531659141344cd1fd0a4f28419497f9722a3daafe3b4186f6b6457e060405160405180910390a35050565b611976610c77565b156119b6576040517f08c379a00000000000000000000000000000000000000000000000000000000081526004016119ad90612c71565b60405180910390fd5b6001600260006101000a81548160ff0219169083151502179055507f62e78cea01bee320cd4e420270b5ea74000d11b0c9f74754ebdbfc544b05a2586119fa611800565b604051611a079190611fa8565b60405180910390a1565b80471015611a54576040517f08c379a0000000000000000000000000000000000000000000000000000000008152600401611a4b90612cdd565b60405180910390fd5b60008273ffffffffffffffffffffffffffffffffffffffff1682604051611a7a90612d2e565b60006040518083038185875af1925050503d8060008114611ab7576040519150601f19603f3d011682016040523d82523d6000602084013e611abc565b606091505b5050905080611b00576040517f08c379a0000000000000000000000000000000000000000000000000000000008152600401611af790612db5565b60405180910390fd5b505050565b828054611b11906120ee565b90600052602060002090601f016020900481019282611b335760008555611b7a565b82601f10611b4c57805160ff1916838001178555611b7a565b82800160010185558215611b7a579182015b82811115611b79578251825591602001919060010190611b5e565b5b509050611b879190611b99565b5090565b6119368062002dd683390190565b5b80821115611bb2576000816000905550600101611b9a565b5090565b6000819050919050565b611bc981611bb6565b82525050565b6000602082019050611be46000830184611bc0565b92915050565b6000604051905090565b600080fd5b600080fd5b611c0781611bb6565b8114611c1257600080fd5b50565b600081359050611c2481611bfe565b92915050565b600060208284031215611c4057611c3f611bf4565b5b6000611c4e84828501611c15565b91505092915050565b60008115159050919050565b611c6c81611c57565b82525050565b600081519050919050565b600082825260208201905092915050565b60005b83811015611cac578082015181840152602081019050611c91565b83811115611cbb576000848401525b50505050565b6000601f19601f8301169050919050565b6000611cdd82611c72565b611ce78185611c7d565b9350611cf7818560208601611c8e565b611d0081611cc1565b840191505092915050565b6000604082019050611d206000830185611c63565b8181036020830152611d328184611cd2565b90509392505050565b600073ffffffffffffffffffffffffffffffffffffffff82169050919050565b6000611d6682611d3b565b9050919050565b611d7681611d5b565b8114611d8157600080fd5b50565b600081359050611d9381611d6d565b92915050565b600080fd5b600080fd5b7f4e487b7100000000000000000000000000000000000000000000000000000000600052604160045260246000fd5b611ddb82611cc1565b810181811067ffffffffffffffff82111715611dfa57611df9611da3565b5b80604052505050565b6000611e0d611bea565b9050611e198282611dd2565b919050565b600067ffffffffffffffff821115611e3957611e38611da3565b5b611e4282611cc1565b9050602081019050919050565b82818337600083830152505050565b6000611e71611e6c84611e1e565b611e03565b905082815260208101848484011115611e8d57611e8c611d9e565b5b611e98848285611e4f565b509392505050565b600082601f830112611eb557611eb4611d99565b5b8135611ec5848260208601611e5e565b91505092915050565b60008060008060808587031215611ee857611ee7611bf4565b5b6000611ef687828801611d84565b9450506020611f0787828801611c15565b9350506040611f1887828801611c15565b925050606085013567ffffffffffffffff811115611f3957611f38611bf9565b5b611f4587828801611ea0565b91505092959194509250565b6000602082019050611f666000830184611c63565b92915050565b600060208284031215611f8257611f81611bf4565b5b6000611f9084828501611d84565b91505092915050565b611fa281611d5b565b82525050565b6000602082019050611fbd6000830184611f99565b92915050565b7f4e487b7100000000000000000000000000000000000000000000000000000000600052602160045260246000fd5b6005811061200357612002611fc3565b5b50565b600081905061201482611ff2565b919050565b600061202482612006565b9050919050565b61203481612019565b82525050565b600061010082019050612050600083018b611f99565b61205d602083018a611f99565b61206a6040830189611f99565b818103606083015261207c8188611cd2565b905061208b6080830187611bc0565b61209860a0830186611bc0565b6120a560c0830185611bc0565b6120b260e083018461202b565b9998505050505050505050565b7f4e487b7100000000000000000000000000000000000000000000000000000000600052602260045260246000fd5b6000600282049050600182168061210657607f821691505b6020821081141561211a576121196120bf565b5b50919050565b60008190508160005260206000209050919050565b60008154612142816120ee565b61214c8186611c7d565b945060018216600081146121675760018114612179576121ac565b60ff19831686526020860193506121ac565b61218285612120565b60005b838110156121a457815481890152600182019150602081019050612185565b808801955050505b50505092915050565b60006080820190506121ca6000830187611f99565b81810360208301526121dc8186612135565b90506121eb6040830185611bc0565b6121f86060830184611bc0565b95945050505050565b61220a81611c57565b811461221557600080fd5b50565b60008151905061222781612201565b92915050565b600061224061223b84611e1e565b611e03565b90508281526020810184848401111561225c5761225b611d9e565b5b612267848285611c8e565b509392505050565b600082601f83011261228457612283611d99565b5b815161229484826020860161222d565b91505092915050565b600080604083850312156122b4576122b3611bf4565b5b60006122c285828601612218565b925050602083015167ffffffffffffffff8111156122e3576122e2611bf9565b5b6122ef8582860161226f565b9150509250929050565b600082825260208201905092915050565b7f5265656e7472616e637947756172643a207265656e7472616e742063616c6c00600082015250565b6000612340601f836122f9565b915061234b8261230a565b602082019050919050565b6000602082019050818103600083015261236f81612333565b9050919050565b7f696e76616c696420616464726573730000000000000000000000000000000000600082015250565b60006123ac600f836122f9565b91506123b782612376565b602082019050919050565b600060208201905081810360008301526123db8161239f565b9050919050565b7f696e73756666696369656e742066756e64730000000000000000000000000000600082015250565b60006124186012836122f9565b9150612423826123e2565b602082019050919050565b600060208201905081810360008301526124478161240b565b9050919050565b7f696e76616c696420676173207072696365000000000000000000000000000000600082015250565b60006124846011836122f9565b915061248f8261244e565b602082019050919050565b600060208201905081810360008301526124b381612477565b9050919050565b7f696e76616c69642063616c6c696e672073656c66000000000000000000000000600082015250565b60006124f06014836122f9565b91506124fb826124ba565b602082019050919050565b6000602082019050818103600083015261251f816124e3565b9050919050565b7f696e73756666696369656e742067617300000000000000000000000000000000600082015250565b600061255c6010836122f9565b915061256782612526565b602082019050919050565b6000602082019050818103600083015261258b8161254f565b9050919050565b7f696e73756666696369656e742073746970656e64206761730000000000000000600082015250565b60006125c86018836122f9565b91506125d382612592565b602082019050919050565b600060208201905081810360008301526125f7816125bb565b9050919050565b7f696e73756666696369656e742073746970656e642b7472616e7366657220676160008201527f7300000000000000000000000000000000000000000000000000000000000000602082015250565b600061265a6021836122f9565b9150612665826125fe565b604082019050919050565b600060208201905081810360008301526126898161264d565b9050919050565b7f4e487b7100000000000000000000000000000000000000000000000000000000600052601160045260246000fd5b60006126ca82611bb6565b91507fffffffffffffffffffffffffffffffffffffffffffffffffffffffffffffffff8214156126fd576126fc612690565b5b600182019050919050565b7f4f776e61626c653a2063616c6c6572206973206e6f7420746865206f776e6572600082015250565b600061273e6020836122f9565b915061274982612708565b602082019050919050565b6000602082019050818103600083015261276d81612731565b9050919050565b7f696e76616c696420616d6f756e742076616c7565000000000000000000000000600082015250565b60006127aa6014836122f9565b91506127b582612774565b602082019050919050565b600060208201905081810360008301526127d98161279d565b9050919050565b7f696e737566696369656e74207469702062616c616e6365000000000000000000600082015250565b60006128166017836122f9565b9150612821826127e0565b602082019050919050565b6000602082019050818103600083015261284581612809565b9050919050565b7f696e737566696369656e742066756e6473000000000000000000000000000000600082015250565b60006128826011836122f9565b915061288d8261284c565b602082019050919050565b600060208201905081810360008301526128b181612875565b9050919050565b7f74697020776173206c657373206f7220657175616c20746f207a65726f000000600082015250565b60006128ee601d836122f9565b91506128f9826128b8565b602082019050919050565b6000602082019050818103600083015261291d816128e1565b9050919050565b7f4f776e61626c653a206e6577206f776e657220697320746865207a65726f206160008201527f6464726573730000000000000000000000000000000000000000000000000000602082015250565b60006129806026836122f9565b915061298b82612924565b604082019050919050565b600060208201905081810360008301526129af81612973565b9050919050565b60006129c182611bb6565b91506129cc83611bb6565b9250828210156129df576129de612690565b5b828203905092915050565b600081519050919050565b6000612a00826129ea565b612a0a81856122f9565b9350612a1a818560208601611c8e565b612a2381611cc1565b840191505092915050565b60006020820190508181036000830152612a4881846129f5565b905092915050565b7f4e487b7100000000000000000000000000000000000000000000000000000000600052601260045260246000fd5b6000612a8a82611bb6565b9150612a9583611bb6565b9250827fffffffffffffffffffffffffffffffffffffffffffffffffffffffffffffffff03821115612aca57612ac9612690565b5b828201905092915050565b6000604082019050612aea6000830185611f99565b612af76020830184611f99565b9392505050565b7f6e6f7420656e6f756768742065746865722073656e6420746f2073617469736660008201527f79207468697320616374696f6e00000000000000000000000000000000000000602082015250565b6000612b5a602d836122f9565b9150612b6582612afe565b604082019050919050565b60006020820190508181036000830152612b8981612b4d565b9050919050565b6000604082019050612ba56000830185611bc0565b612bb26020830184611bc0565b9392505050565b7f5061757361626c653a206e6f7420706175736564000000000000000000000000600082015250565b6000612bef6014836122f9565b9150612bfa82612bb9565b602082019050919050565b60006020820190508181036000830152612c1e81612be2565b9050919050565b7f5061757361626c653a2070617573656400000000000000000000000000000000600082015250565b6000612c5b6010836122f9565b9150612c6682612c25565b602082019050919050565b60006020820190508181036000830152612c8a81612c4e565b9050919050565b7f416464726573733a20696e73756666696369656e742062616c616e6365000000600082015250565b6000612cc7601d836122f9565b9150612cd282612c91565b602082019050919050565b60006020820190508181036000830152612cf681612cba565b9050919050565b600081905092915050565b50565b6000612d18600083612cfd565b9150612d2382612d08565b600082019050919050565b6000612d3982612d0b565b9150819050919050565b7f416464726573733a20756e61626c6520746f2073656e642076616c75652c207260008201527f6563697069656e74206d61792068617665207265766572746564000000000000602082015250565b6000612d9f603a836122f9565b9150612daa82612d43565b604082019050919050565b60006020820190508181036000830152612dce81612d92565b905091905056fe608060405233600160006101000a81548173ffffffffffffffffffffffffffffffffffffffff021916908373ffffffffffffffffffffffffffffffffffffffff16021790555034801561005157600080fd5b5060016000819055506118cd806100696000396000f3fe6080604052600436106100595760003560e01c8063025e7c27146100b357806302d05d3f146100f05780632e1a7d4d1461011b57806354e59cec14610144578063797530b914610181578063aa677354146101bf576100ae565b366100ae573373ffffffffffffffffffffffffffffffffffffffff167f94f7a42a79a6287f9b381600144ffe3c2ae50ac9ba3dc7a60c6449037a4c1ee1346040516100a49190610d48565b60405180910390a2005b600080fd5b3480156100bf57600080fd5b506100da60048036038101906100d59190610da3565b6101e8565b6040516100e79190610e11565b60405180910390f35b3480156100fc57600080fd5b5061010561021e565b6040516101129190610e11565b60405180910390f35b34801561012757600080fd5b50610142600480360381019061013d9190610da3565b610244565b005b34801561015057600080fd5b5061016b60048036038101906101669190610e58565b6104cf565b6040516101789190610eb3565b60405180910390f35b34801561018d57600080fd5b506101a860048036038101906101a39190611014565b61053f565b6040516101b692919061111f565b60405180910390f35b3480156101cb57600080fd5b506101e660048036038101906101e19190610e58565b6108d0565b005b600281600281106101f857600080fd5b016000915054906101000a900473ffffffffffffffffffffffffffffffffffffffff1681565b600160009054906101000a900473ffffffffffffffffffffffffffffffffffffffff1681565b6102ba600260006002811061025c5761025b61114f565b5b0160009054906101000a900473ffffffffffffffffffffffffffffffffffffffff1660026001600281106102935761029261114f565b5b0160009054906101000a900473ffffffffffffffffffffffffffffffffffffffff166104cf565b156102fa576040517f08c379a00000000000000000000000000000000000000000000000000000000081526004016102f190611201565b60405180910390fd5b3373ffffffffffffffffffffffffffffffffffffffff1660026000600281106103265761032561114f565b5b0160009054906101000a900473ffffffffffffffffffffffffffffffffffffffff1673ffffffffffffffffffffffffffffffffffffffff1614806103cb57503373ffffffffffffffffffffffffffffffffffffffff1660026001600281106103915761039061114f565b5b0160009054906101000a900473ffffffffffffffffffffffffffffffffffffffff1673ffffffffffffffffffffffffffffffffffffffff16145b61040a576040517f08c379a000000000000000000000000000000000000000000000000000000000815260040161040190611293565b60405180910390fd5b60026000541415610450576040517f08c379a0000000000000000000000000000000000000000000000000000000008152600401610447906112ff565b60405180910390fd5b60026000819055506000471161049b576040517f08c379a00000000000000000000000000000000000000000000000000000000081526004016104929061136b565b60405180910390fd5b6104c4813373ffffffffffffffffffffffffffffffffffffffff16610bd490919063ffffffff16565b600160008190555050565b60008073ffffffffffffffffffffffffffffffffffffffff168373ffffffffffffffffffffffffffffffffffffffff1614806105375750600073ffffffffffffffffffffffffffffffffffffffff168273ffffffffffffffffffffffffffffffffffffffff16145b905092915050565b600060606105b9600260006002811061055b5761055a61114f565b5b0160009054906101000a900473ffffffffffffffffffffffffffffffffffffffff1660026001600281106105925761059161114f565b5b0160009054906101000a900473ffffffffffffffffffffffffffffffffffffffff166104cf565b156105f9576040517f08c379a00000000000000000000000000000000000000000000000000000000081526004016105f090611201565b60405180910390fd5b3373ffffffffffffffffffffffffffffffffffffffff1660026000600281106106255761062461114f565b5b0160009054906101000a900473ffffffffffffffffffffffffffffffffffffffff1673ffffffffffffffffffffffffffffffffffffffff1614806106ca57503373ffffffffffffffffffffffffffffffffffffffff1660026001600281106106905761068f61114f565b5b0160009054906101000a900473ffffffffffffffffffffffffffffffffffffffff1673ffffffffffffffffffffffffffffffffffffffff16145b610709576040517f08c379a000000000000000000000000000000000000000000000000000000000815260040161070090611293565b60405180910390fd5b6002600054141561074f576040517f08c379a0000000000000000000000000000000000000000000000000000000008152600401610746906112ff565b60405180910390fd5b60026000819055508247101561079a576040517f08c379a0000000000000000000000000000000000000000000000000000000008152600401610791906113d7565b60405180910390fd5b60005a90506000808873ffffffffffffffffffffffffffffffffffffffff168688908a6040516107ca9190611433565b600060405180830381858888f193505050503d8060008114610808576040519150601f19603f3d011682016040523d82523d6000602084013e61080d565b606091505b509150915060005a846108209190611479565b905061086283836040518060400160405280601e81526020017f4d696e696f6e3a20657865637574696e67206f72646572206661696c65640000815250610cc8565b9450600085511495508973ffffffffffffffffffffffffffffffffffffffff167f6064d1b32650a8200625b5c4a0ad953066ae460a7886658d66901d7b121ab97d87836040516108b39291906114ad565b60405180910390a250505050600160008190555094509492505050565b6108da82826104cf565b1561091a576040517f08c379a000000000000000000000000000000000000000000000000000000000815260040161091190611522565b60405180910390fd5b61099060026000600281106109325761093161114f565b5b0160009054906101000a900473ffffffffffffffffffffffffffffffffffffffff1660026001600281106109695761096861114f565b5b0160009054906101000a900473ffffffffffffffffffffffffffffffffffffffff166104cf565b6109cf576040517f08c379a00000000000000000000000000000000000000000000000000000000081526004016109c6906115b4565b60405180910390fd5b8073ffffffffffffffffffffffffffffffffffffffff168273ffffffffffffffffffffffffffffffffffffffff161415610a3e576040517f08c379a0000000000000000000000000000000000000000000000000000000008152600401610a3590611646565b60405180910390fd5b600160009054906101000a900473ffffffffffffffffffffffffffffffffffffffff1673ffffffffffffffffffffffffffffffffffffffff168273ffffffffffffffffffffffffffffffffffffffff161480610ae75750600160009054906101000a900473ffffffffffffffffffffffffffffffffffffffff1673ffffffffffffffffffffffffffffffffffffffff168173ffffffffffffffffffffffffffffffffffffffff16145b610b26576040517f08c379a0000000000000000000000000000000000000000000000000000000008152600401610b1d906116d8565b60405180910390fd5b816002600060028110610b3c57610b3b61114f565b5b0160006101000a81548173ffffffffffffffffffffffffffffffffffffffff021916908373ffffffffffffffffffffffffffffffffffffffff160217905550806002600160028110610b9157610b9061114f565b5b0160006101000a81548173ffffffffffffffffffffffffffffffffffffffff021916908373ffffffffffffffffffffffffffffffffffffffff1602179055505050565b80471015610c17576040517f08c379a0000000000000000000000000000000000000000000000000000000008152600401610c0e90611744565b60405180910390fd5b60008273ffffffffffffffffffffffffffffffffffffffff1682604051610c3d9061178a565b60006040518083038185875af1925050503d8060008114610c7a576040519150601f19603f3d011682016040523d82523d6000602084013e610c7f565b606091505b5050905080610cc3576040517f08c379a0000000000000000000000000000000000000000000000000000000008152600401610cba90611811565b60405180910390fd5b505050565b60608315610cd857829050610d28565b600083511115610ceb5782518084602001fd5b816040517f08c379a0000000000000000000000000000000000000000000000000000000008152600401610d1f9190611875565b60405180910390fd5b9392505050565b6000819050919050565b610d4281610d2f565b82525050565b6000602082019050610d5d6000830184610d39565b92915050565b6000604051905090565b600080fd5b600080fd5b610d8081610d2f565b8114610d8b57600080fd5b50565b600081359050610d9d81610d77565b92915050565b600060208284031215610db957610db8610d6d565b5b6000610dc784828501610d8e565b91505092915050565b600073ffffffffffffffffffffffffffffffffffffffff82169050919050565b6000610dfb82610dd0565b9050919050565b610e0b81610df0565b82525050565b6000602082019050610e266000830184610e02565b92915050565b610e3581610df0565b8114610e4057600080fd5b50565b600081359050610e5281610e2c565b92915050565b60008060408385031215610e6f57610e6e610d6d565b5b6000610e7d85828601610e43565b9250506020610e8e85828601610e43565b9150509250929050565b60008115159050919050565b610ead81610e98565b82525050565b6000602082019050610ec86000830184610ea4565b92915050565b600080fd5b600080fd5b6000601f19601f8301169050919050565b7f4e487b7100000000000000000000000000000000000000000000000000000000600052604160045260246000fd5b610f2182610ed8565b810181811067ffffffffffffffff82111715610f4057610f3f610ee9565b5b80604052505050565b6000610f53610d63565b9050610f5f8282610f18565b919050565b600067ffffffffffffffff821115610f7f57610f7e610ee9565b5b610f8882610ed8565b9050602081019050919050565b82818337600083830152505050565b6000610fb7610fb284610f64565b610f49565b905082815260208101848484011115610fd357610fd2610ed3565b5b610fde848285610f95565b509392505050565b600082601f830112610ffb57610ffa610ece565b5b813561100b848260208601610fa4565b91505092915050565b6000806000806080858703121561102e5761102d610d6d565b5b600061103c87828801610e43565b945050602085013567ffffffffffffffff81111561105d5761105c610d72565b5b61106987828801610fe6565b935050604061107a87828801610d8e565b925050606061108b87828801610d8e565b91505092959194509250565b600081519050919050565b600082825260208201905092915050565b60005b838110156110d15780820151818401526020810190506110b6565b838111156110e0576000848401525b50505050565b60006110f182611097565b6110fb81856110a2565b935061110b8185602086016110b3565b61111481610ed8565b840191505092915050565b60006040820190506111346000830185610ea4565b818103602083015261114681846110e6565b90509392505050565b7f4e487b7100000000000000000000000000000000000000000000000000000000600052603260045260246000fd5b600082825260208201905092915050565b7f4d696e696f6e3a20636f6e74726163742063616e206e6f74206265207573656460008201527f206265666f7265207265676973746572696e6700000000000000000000000000602082015250565b60006111eb60338361117e565b91506111f68261118f565b604082019050919050565b6000602082019050818103600083015261121a816111de565b9050919050565b7f4d696e696f6e3a206f6e6c79206f776e65727320616c6c6f77656420746f207060008201527f6572666f726d207468697320616374696f6e0000000000000000000000000000602082015250565b600061127d60328361117e565b915061128882611221565b604082019050919050565b600060208201905081810360008301526112ac81611270565b9050919050565b7f5265656e7472616e637947756172643a207265656e7472616e742063616c6c00600082015250565b60006112e9601f8361117e565b91506112f4826112b3565b602082019050919050565b60006020820190508181036000830152611318816112dc565b9050919050565b7f4d696e696f6e3a20696e73756666696369656e742066756e6473000000000000600082015250565b6000611355601a8361117e565b91506113608261131f565b602082019050919050565b6000602082019050818103600083015261138481611348565b9050919050565b7f4d696e696f6e3a20696e73756666696369656e742062616c616e636500000000600082015250565b60006113c1601c8361117e565b91506113cc8261138b565b602082019050919050565b600060208201905081810360008301526113f0816113b4565b9050919050565b600081905092915050565b600061140d82611097565b61141781856113f7565b93506114278185602086016110b3565b80840191505092915050565b600061143f8284611402565b915081905092915050565b7f4e487b7100000000000000000000000000000000000000000000000000000000600052601160045260246000fd5b600061148482610d2f565b915061148f83610d2f565b9250828210156114a2576114a161144a565b5b828203905092915050565b60006040820190506114c26000830185610ea4565b6114cf6020830184610d39565b9392505050565b7f4d696e696f6e3a20696e76616c6964206164647265737320676976656e000000600082015250565b600061150c601d8361117e565b9150611517826114d6565b602082019050919050565b6000602082019050818103600083015261153b816114ff565b9050919050565b7f4d696e696f6e3a206f776e65727320616c72656164792072656769737465726560008201527f6400000000000000000000000000000000000000000000000000000000000000602082015250565b600061159e60218361117e565b91506115a982611542565b604082019050919050565b600060208201905081810360008301526115cd81611591565b9050919050565b7f4d696e696f6e3a2073616d65206164647265737320666f7220616c6c206f776e60008201527f6572730000000000000000000000000000000000000000000000000000000000602082015250565b600061163060238361117e565b915061163b826115d4565b604082019050919050565b6000602082019050818103600083015261165f81611623565b9050919050565b7f4d696e696f6e3a20636f6e74726163742063726561746f722073686f756c642060008201527f626520696e206f776e6572730000000000000000000000000000000000000000602082015250565b60006116c2602c8361117e565b91506116cd82611666565b604082019050919050565b600060208201905081810360008301526116f1816116b5565b9050919050565b7f416464726573733a20696e73756666696369656e742062616c616e6365000000600082015250565b600061172e601d8361117e565b9150611739826116f8565b602082019050919050565b6000602082019050818103600083015261175d81611721565b9050919050565b50565b60006117746000836113f7565b915061177f82611764565b600082019050919050565b600061179582611767565b9150819050919050565b7f416464726573733a20756e61626c6520746f2073656e642076616c75652c207260008201527f6563697069656e74206d61792068617665207265766572746564000000000000602082015250565b60006117fb603a8361117e565b91506118068261179f565b604082019050919050565b6000602082019050818103600083015261182a816117ee565b9050919050565b600081519050919050565b600061184782611831565b611851818561117e565b93506118618185602086016110b3565b61186a81610ed8565b840191505092915050565b6000602082019050818103600083015261188f818461183c565b90509291505056fea2646970667358221220680dd38388fb872005ee5df6221e081ace06fbb593173cbbaef94a77921c9a3864736f6c63430008090033a2646970667358221220d14af6bfdc102b712bb79184cdd1decec41bad2531ee75bd50250990e049695564736f6c63430008090033",
  "immutableReferences": {},
  "source": "//SPDX-License-Identifier: MIT\npragma solidity 0.8.9;\n\nimport \"@openzeppelin/contracts/utils/math/SafeMath.sol\";\nimport \"@openzeppelin/contracts/access/Ownable.sol\";\nimport \"@openzeppelin/contracts/security/ReentrancyGuard.sol\";\nimport \"@openzeppelin/contracts/security/Pausable.sol\";\n\nimport \"./AutomatonMinion.sol\";\nimport \"./IAutomatonMinion.sol\";\n\n\ncontract Automaton is Ownable, ReentrancyGuard, Pausable {\n  using SafeMath for uint256;\n  using Address for address payable;\n\n  enum State {\n    Open,\n    Forwarded,\n    Completed,\n    Closed,\n    Failed\n  }\n\n  struct Automation {\n    address creator;\n    address target;\n    address minion;\n    bytes data;\n    uint gasLimit;\n    uint gasCost;\n    uint amount;\n    State state;\n  }\n\n  uint storedData;\n  uint256 public autoId;\n  uint256 public fee = 150000000000000; // 150.000 gwei\n  uint256 public feeBalance;\n\n  mapping(address => address) public clientForMinion;\n  mapping(uint256 => Automation) public automations;\n\n  event MinionRegistered(address indexed creator, address indexed minion);\n  event AutomationCreated(address indexed creator, uint automationId);\n  event AutomationFailed(address indexed creator, uint automationId);\n  event AutomationCompleted(address indexed creator, uint automationId);\n  event AutomationValueForwarded(address indexed minion, uint automationId, uint amount);\n  event Received(address indexed sender, uint amount);\n\n  fallback() external payable {\n    revert();\n  }\n\n  receive() external payable {\n    emit Received(msg.sender, msg.value);\n  }\n\n  function pause() public onlyOwner {\n    super._pause();\n  }\n\n  function unpause() public onlyOwner {\n    super._unpause();\n  }\n\n  function changeFeeCost(uint newFee) public onlyOwner {\n    require(newFee < 0, 'tip was less or equal to zero');\n    fee = newFee;\n  }\n\n  function withdrawFees(uint amount) public onlyOwner nonReentrant {\n    address _this = address(this);\n    require(amount > 0, 'invalid amount value');\n    require(amount <= feeBalance, 'insuficient tip balance');\n    require(amount <= _this.balance, 'insuficient funds');\n\n    if (amount == 0) {\n      payable(msg.sender).transfer(_this.balance);\n      feeBalance = 0;\n    } else {\n      payable(msg.sender).transfer(amount);\n      feeBalance.sub(amount);\n    }\n  }\n\n  function _getOrRegisterMinion() internal returns (address minion) {\n    if (clientForMinion[msg.sender] == address(0)) {\n      AutomatonMinion _minion = new AutomatonMinion();\n      clientForMinion[msg.sender] = address(_minion);\n      _minion.register(address(this), msg.sender);\n      emit MinionRegistered(address(this), minion);\n    }\n\n    minion = clientForMinion[msg.sender];\n  }\n\n\n  function _forwardAutomationValue(uint _autoId, uint amount) internal {\n    require(msg.value > amount, 'not enought ether send to satisfy this action');\n    require(amount >= 0);\n    uint startBalance = address(this).balance;\n    Automation storage automation = automations[_autoId];\n    Address.sendValue(payable(automation.minion), amount);\n    automation.state = State.Forwarded;\n    emit AutomationValueForwarded(automation.minion, _autoId, amount);\n    require(address(this).balance.add(fee)>= startBalance.sub(msg.value));\n  }\n\n  function setupAutomation(address target, uint amount, uint gasPrice, bytes memory data) public payable nonReentrant returns (uint) {\n    require(target != address(0), 'invalid address');\n    require(msg.value > 0, 'insufficient funds');\n    require(gasPrice > 1, 'invalid gas price');\n    require(target != address(this), 'invalid calling self');\n\n    uint stipendGas = 2300;\n    uint transferGas = 21000;\n    uint carriedGasCost = msg.value.sub(fee).sub(amount);\n    uint carriedGas = carriedGasCost.div(gasPrice, 'overflow');\n    require(carriedGas > 0, 'insufficient gas');\n    require(carriedGas >= stipendGas, 'insufficient stipend gas');\n    if (amount > 0 && carriedGas < stipendGas.add(transferGas)) {\n      revert('insufficient stipend+transfer gas');\n    }\n\n    address minion = _getOrRegisterMinion();\n    autoId++;\n    automations[autoId] = Automation({\n      creator: msg.sender,\n      target: target,\n      minion: minion,\n      data: data,\n      gasLimit: carriedGas,\n      gasCost: carriedGasCost,\n      amount: amount,\n      state: State.Open\n    });\n\n    emit AutomationCreated(msg.sender, autoId);\n\n    _forwardAutomationValue(autoId, msg.value.sub(fee));\n\n    executeAutomation(autoId);\n\n    return autoId;\n  }\n\n\n  function executeAutomation(uint _autoId) public returns (bool executed, bytes memory result) {\n    Automation storage automation = automations[_autoId];\n    (executed, result) = IAutomatonMinion(automation.minion).executeOrder({\n      target: automation.target,\n      data: automation.data,\n      gas: automation.gasCost,\n      value: automation.amount\n    });\n\n    if (executed) {\n      automation.state = State.Completed;\n      emit AutomationCompleted(automation.creator, _autoId);\n    } else {\n      automation.state = State.Failed;\n      emit AutomationFailed(automation.creator, _autoId);\n    }\n  }\n\n}\n\n",
  "sourcePath": "/Users/dimitriskyriazopoulos/Development/solid/consesys/blockchain-developer-bootcamp-final-project/solidity/contracts/Automaton.sol",
  "compiler": {
    "name": "solc",
    "version": "0.8.9+commit.e5eed63a.Emscripten.clang"
  },
  "schemaVersion": "3.4.3",
  "updatedAt": "2021-11-19T23:42:50.106Z",
  "networkType": "ethereum",
  "devdoc": {
    "kind": "dev",
    "methods": {
      "owner()": {
        "details": "Returns the address of the current owner."
      },
      "paused()": {
        "details": "Returns true if the contract is paused, and false otherwise."
      },
      "renounceOwnership()": {
        "details": "Leaves the contract without owner. It will not be possible to call `onlyOwner` functions anymore. Can only be called by the current owner. NOTE: Renouncing ownership will leave the contract without an owner, thereby removing any functionality that is only available to the owner."
      },
      "transferOwnership(address)": {
        "details": "Transfers ownership of the contract to a new account (`newOwner`). Can only be called by the current owner."
      }
    },
    "version": 1
  },
  "userdoc": {
    "kind": "user",
    "methods": {},
    "version": 1
  }
}