{
  "contractName": "Automaton",
  "abi": [
    {
      "anonymous": false,
      "inputs": [
        {
          "indexed": true,
          "internalType": "address",
          "name": "creator",
          "type": "address"
        },
        {
          "indexed": false,
          "internalType": "uint256",
          "name": "automationId",
          "type": "uint256"
        }
      ],
      "name": "AutomationCompleted",
      "type": "event"
    },
    {
      "anonymous": false,
      "inputs": [
        {
          "indexed": true,
          "internalType": "address",
          "name": "creator",
          "type": "address"
        },
        {
          "indexed": false,
          "internalType": "uint256",
          "name": "automationId",
          "type": "uint256"
        }
      ],
      "name": "AutomationCreated",
      "type": "event"
    },
    {
      "anonymous": false,
      "inputs": [
        {
          "indexed": true,
          "internalType": "address",
          "name": "creator",
          "type": "address"
        },
        {
          "indexed": false,
          "internalType": "uint256",
          "name": "automationId",
          "type": "uint256"
        }
      ],
      "name": "AutomationFailed",
      "type": "event"
    },
    {
      "anonymous": false,
      "inputs": [
        {
          "indexed": true,
          "internalType": "address",
          "name": "minion",
          "type": "address"
        },
        {
          "indexed": false,
          "internalType": "uint256",
          "name": "automationId",
          "type": "uint256"
        },
        {
          "indexed": false,
          "internalType": "uint256",
          "name": "value",
          "type": "uint256"
        }
      ],
      "name": "AutomationValueForwarded",
      "type": "event"
    },
    {
      "anonymous": false,
      "inputs": [
        {
          "indexed": true,
          "internalType": "address",
          "name": "creator",
          "type": "address"
        }
      ],
      "name": "MinionRegistered",
      "type": "event"
    },
    {
      "anonymous": false,
      "inputs": [
        {
          "indexed": true,
          "internalType": "address",
          "name": "previousOwner",
          "type": "address"
        },
        {
          "indexed": true,
          "internalType": "address",
          "name": "newOwner",
          "type": "address"
        }
      ],
      "name": "OwnershipTransferred",
      "type": "event"
    },
    {
      "anonymous": false,
      "inputs": [
        {
          "indexed": false,
          "internalType": "address",
          "name": "account",
          "type": "address"
        }
      ],
      "name": "Paused",
      "type": "event"
    },
    {
      "anonymous": false,
      "inputs": [
        {
          "indexed": true,
          "internalType": "address",
          "name": "sender",
          "type": "address"
        },
        {
          "indexed": false,
          "internalType": "uint256",
          "name": "amount",
          "type": "uint256"
        }
      ],
      "name": "Received",
      "type": "event"
    },
    {
      "anonymous": false,
      "inputs": [
        {
          "indexed": false,
          "internalType": "address",
          "name": "account",
          "type": "address"
        }
      ],
      "name": "Unpaused",
      "type": "event"
    },
    {
      "stateMutability": "payable",
      "type": "fallback"
    },
    {
      "inputs": [],
      "name": "autoId",
      "outputs": [
        {
          "internalType": "uint256",
          "name": "",
          "type": "uint256"
        }
      ],
      "stateMutability": "view",
      "type": "function"
    },
    {
      "inputs": [
        {
          "internalType": "uint256",
          "name": "",
          "type": "uint256"
        }
      ],
      "name": "automations",
      "outputs": [
        {
          "internalType": "address",
          "name": "creator",
          "type": "address"
        },
        {
          "internalType": "address",
          "name": "target",
          "type": "address"
        },
        {
          "internalType": "address",
          "name": "minion",
          "type": "address"
        },
        {
          "internalType": "bytes",
          "name": "data",
          "type": "bytes"
        },
        {
          "internalType": "uint256",
          "name": "gasLimit",
          "type": "uint256"
        },
        {
          "internalType": "uint256",
          "name": "gasCost",
          "type": "uint256"
        },
        {
          "internalType": "uint256",
          "name": "value",
          "type": "uint256"
        },
        {
          "internalType": "enum Automaton.State",
          "name": "state",
          "type": "uint8"
        }
      ],
      "stateMutability": "view",
      "type": "function"
    },
    {
      "inputs": [
        {
          "internalType": "address",
          "name": "",
          "type": "address"
        }
      ],
      "name": "clientForMinion",
      "outputs": [
        {
          "internalType": "address",
          "name": "",
          "type": "address"
        }
      ],
      "stateMutability": "view",
      "type": "function"
    },
    {
      "inputs": [],
      "name": "fee",
      "outputs": [
        {
          "internalType": "uint256",
          "name": "",
          "type": "uint256"
        }
      ],
      "stateMutability": "view",
      "type": "function"
    },
    {
      "inputs": [],
      "name": "feeBalance",
      "outputs": [
        {
          "internalType": "uint256",
          "name": "",
          "type": "uint256"
        }
      ],
      "stateMutability": "view",
      "type": "function"
    },
    {
      "inputs": [],
      "name": "owner",
      "outputs": [
        {
          "internalType": "address",
          "name": "",
          "type": "address"
        }
      ],
      "stateMutability": "view",
      "type": "function"
    },
    {
      "inputs": [],
      "name": "paused",
      "outputs": [
        {
          "internalType": "bool",
          "name": "",
          "type": "bool"
        }
      ],
      "stateMutability": "view",
      "type": "function"
    },
    {
      "inputs": [],
      "name": "renounceOwnership",
      "outputs": [],
      "stateMutability": "nonpayable",
      "type": "function"
    },
    {
      "inputs": [
        {
          "internalType": "address",
          "name": "newOwner",
          "type": "address"
        }
      ],
      "name": "transferOwnership",
      "outputs": [],
      "stateMutability": "nonpayable",
      "type": "function"
    },
    {
      "stateMutability": "payable",
      "type": "receive"
    },
    {
      "inputs": [],
      "name": "pause",
      "outputs": [],
      "stateMutability": "nonpayable",
      "type": "function"
    },
    {
      "inputs": [],
      "name": "unpause",
      "outputs": [],
      "stateMutability": "nonpayable",
      "type": "function"
    },
    {
      "inputs": [
        {
          "internalType": "uint256",
          "name": "newFee",
          "type": "uint256"
        }
      ],
      "name": "changeFeeCost",
      "outputs": [],
      "stateMutability": "nonpayable",
      "type": "function"
    },
    {
      "inputs": [
        {
          "internalType": "uint256",
          "name": "amount",
          "type": "uint256"
        }
      ],
      "name": "withdrawFees",
      "outputs": [],
      "stateMutability": "nonpayable",
      "type": "function"
    },
    {
      "inputs": [
        {
          "internalType": "address",
          "name": "target",
          "type": "address"
        },
        {
          "internalType": "uint256",
          "name": "value",
          "type": "uint256"
        },
        {
          "internalType": "uint256",
          "name": "gas",
          "type": "uint256"
        },
        {
          "internalType": "uint256",
          "name": "gasPrice",
          "type": "uint256"
        },
        {
          "internalType": "bytes",
          "name": "data",
          "type": "bytes"
        }
      ],
      "name": "setupAutomation",
      "outputs": [
        {
          "internalType": "uint256",
          "name": "",
          "type": "uint256"
        }
      ],
      "stateMutability": "payable",
      "type": "function"
    },
    {
      "inputs": [
        {
          "internalType": "uint256",
          "name": "_autoId",
          "type": "uint256"
        }
      ],
      "name": "executeAutomation",
      "outputs": [
        {
          "internalType": "bool",
          "name": "executed",
          "type": "bool"
        },
        {
          "internalType": "bytes",
          "name": "result",
          "type": "bytes"
        }
      ],
      "stateMutability": "nonpayable",
      "type": "function"
    }
  ],
  "bytecode": "0x608060405265886c98b760006005553480156200001b57600080fd5b506200003c620000306200006460201b60201c565b6200006c60201b60201c565b600180819055506000600260006101000a81548160ff02191690831515021790555062000130565b600033905090565b60008060009054906101000a900473ffffffffffffffffffffffffffffffffffffffff169050816000806101000a81548173ffffffffffffffffffffffffffffffffffffffff021916908373ffffffffffffffffffffffffffffffffffffffff1602179055508173ffffffffffffffffffffffffffffffffffffffff168173ffffffffffffffffffffffffffffffffffffffff167f8be0079c531659141344cd1fd0a4f28419497f9722a3daafe3b4186f6b6457e060405160405180910390a35050565b6145af80620001406000396000f3fe6080604052600436106100eb5760003560e01c8063715018a61161008a578063a443c74711610059578063a443c7471461030a578063ddca3f431461034e578063ed94598314610379578063f2fde38b146103a257610140565b8063715018a6146102745780638456cb591461028b5780638abb4c91146102a25780638da5cb5b146102df57610140565b806352dd90b5116100c657806352dd90b5146101c55780635c975abb146101f55780635e318e071461022057806360b71d4e1461024957610140565b8062c6ecc2146101455780633f4ba83a146101835780634b2f073a1461019a57610140565b36610140573373ffffffffffffffffffffffffffffffffffffffff167f88a5966d370b9919b20f3e2c13ff65706f196a4e32cc2c12bf57088f88525874346040516101369190611af6565b60405180910390a2005b600080fd5b34801561015157600080fd5b5061016c60048036038101906101679190611b51565b6103cb565b60405161017a929190611c32565b60405180910390f35b34801561018f57600080fd5b50610198610627565b005b3480156101a657600080fd5b506101af6106ad565b6040516101bc9190611af6565b60405180910390f35b6101df60048036038101906101da9190611df5565b6106b3565b6040516101ec9190611af6565b60405180910390f35b34801561020157600080fd5b5061020a610c1d565b6040516102179190611e8c565b60405180910390f35b34801561022c57600080fd5b5061024760048036038101906102429190611b51565b610c34565b005b34801561025557600080fd5b5061025e610ec2565b60405161026b9190611af6565b60405180910390f35b34801561028057600080fd5b50610289610ec8565b005b34801561029757600080fd5b506102a0610f50565b005b3480156102ae57600080fd5b506102c960048036038101906102c49190611ea7565b610fd6565b6040516102d69190611ee3565b60405180910390f35b3480156102eb57600080fd5b506102f4611009565b6040516103019190611ee3565b60405180910390f35b34801561031657600080fd5b50610331600480360381019061032c9190611b51565b611032565b604051610345989796959493929190611f75565b60405180910390f35b34801561035a57600080fd5b5061036361116f565b6040516103709190611af6565b60405180910390f35b34801561038557600080fd5b506103a0600480360381019061039b9190611b51565b611175565b005b3480156103ae57600080fd5b506103c960048036038101906103c49190611ea7565b61123e565b005b6000606060006008600085815260200190815260200160002090508060020160009054906101000a900473ffffffffffffffffffffffffffffffffffffffff1673ffffffffffffffffffffffffffffffffffffffff1663797530b98260010160009054906101000a900473ffffffffffffffffffffffffffffffffffffffff1683600301846005015485600601546040518563ffffffff1660e01b815260040161047894939291906120f0565b600060405180830381600087803b15801561049257600080fd5b505af11580156104a6573d6000803e3d6000fd5b505050506040513d6000823e3d601f19601f820116820180604052508101906104cf91906121d8565b809350819450505082156105815760028160070160006101000a81548160ff0219169083600481111561050557610504611efe565b5b02179055508060000160009054906101000a900473ffffffffffffffffffffffffffffffffffffffff1673ffffffffffffffffffffffffffffffffffffffff167f297da755a56f6595ca28ebcd6ae5b6fff6a55b8bbf97a9c29a481bfec5809306856040516105749190611af6565b60405180910390a2610621565b60048160070160006101000a81548160ff021916908360048111156105a9576105a8611efe565b5b02179055508060000160009054906101000a900473ffffffffffffffffffffffffffffffffffffffff1673ffffffffffffffffffffffffffffffffffffffff167f3fe0420cd991208b732a8eb46ece80be99434b998654a80ce7cab868895d7115856040516106189190611af6565b60405180910390a25b50915091565b61062f611336565b73ffffffffffffffffffffffffffffffffffffffff1661064d611009565b73ffffffffffffffffffffffffffffffffffffffff16146106a3576040517f08c379a000000000000000000000000000000000000000000000000000000000815260040161069a90612291565b60405180910390fd5b6106ab61133e565b565b60045481565b6000600260015414156106fb576040517f08c379a00000000000000000000000000000000000000000000000000000000081526004016106f2906122fd565b60405180910390fd5b600260018190555060006108fc905060006152089050600061072683886113e090919063ffffffff16565b905060008811156107465761074482826113e090919063ffffffff16565b505b60018611610789576040517f08c379a000000000000000000000000000000000000000000000000000000000815260040161078090612369565b60405180910390fd5b346107c3896107b56005546107a78b876113f690919063ffffffff16565b6113e090919063ffffffff16565b6113e090919063ffffffff16565b1115610804576040517f08c379a00000000000000000000000000000000000000000000000000000000081526004016107fb906123d5565b60405180910390fd5b600073ffffffffffffffffffffffffffffffffffffffff168973ffffffffffffffffffffffffffffffffffffffff161415610874576040517f08c379a000000000000000000000000000000000000000000000000000000000815260040161086b90612441565b60405180910390fd5b3073ffffffffffffffffffffffffffffffffffffffff168973ffffffffffffffffffffffffffffffffffffffff1614156108e3576040517f08c379a00000000000000000000000000000000000000000000000000000000081526004016108da906124ad565b60405180910390fd5b60008711610926576040517f08c379a000000000000000000000000000000000000000000000000000000000815260040161091d90612519565b60405180910390fd5b6161a8871161096a576040517f08c379a000000000000000000000000000000000000000000000000000000000815260040161096190612585565b60405180910390fd5b600061097461140c565b905060046000815480929190610989906125d4565b91905055506040518061010001604052803373ffffffffffffffffffffffffffffffffffffffff1681526020018b73ffffffffffffffffffffffffffffffffffffffff1681526020018273ffffffffffffffffffffffffffffffffffffffff168152602001878152602001898152602001610a0d89856113f690919063ffffffff16565b81526020018a815260200160006004811115610a2c57610a2b611efe565b5b81525060086000600454815260200190815260200160002060008201518160000160006101000a81548173ffffffffffffffffffffffffffffffffffffffff021916908373ffffffffffffffffffffffffffffffffffffffff16021790555060208201518160010160006101000a81548173ffffffffffffffffffffffffffffffffffffffff021916908373ffffffffffffffffffffffffffffffffffffffff16021790555060408201518160020160006101000a81548173ffffffffffffffffffffffffffffffffffffffff021916908373ffffffffffffffffffffffffffffffffffffffff1602179055506060820151816003019080519060200190610b35929190611a2c565b506080820151816004015560a0820151816005015560c0820151816006015560e08201518160070160006101000a81548160ff02191690836004811115610b7f57610b7e611efe565b5b02179055509050503373ffffffffffffffffffffffffffffffffffffffff167fa60bf4d51360f5f4bae1314f7b82d2c7954a4ff4bf83f716c3cd2d2cf418c4de600454604051610bcf9190611af6565b60405180910390a2610bf7600454610bf26005543461166390919063ffffffff16565b611679565b610c026004546103cb565b50506004549450505050506001808190555095945050505050565b6000600260009054906101000a900460ff16905090565b610c3c611336565b73ffffffffffffffffffffffffffffffffffffffff16610c5a611009565b73ffffffffffffffffffffffffffffffffffffffff1614610cb0576040517f08c379a0000000000000000000000000000000000000000000000000000000008152600401610ca790612291565b60405180910390fd5b60026001541415610cf6576040517f08c379a0000000000000000000000000000000000000000000000000000000008152600401610ced906122fd565b60405180910390fd5b6002600181905550600030905060008211610d46576040517f08c379a0000000000000000000000000000000000000000000000000000000008152600401610d3d90612669565b60405180910390fd5b600654821115610d8b576040517f08c379a0000000000000000000000000000000000000000000000000000000008152600401610d82906126d5565b60405180910390fd5b8073ffffffffffffffffffffffffffffffffffffffff1631821115610de5576040517f08c379a0000000000000000000000000000000000000000000000000000000008152600401610ddc90612741565b60405180910390fd5b6000821415610e59573373ffffffffffffffffffffffffffffffffffffffff166108fc8273ffffffffffffffffffffffffffffffffffffffff16319081150290604051600060405180830381858888f19350505050158015610e4b573d6000803e3d6000fd5b506000600681905550610eb7565b3373ffffffffffffffffffffffffffffffffffffffff166108fc839081150290604051600060405180830381858888f19350505050158015610e9f573d6000803e3d6000fd5b50610eb58260065461166390919063ffffffff16565b505b506001808190555050565b60065481565b610ed0611336565b73ffffffffffffffffffffffffffffffffffffffff16610eee611009565b73ffffffffffffffffffffffffffffffffffffffff1614610f44576040517f08c379a0000000000000000000000000000000000000000000000000000000008152600401610f3b90612291565b60405180910390fd5b610f4e60006117d1565b565b610f58611336565b73ffffffffffffffffffffffffffffffffffffffff16610f76611009565b73ffffffffffffffffffffffffffffffffffffffff1614610fcc576040517f08c379a0000000000000000000000000000000000000000000000000000000008152600401610fc390612291565b60405180910390fd5b610fd4611895565b565b60076020528060005260406000206000915054906101000a900473ffffffffffffffffffffffffffffffffffffffff1681565b60008060009054906101000a900473ffffffffffffffffffffffffffffffffffffffff16905090565b60086020528060005260406000206000915090508060000160009054906101000a900473ffffffffffffffffffffffffffffffffffffffff16908060010160009054906101000a900473ffffffffffffffffffffffffffffffffffffffff16908060020160009054906101000a900473ffffffffffffffffffffffffffffffffffffffff16908060030180546110c790612029565b80601f01602080910402602001604051908101604052809291908181526020018280546110f390612029565b80156111405780601f1061111557610100808354040283529160200191611140565b820191906000526020600020905b81548152906001019060200180831161112357829003601f168201915b5050505050908060040154908060050154908060060154908060070160009054906101000a900460ff16905088565b60055481565b61117d611336565b73ffffffffffffffffffffffffffffffffffffffff1661119b611009565b73ffffffffffffffffffffffffffffffffffffffff16146111f1576040517f08c379a00000000000000000000000000000000000000000000000000000000081526004016111e890612291565b60405180910390fd5b60008110611234576040517f08c379a000000000000000000000000000000000000000000000000000000000815260040161122b906127ad565b60405180910390fd5b8060058190555050565b611246611336565b73ffffffffffffffffffffffffffffffffffffffff16611264611009565b73ffffffffffffffffffffffffffffffffffffffff16146112ba576040517f08c379a00000000000000000000000000000000000000000000000000000000081526004016112b190612291565b60405180910390fd5b600073ffffffffffffffffffffffffffffffffffffffff168173ffffffffffffffffffffffffffffffffffffffff16141561132a576040517f08c379a00000000000000000000000000000000000000000000000000000000081526004016113219061283f565b60405180910390fd5b611333816117d1565b50565b600033905090565b611346610c1d565b611385576040517f08c379a000000000000000000000000000000000000000000000000000000000815260040161137c906128ab565b60405180910390fd5b6000600260006101000a81548160ff0219169083151502179055507f5db9ee0a495bf2e6ff9c91a7834c1ba4fdd244a5e8aa4e537bd38aeae4b073aa6113c9611336565b6040516113d69190611ee3565b60405180910390a1565b600081836113ee91906128cb565b905092915050565b600081836114049190612921565b905092915050565b60008073ffffffffffffffffffffffffffffffffffffffff16600760003373ffffffffffffffffffffffffffffffffffffffff1673ffffffffffffffffffffffffffffffffffffffff16815260200190815260200160002060009054906101000a900473ffffffffffffffffffffffffffffffffffffffff1673ffffffffffffffffffffffffffffffffffffffff1614156115bb5760006040516114af90611ab2565b604051809103906000f0801580156114cb573d6000803e3d6000fd5b50905080600760003373ffffffffffffffffffffffffffffffffffffffff1673ffffffffffffffffffffffffffffffffffffffff16815260200190815260200160002060006101000a81548173ffffffffffffffffffffffffffffffffffffffff021916908373ffffffffffffffffffffffffffffffffffffffff1602179055508073ffffffffffffffffffffffffffffffffffffffff1663aa67735430336040518363ffffffff1660e01b815260040161158792919061297b565b600060405180830381600087803b1580156115a157600080fd5b505af11580156115b5573d6000803e3d6000fd5b50505050505b600760003373ffffffffffffffffffffffffffffffffffffffff1673ffffffffffffffffffffffffffffffffffffffff16815260200190815260200160002060009054906101000a900473ffffffffffffffffffffffffffffffffffffffff1690508073ffffffffffffffffffffffffffffffffffffffff167ffd854a62d3b67736b50d9c9839a1f95030b41b849a915bf3e8f4eaf109603a4760405160405180910390a290565b6000818361167191906129a4565b905092915050565b8034116116bb576040517f08c379a00000000000000000000000000000000000000000000000000000000081526004016116b290612a4a565b60405180910390fd5b60008110156116c957600080fd5b600047905060006008600085815260200190815260200160002090506117138160020160009054906101000a900473ffffffffffffffffffffffffffffffffffffffff1684611938565b60018160070160006101000a81548160ff0219169083600481111561173b5761173a611efe565b5b02179055508060020160009054906101000a900473ffffffffffffffffffffffffffffffffffffffff1673ffffffffffffffffffffffffffffffffffffffff167f4a613e9c42f26e4aff0d776fd9bb4b8c9e8516c1c7095968c0c59d0205284f3d85856040516117ac929190612a6a565b60405180910390a234826117c091906129a4565b47116117cb57600080fd5b50505050565b60008060009054906101000a900473ffffffffffffffffffffffffffffffffffffffff169050816000806101000a81548173ffffffffffffffffffffffffffffffffffffffff021916908373ffffffffffffffffffffffffffffffffffffffff1602179055508173ffffffffffffffffffffffffffffffffffffffff168173ffffffffffffffffffffffffffffffffffffffff167f8be0079c531659141344cd1fd0a4f28419497f9722a3daafe3b4186f6b6457e060405160405180910390a35050565b61189d610c1d565b156118dd576040517f08c379a00000000000000000000000000000000000000000000000000000000081526004016118d490612adf565b60405180910390fd5b6001600260006101000a81548160ff0219169083151502179055507f62e78cea01bee320cd4e420270b5ea74000d11b0c9f74754ebdbfc544b05a258611921611336565b60405161192e9190611ee3565b60405180910390a1565b8047101561197b576040517f08c379a000000000000000000000000000000000000000000000000000000000815260040161197290612b4b565b60405180910390fd5b60008273ffffffffffffffffffffffffffffffffffffffff16826040516119a190612b9c565b60006040518083038185875af1925050503d80600081146119de576040519150601f19603f3d011682016040523d82523d6000602084013e6119e3565b606091505b5050905080611a27576040517f08c379a0000000000000000000000000000000000000000000000000000000008152600401611a1e90612c23565b60405180910390fd5b505050565b828054611a3890612029565b90600052602060002090601f016020900481019282611a5a5760008555611aa1565b82601f10611a7357805160ff1916838001178555611aa1565b82800160010185558215611aa1579182015b82811115611aa0578251825591602001919060010190611a85565b5b509050611aae9190611ac0565b5090565b6119368062002c4483390190565b5b80821115611ad9576000816000905550600101611ac1565b5090565b6000819050919050565b611af081611add565b82525050565b6000602082019050611b0b6000830184611ae7565b92915050565b6000604051905090565b600080fd5b600080fd5b611b2e81611add565b8114611b3957600080fd5b50565b600081359050611b4b81611b25565b92915050565b600060208284031215611b6757611b66611b1b565b5b6000611b7584828501611b3c565b91505092915050565b60008115159050919050565b611b9381611b7e565b82525050565b600081519050919050565b600082825260208201905092915050565b60005b83811015611bd3578082015181840152602081019050611bb8565b83811115611be2576000848401525b50505050565b6000601f19601f8301169050919050565b6000611c0482611b99565b611c0e8185611ba4565b9350611c1e818560208601611bb5565b611c2781611be8565b840191505092915050565b6000604082019050611c476000830185611b8a565b8181036020830152611c598184611bf9565b90509392505050565b600073ffffffffffffffffffffffffffffffffffffffff82169050919050565b6000611c8d82611c62565b9050919050565b611c9d81611c82565b8114611ca857600080fd5b50565b600081359050611cba81611c94565b92915050565b600080fd5b600080fd5b7f4e487b7100000000000000000000000000000000000000000000000000000000600052604160045260246000fd5b611d0282611be8565b810181811067ffffffffffffffff82111715611d2157611d20611cca565b5b80604052505050565b6000611d34611b11565b9050611d408282611cf9565b919050565b600067ffffffffffffffff821115611d6057611d5f611cca565b5b611d6982611be8565b9050602081019050919050565b82818337600083830152505050565b6000611d98611d9384611d45565b611d2a565b905082815260208101848484011115611db457611db3611cc5565b5b611dbf848285611d76565b509392505050565b600082601f830112611ddc57611ddb611cc0565b5b8135611dec848260208601611d85565b91505092915050565b600080600080600060a08688031215611e1157611e10611b1b565b5b6000611e1f88828901611cab565b9550506020611e3088828901611b3c565b9450506040611e4188828901611b3c565b9350506060611e5288828901611b3c565b925050608086013567ffffffffffffffff811115611e7357611e72611b20565b5b611e7f88828901611dc7565b9150509295509295909350565b6000602082019050611ea16000830184611b8a565b92915050565b600060208284031215611ebd57611ebc611b1b565b5b6000611ecb84828501611cab565b91505092915050565b611edd81611c82565b82525050565b6000602082019050611ef86000830184611ed4565b92915050565b7f4e487b7100000000000000000000000000000000000000000000000000000000600052602160045260246000fd5b60058110611f3e57611f3d611efe565b5b50565b6000819050611f4f82611f2d565b919050565b6000611f5f82611f41565b9050919050565b611f6f81611f54565b82525050565b600061010082019050611f8b600083018b611ed4565b611f98602083018a611ed4565b611fa56040830189611ed4565b8181036060830152611fb78188611bf9565b9050611fc66080830187611ae7565b611fd360a0830186611ae7565b611fe060c0830185611ae7565b611fed60e0830184611f66565b9998505050505050505050565b7f4e487b7100000000000000000000000000000000000000000000000000000000600052602260045260246000fd5b6000600282049050600182168061204157607f821691505b6020821081141561205557612054611ffa565b5b50919050565b60008190508160005260206000209050919050565b6000815461207d81612029565b6120878186611ba4565b945060018216600081146120a257600181146120b4576120e7565b60ff19831686526020860193506120e7565b6120bd8561205b565b60005b838110156120df578154818901526001820191506020810190506120c0565b808801955050505b50505092915050565b60006080820190506121056000830187611ed4565b81810360208301526121178186612070565b90506121266040830185611ae7565b6121336060830184611ae7565b95945050505050565b61214581611b7e565b811461215057600080fd5b50565b6000815190506121628161213c565b92915050565b600061217b61217684611d45565b611d2a565b90508281526020810184848401111561219757612196611cc5565b5b6121a2848285611bb5565b509392505050565b600082601f8301126121bf576121be611cc0565b5b81516121cf848260208601612168565b91505092915050565b600080604083850312156121ef576121ee611b1b565b5b60006121fd85828601612153565b925050602083015167ffffffffffffffff81111561221e5761221d611b20565b5b61222a858286016121aa565b9150509250929050565b600082825260208201905092915050565b7f4f776e61626c653a2063616c6c6572206973206e6f7420746865206f776e6572600082015250565b600061227b602083612234565b915061228682612245565b602082019050919050565b600060208201905081810360008301526122aa8161226e565b9050919050565b7f5265656e7472616e637947756172643a207265656e7472616e742063616c6c00600082015250565b60006122e7601f83612234565b91506122f2826122b1565b602082019050919050565b60006020820190508181036000830152612316816122da565b9050919050565b7f77726f6e67206761732070726963650000000000000000000000000000000000600082015250565b6000612353600f83612234565b915061235e8261231d565b602082019050919050565b6000602082019050818103600083015261238281612346565b9050919050565b7f696e73756666696369656e742066756e64730000000000000000000000000000600082015250565b60006123bf601283612234565b91506123ca82612389565b602082019050919050565b600060208201905081810360008301526123ee816123b2565b9050919050565b7f696e76616c696420616464726573730000000000000000000000000000000000600082015250565b600061242b600f83612234565b9150612436826123f5565b602082019050919050565b6000602082019050818103600083015261245a8161241e565b9050919050565b7f696e76616c69642063616c6c696e672073656c66000000000000000000000000600082015250565b6000612497601483612234565b91506124a282612461565b602082019050919050565b600060208201905081810360008301526124c68161248a565b9050919050565b7f6761732069732072657175697265640000000000000000000000000000000000600082015250565b6000612503600f83612234565b915061250e826124cd565b602082019050919050565b60006020820190508181036000830152612532816124f6565b9050919050565b7f6761737320746f6f206c6f770000000000000000000000000000000000000000600082015250565b600061256f600c83612234565b915061257a82612539565b602082019050919050565b6000602082019050818103600083015261259e81612562565b9050919050565b7f4e487b7100000000000000000000000000000000000000000000000000000000600052601160045260246000fd5b60006125df82611add565b91507fffffffffffffffffffffffffffffffffffffffffffffffffffffffffffffffff821415612612576126116125a5565b5b600182019050919050565b7f696e76616c696420616d6f756e742076616c7565000000000000000000000000600082015250565b6000612653601483612234565b915061265e8261261d565b602082019050919050565b6000602082019050818103600083015261268281612646565b9050919050565b7f696e737566696369656e74207469702062616c616e6365000000000000000000600082015250565b60006126bf601783612234565b91506126ca82612689565b602082019050919050565b600060208201905081810360008301526126ee816126b2565b9050919050565b7f696e737566696369656e742066756e6473000000000000000000000000000000600082015250565b600061272b601183612234565b9150612736826126f5565b602082019050919050565b6000602082019050818103600083015261275a8161271e565b9050919050565b7f74697020776173206c657373206f7220657175616c20746f207a65726f000000600082015250565b6000612797601d83612234565b91506127a282612761565b602082019050919050565b600060208201905081810360008301526127c68161278a565b9050919050565b7f4f776e61626c653a206e6577206f776e657220697320746865207a65726f206160008201527f6464726573730000000000000000000000000000000000000000000000000000602082015250565b6000612829602683612234565b9150612834826127cd565b604082019050919050565b600060208201905081810360008301526128588161281c565b9050919050565b7f5061757361626c653a206e6f7420706175736564000000000000000000000000600082015250565b6000612895601483612234565b91506128a08261285f565b602082019050919050565b600060208201905081810360008301526128c481612888565b9050919050565b60006128d682611add565b91506128e183611add565b9250827fffffffffffffffffffffffffffffffffffffffffffffffffffffffffffffffff03821115612916576129156125a5565b5b828201905092915050565b600061292c82611add565b915061293783611add565b9250817fffffffffffffffffffffffffffffffffffffffffffffffffffffffffffffffff04831182151516156129705761296f6125a5565b5b828202905092915050565b60006040820190506129906000830185611ed4565b61299d6020830184611ed4565b9392505050565b60006129af82611add565b91506129ba83611add565b9250828210156129cd576129cc6125a5565b5b828203905092915050565b7f6e6f7420656e6f756768742065746865722073656e6420746f2073617469736660008201527f79207468697320616374696f6e00000000000000000000000000000000000000602082015250565b6000612a34602d83612234565b9150612a3f826129d8565b604082019050919050565b60006020820190508181036000830152612a6381612a27565b9050919050565b6000604082019050612a7f6000830185611ae7565b612a8c6020830184611ae7565b9392505050565b7f5061757361626c653a2070617573656400000000000000000000000000000000600082015250565b6000612ac9601083612234565b9150612ad482612a93565b602082019050919050565b60006020820190508181036000830152612af881612abc565b9050919050565b7f416464726573733a20696e73756666696369656e742062616c616e6365000000600082015250565b6000612b35601d83612234565b9150612b4082612aff565b602082019050919050565b60006020820190508181036000830152612b6481612b28565b9050919050565b600081905092915050565b50565b6000612b86600083612b6b565b9150612b9182612b76565b600082019050919050565b6000612ba782612b79565b9150819050919050565b7f416464726573733a20756e61626c6520746f2073656e642076616c75652c207260008201527f6563697069656e74206d61792068617665207265766572746564000000000000602082015250565b6000612c0d603a83612234565b9150612c1882612bb1565b604082019050919050565b60006020820190508181036000830152612c3c81612c00565b905091905056fe608060405233600160006101000a81548173ffffffffffffffffffffffffffffffffffffffff021916908373ffffffffffffffffffffffffffffffffffffffff16021790555034801561005157600080fd5b5060016000819055506118cd806100696000396000f3fe6080604052600436106100595760003560e01c8063025e7c27146100b357806302d05d3f146100f05780632e1a7d4d1461011b57806354e59cec14610144578063797530b914610181578063aa677354146101bf576100ae565b366100ae573373ffffffffffffffffffffffffffffffffffffffff167f94f7a42a79a6287f9b381600144ffe3c2ae50ac9ba3dc7a60c6449037a4c1ee1346040516100a49190610d48565b60405180910390a2005b600080fd5b3480156100bf57600080fd5b506100da60048036038101906100d59190610da3565b6101e8565b6040516100e79190610e11565b60405180910390f35b3480156100fc57600080fd5b5061010561021e565b6040516101129190610e11565b60405180910390f35b34801561012757600080fd5b50610142600480360381019061013d9190610da3565b610244565b005b34801561015057600080fd5b5061016b60048036038101906101669190610e58565b6104cf565b6040516101789190610eb3565b60405180910390f35b34801561018d57600080fd5b506101a860048036038101906101a39190611014565b61053f565b6040516101b692919061111f565b60405180910390f35b3480156101cb57600080fd5b506101e660048036038101906101e19190610e58565b6108d0565b005b600281600281106101f857600080fd5b016000915054906101000a900473ffffffffffffffffffffffffffffffffffffffff1681565b600160009054906101000a900473ffffffffffffffffffffffffffffffffffffffff1681565b6102ba600260006002811061025c5761025b61114f565b5b0160009054906101000a900473ffffffffffffffffffffffffffffffffffffffff1660026001600281106102935761029261114f565b5b0160009054906101000a900473ffffffffffffffffffffffffffffffffffffffff166104cf565b156102fa576040517f08c379a00000000000000000000000000000000000000000000000000000000081526004016102f190611201565b60405180910390fd5b3373ffffffffffffffffffffffffffffffffffffffff1660026000600281106103265761032561114f565b5b0160009054906101000a900473ffffffffffffffffffffffffffffffffffffffff1673ffffffffffffffffffffffffffffffffffffffff1614806103cb57503373ffffffffffffffffffffffffffffffffffffffff1660026001600281106103915761039061114f565b5b0160009054906101000a900473ffffffffffffffffffffffffffffffffffffffff1673ffffffffffffffffffffffffffffffffffffffff16145b61040a576040517f08c379a000000000000000000000000000000000000000000000000000000000815260040161040190611293565b60405180910390fd5b60026000541415610450576040517f08c379a0000000000000000000000000000000000000000000000000000000008152600401610447906112ff565b60405180910390fd5b60026000819055506000471161049b576040517f08c379a00000000000000000000000000000000000000000000000000000000081526004016104929061136b565b60405180910390fd5b6104c4813373ffffffffffffffffffffffffffffffffffffffff16610bd490919063ffffffff16565b600160008190555050565b60008073ffffffffffffffffffffffffffffffffffffffff168373ffffffffffffffffffffffffffffffffffffffff1614806105375750600073ffffffffffffffffffffffffffffffffffffffff168273ffffffffffffffffffffffffffffffffffffffff16145b905092915050565b600060606105b9600260006002811061055b5761055a61114f565b5b0160009054906101000a900473ffffffffffffffffffffffffffffffffffffffff1660026001600281106105925761059161114f565b5b0160009054906101000a900473ffffffffffffffffffffffffffffffffffffffff166104cf565b156105f9576040517f08c379a00000000000000000000000000000000000000000000000000000000081526004016105f090611201565b60405180910390fd5b3373ffffffffffffffffffffffffffffffffffffffff1660026000600281106106255761062461114f565b5b0160009054906101000a900473ffffffffffffffffffffffffffffffffffffffff1673ffffffffffffffffffffffffffffffffffffffff1614806106ca57503373ffffffffffffffffffffffffffffffffffffffff1660026001600281106106905761068f61114f565b5b0160009054906101000a900473ffffffffffffffffffffffffffffffffffffffff1673ffffffffffffffffffffffffffffffffffffffff16145b610709576040517f08c379a000000000000000000000000000000000000000000000000000000000815260040161070090611293565b60405180910390fd5b6002600054141561074f576040517f08c379a0000000000000000000000000000000000000000000000000000000008152600401610746906112ff565b60405180910390fd5b60026000819055508247101561079a576040517f08c379a0000000000000000000000000000000000000000000000000000000008152600401610791906113d7565b60405180910390fd5b60005a90506000808873ffffffffffffffffffffffffffffffffffffffff168688908a6040516107ca9190611433565b600060405180830381858888f193505050503d8060008114610808576040519150601f19603f3d011682016040523d82523d6000602084013e61080d565b606091505b509150915060005a846108209190611479565b905061086283836040518060400160405280601e81526020017f4d696e696f6e3a20657865637574696e67206f72646572206661696c65640000815250610cc8565b9450600085511495508973ffffffffffffffffffffffffffffffffffffffff167f6064d1b32650a8200625b5c4a0ad953066ae460a7886658d66901d7b121ab97d87836040516108b39291906114ad565b60405180910390a250505050600160008190555094509492505050565b6108da82826104cf565b1561091a576040517f08c379a000000000000000000000000000000000000000000000000000000000815260040161091190611522565b60405180910390fd5b61099060026000600281106109325761093161114f565b5b0160009054906101000a900473ffffffffffffffffffffffffffffffffffffffff1660026001600281106109695761096861114f565b5b0160009054906101000a900473ffffffffffffffffffffffffffffffffffffffff166104cf565b6109cf576040517f08c379a00000000000000000000000000000000000000000000000000000000081526004016109c6906115b4565b60405180910390fd5b8073ffffffffffffffffffffffffffffffffffffffff168273ffffffffffffffffffffffffffffffffffffffff161415610a3e576040517f08c379a0000000000000000000000000000000000000000000000000000000008152600401610a3590611646565b60405180910390fd5b600160009054906101000a900473ffffffffffffffffffffffffffffffffffffffff1673ffffffffffffffffffffffffffffffffffffffff168273ffffffffffffffffffffffffffffffffffffffff161480610ae75750600160009054906101000a900473ffffffffffffffffffffffffffffffffffffffff1673ffffffffffffffffffffffffffffffffffffffff168173ffffffffffffffffffffffffffffffffffffffff16145b610b26576040517f08c379a0000000000000000000000000000000000000000000000000000000008152600401610b1d906116d8565b60405180910390fd5b816002600060028110610b3c57610b3b61114f565b5b0160006101000a81548173ffffffffffffffffffffffffffffffffffffffff021916908373ffffffffffffffffffffffffffffffffffffffff160217905550806002600160028110610b9157610b9061114f565b5b0160006101000a81548173ffffffffffffffffffffffffffffffffffffffff021916908373ffffffffffffffffffffffffffffffffffffffff1602179055505050565b80471015610c17576040517f08c379a0000000000000000000000000000000000000000000000000000000008152600401610c0e90611744565b60405180910390fd5b60008273ffffffffffffffffffffffffffffffffffffffff1682604051610c3d9061178a565b60006040518083038185875af1925050503d8060008114610c7a576040519150601f19603f3d011682016040523d82523d6000602084013e610c7f565b606091505b5050905080610cc3576040517f08c379a0000000000000000000000000000000000000000000000000000000008152600401610cba90611811565b60405180910390fd5b505050565b60608315610cd857829050610d28565b600083511115610ceb5782518084602001fd5b816040517f08c379a0000000000000000000000000000000000000000000000000000000008152600401610d1f9190611875565b60405180910390fd5b9392505050565b6000819050919050565b610d4281610d2f565b82525050565b6000602082019050610d5d6000830184610d39565b92915050565b6000604051905090565b600080fd5b600080fd5b610d8081610d2f565b8114610d8b57600080fd5b50565b600081359050610d9d81610d77565b92915050565b600060208284031215610db957610db8610d6d565b5b6000610dc784828501610d8e565b91505092915050565b600073ffffffffffffffffffffffffffffffffffffffff82169050919050565b6000610dfb82610dd0565b9050919050565b610e0b81610df0565b82525050565b6000602082019050610e266000830184610e02565b92915050565b610e3581610df0565b8114610e4057600080fd5b50565b600081359050610e5281610e2c565b92915050565b60008060408385031215610e6f57610e6e610d6d565b5b6000610e7d85828601610e43565b9250506020610e8e85828601610e43565b9150509250929050565b60008115159050919050565b610ead81610e98565b82525050565b6000602082019050610ec86000830184610ea4565b92915050565b600080fd5b600080fd5b6000601f19601f8301169050919050565b7f4e487b7100000000000000000000000000000000000000000000000000000000600052604160045260246000fd5b610f2182610ed8565b810181811067ffffffffffffffff82111715610f4057610f3f610ee9565b5b80604052505050565b6000610f53610d63565b9050610f5f8282610f18565b919050565b600067ffffffffffffffff821115610f7f57610f7e610ee9565b5b610f8882610ed8565b9050602081019050919050565b82818337600083830152505050565b6000610fb7610fb284610f64565b610f49565b905082815260208101848484011115610fd357610fd2610ed3565b5b610fde848285610f95565b509392505050565b600082601f830112610ffb57610ffa610ece565b5b813561100b848260208601610fa4565b91505092915050565b6000806000806080858703121561102e5761102d610d6d565b5b600061103c87828801610e43565b945050602085013567ffffffffffffffff81111561105d5761105c610d72565b5b61106987828801610fe6565b935050604061107a87828801610d8e565b925050606061108b87828801610d8e565b91505092959194509250565b600081519050919050565b600082825260208201905092915050565b60005b838110156110d15780820151818401526020810190506110b6565b838111156110e0576000848401525b50505050565b60006110f182611097565b6110fb81856110a2565b935061110b8185602086016110b3565b61111481610ed8565b840191505092915050565b60006040820190506111346000830185610ea4565b818103602083015261114681846110e6565b90509392505050565b7f4e487b7100000000000000000000000000000000000000000000000000000000600052603260045260246000fd5b600082825260208201905092915050565b7f4d696e696f6e3a20636f6e74726163742063616e206e6f74206265207573656460008201527f206265666f7265207265676973746572696e6700000000000000000000000000602082015250565b60006111eb60338361117e565b91506111f68261118f565b604082019050919050565b6000602082019050818103600083015261121a816111de565b9050919050565b7f4d696e696f6e3a206f6e6c79206f776e65727320616c6c6f77656420746f207060008201527f6572666f726d207468697320616374696f6e0000000000000000000000000000602082015250565b600061127d60328361117e565b915061128882611221565b604082019050919050565b600060208201905081810360008301526112ac81611270565b9050919050565b7f5265656e7472616e637947756172643a207265656e7472616e742063616c6c00600082015250565b60006112e9601f8361117e565b91506112f4826112b3565b602082019050919050565b60006020820190508181036000830152611318816112dc565b9050919050565b7f4d696e696f6e3a20696e73756666696369656e742066756e6473000000000000600082015250565b6000611355601a8361117e565b91506113608261131f565b602082019050919050565b6000602082019050818103600083015261138481611348565b9050919050565b7f4d696e696f6e3a20696e73756666696369656e742062616c616e636500000000600082015250565b60006113c1601c8361117e565b91506113cc8261138b565b602082019050919050565b600060208201905081810360008301526113f0816113b4565b9050919050565b600081905092915050565b600061140d82611097565b61141781856113f7565b93506114278185602086016110b3565b80840191505092915050565b600061143f8284611402565b915081905092915050565b7f4e487b7100000000000000000000000000000000000000000000000000000000600052601160045260246000fd5b600061148482610d2f565b915061148f83610d2f565b9250828210156114a2576114a161144a565b5b828203905092915050565b60006040820190506114c26000830185610ea4565b6114cf6020830184610d39565b9392505050565b7f4d696e696f6e3a20696e76616c6964206164647265737320676976656e000000600082015250565b600061150c601d8361117e565b9150611517826114d6565b602082019050919050565b6000602082019050818103600083015261153b816114ff565b9050919050565b7f4d696e696f6e3a206f776e65727320616c72656164792072656769737465726560008201527f6400000000000000000000000000000000000000000000000000000000000000602082015250565b600061159e60218361117e565b91506115a982611542565b604082019050919050565b600060208201905081810360008301526115cd81611591565b9050919050565b7f4d696e696f6e3a2073616d65206164647265737320666f7220616c6c206f776e60008201527f6572730000000000000000000000000000000000000000000000000000000000602082015250565b600061163060238361117e565b915061163b826115d4565b604082019050919050565b6000602082019050818103600083015261165f81611623565b9050919050565b7f4d696e696f6e3a20636f6e74726163742063726561746f722073686f756c642060008201527f626520696e206f776e6572730000000000000000000000000000000000000000602082015250565b60006116c2602c8361117e565b91506116cd82611666565b604082019050919050565b600060208201905081810360008301526116f1816116b5565b9050919050565b7f416464726573733a20696e73756666696369656e742062616c616e6365000000600082015250565b600061172e601d8361117e565b9150611739826116f8565b602082019050919050565b6000602082019050818103600083015261175d81611721565b9050919050565b50565b60006117746000836113f7565b915061177f82611764565b600082019050919050565b600061179582611767565b9150819050919050565b7f416464726573733a20756e61626c6520746f2073656e642076616c75652c207260008201527f6563697069656e74206d61792068617665207265766572746564000000000000602082015250565b60006117fb603a8361117e565b91506118068261179f565b604082019050919050565b6000602082019050818103600083015261182a816117ee565b9050919050565b600081519050919050565b600061184782611831565b611851818561117e565b93506118618185602086016110b3565b61186a81610ed8565b840191505092915050565b6000602082019050818103600083015261188f818461183c565b90509291505056fea2646970667358221220680dd38388fb872005ee5df6221e081ace06fbb593173cbbaef94a77921c9a3864736f6c63430008090033a2646970667358221220855bb65c123b1eee906a391320e4fb7f9926c71b6c8ca3962884789bb89b0a7764736f6c63430008090033",
  "immutableReferences": {},
  "source": "//SPDX-License-Identifier: MIT\npragma solidity 0.8.9;\n\nimport \"@openzeppelin/contracts/utils/math/SafeMath.sol\";\nimport \"@openzeppelin/contracts/access/Ownable.sol\";\nimport \"@openzeppelin/contracts/security/ReentrancyGuard.sol\";\nimport \"@openzeppelin/contracts/security/Pausable.sol\";\n\nimport \"./AutomatonMinion.sol\";\nimport \"./IAutomatonMinion.sol\";\n\n\ncontract Automaton is Ownable, ReentrancyGuard, Pausable {\n  using SafeMath for uint256;\n  using Address for address payable;\n\n  enum State {\n    Open,\n    Forwarded,\n    Completed,\n    Closed,\n    Failed\n  }\n\n  struct Automation {\n    address creator;\n    address target;\n    address minion;\n    bytes data;\n    uint gasLimit;\n    uint gasCost;\n    uint value;\n    State state;\n  }\n\n  uint storedData;\n  uint256 public autoId;\n  uint256 public fee = 150000000000000; // 150.000 gwei\n  uint256 public feeBalance;\n\n  mapping(address => address) public clientForMinion;\n  mapping(uint256 => Automation) public automations;\n\n  event MinionRegistered(address indexed creator);\n  event AutomationCreated(address indexed creator, uint automationId);\n  event AutomationFailed(address indexed creator, uint automationId);\n  event AutomationCompleted(address indexed creator, uint automationId);\n  event AutomationValueForwarded(address indexed minion, uint automationId, uint value);\n  event Received(address indexed sender, uint amount);\n\n  fallback() external payable {\n    revert();\n  }\n\n  receive() external payable {\n    emit Received(msg.sender, msg.value);\n  }\n\n  function pause() public onlyOwner {\n    super._pause();\n  }\n\n  function unpause() public onlyOwner {\n    super._unpause();\n  }\n\n  function changeFeeCost(uint newFee) public onlyOwner {\n    require(newFee < 0, 'tip was less or equal to zero');\n    fee = newFee;\n  }\n\n  function withdrawFees(uint amount) public onlyOwner nonReentrant {\n    address _this = address(this);\n    require(amount > 0, 'invalid amount value');\n    require(amount <= feeBalance, 'insuficient tip balance');\n    require(amount <= _this.balance, 'insuficient funds');\n\n    if (amount == 0) {\n      payable(msg.sender).transfer(_this.balance);\n      feeBalance = 0;\n    } else {\n      payable(msg.sender).transfer(amount);\n      feeBalance.sub(amount);\n    }\n  }\n\n  function _registerMinion() internal returns (address minion) {\n    if (clientForMinion[msg.sender] == address(0)) {\n      AutomatonMinion _minion = new AutomatonMinion();\n      clientForMinion[msg.sender] = address(_minion);\n      _minion.register(address(this), msg.sender);\n    }\n\n    minion = clientForMinion[msg.sender];\n\n    emit MinionRegistered(minion);\n  }\n\n  function setupAutomation(address target, uint value, uint gas, uint gasPrice, bytes memory data) public payable nonReentrant returns (uint) {\n    uint stipendGas = 2300;\n    uint transferGas = 21000;\n    uint totalGasCost = gas.add(stipendGas);\n    if (value > 0) {\n      totalGasCost.add(transferGas);\n    }\n\n    require(gasPrice > 1, 'wrong gas price');\n    require(totalGasCost.mul(gasPrice).add(fee).add(value) <= msg.value, 'insufficient funds');\n    require(target != address(0), 'invalid address');\n    require(target != address(this), 'invalid calling self');\n    require(gas > 0, 'gas is required');\n    require(gas > 25000, 'gass too low'); //??? Verify tx cost\n    address minion = _registerMinion();\n    autoId++;\n    automations[autoId] = Automation({\n      creator: msg.sender,\n      target: target,\n      minion: minion,\n      data: data,\n      gasLimit: gas,\n      gasCost: totalGasCost.mul(gasPrice),\n      value: value,\n      state: State.Open\n    });\n\n    emit AutomationCreated(msg.sender, autoId);\n\n    forwardAutomationValue(autoId, msg.value.sub(fee));\n\n    executeAutomation(autoId);\n\n    return autoId;\n  }\n\n  function forwardAutomationValue(uint _autoId, uint value) internal {\n    require(msg.value > value, 'not enought ether send to satisfy this action');\n    require(value >= 0);\n    uint startBalance = address(this).balance;\n    Automation storage automation = automations[_autoId];\n    Address.sendValue(payable(automation.minion), value);\n    automation.state = State.Forwarded;\n    emit AutomationValueForwarded(automation.minion, _autoId, value);\n    require(address(this).balance > startBalance - msg.value);\n  }\n\n  function executeAutomation(uint _autoId) public returns (bool executed, bytes memory result) {\n    Automation storage automation = automations[_autoId];\n    (executed, result) = IAutomatonMinion(automation.minion).executeOrder({\n      target: automation.target,\n      data: automation.data,\n      gas: automation.gasCost,\n      value: automation.value\n    });\n\n    if (executed) {\n      automation.state = State.Completed;\n      emit AutomationCompleted(automation.creator, _autoId);\n    } else {\n      automation.state = State.Failed;\n      emit AutomationFailed(automation.creator, _autoId);\n    }\n  }\n}\n\n",
  "sourcePath": "/Users/dimitriskyriazopoulos/Development/solid/consesys/blockchain-developer-bootcamp-final-project/solidity/contracts/Automaton.sol",
  "compiler": {
    "name": "solc",
    "version": "0.8.9+commit.e5eed63a.Emscripten.clang"
  },
  "schemaVersion": "3.4.3",
  "updatedAt": "2021-11-16T23:35:32.126Z",
  "devdoc": {
    "kind": "dev",
    "methods": {
      "owner()": {
        "details": "Returns the address of the current owner."
      },
      "paused()": {
        "details": "Returns true if the contract is paused, and false otherwise."
      },
      "renounceOwnership()": {
        "details": "Leaves the contract without owner. It will not be possible to call `onlyOwner` functions anymore. Can only be called by the current owner. NOTE: Renouncing ownership will leave the contract without an owner, thereby removing any functionality that is only available to the owner."
      },
      "transferOwnership(address)": {
        "details": "Transfers ownership of the contract to a new account (`newOwner`). Can only be called by the current owner."
      }
    },
    "version": 1
  },
  "userdoc": {
    "kind": "user",
    "methods": {},
    "version": 1
  }
}