{
  "contractName": "AutomatonMinion",
  "abi": [
    {
      "anonymous": false,
      "inputs": [
        {
          "indexed": true,
          "internalType": "address",
          "name": "minion",
          "type": "address"
        },
        {
          "indexed": true,
          "internalType": "address",
          "name": "invoker",
          "type": "address"
        },
        {
          "indexed": false,
          "internalType": "address",
          "name": "target",
          "type": "address"
        },
        {
          "indexed": false,
          "internalType": "bool",
          "name": "result",
          "type": "bool"
        },
        {
          "indexed": false,
          "internalType": "uint256",
          "name": "gasLeft",
          "type": "uint256"
        }
      ],
      "name": "OrderExecuted",
      "type": "event"
    },
    {
      "anonymous": false,
      "inputs": [
        {
          "indexed": true,
          "internalType": "address",
          "name": "minion",
          "type": "address"
        },
        {
          "indexed": true,
          "internalType": "address",
          "name": "payer",
          "type": "address"
        },
        {
          "indexed": false,
          "internalType": "uint256",
          "name": "amount",
          "type": "uint256"
        }
      ],
      "name": "ReceivedFund",
      "type": "event"
    },
    {
      "stateMutability": "payable",
      "type": "fallback"
    },
    {
      "inputs": [],
      "name": "creator",
      "outputs": [
        {
          "internalType": "address",
          "name": "",
          "type": "address"
        }
      ],
      "stateMutability": "view",
      "type": "function"
    },
    {
      "inputs": [
        {
          "internalType": "uint256",
          "name": "",
          "type": "uint256"
        }
      ],
      "name": "owners",
      "outputs": [
        {
          "internalType": "address",
          "name": "",
          "type": "address"
        }
      ],
      "stateMutability": "view",
      "type": "function"
    },
    {
      "stateMutability": "payable",
      "type": "receive"
    },
    {
      "inputs": [
        {
          "internalType": "address",
          "name": "first",
          "type": "address"
        },
        {
          "internalType": "address",
          "name": "second",
          "type": "address"
        }
      ],
      "name": "_addressesAreEmpty",
      "outputs": [
        {
          "internalType": "bool",
          "name": "",
          "type": "bool"
        }
      ],
      "stateMutability": "pure",
      "type": "function"
    },
    {
      "inputs": [
        {
          "internalType": "address",
          "name": "automaton",
          "type": "address"
        },
        {
          "internalType": "address",
          "name": "client",
          "type": "address"
        }
      ],
      "name": "register",
      "outputs": [],
      "stateMutability": "nonpayable",
      "type": "function"
    },
    {
      "inputs": [
        {
          "internalType": "uint256",
          "name": "amount",
          "type": "uint256"
        }
      ],
      "name": "withdraw",
      "outputs": [],
      "stateMutability": "nonpayable",
      "type": "function"
    },
    {
      "inputs": [
        {
          "internalType": "address",
          "name": "target",
          "type": "address"
        },
        {
          "internalType": "bytes",
          "name": "data",
          "type": "bytes"
        },
        {
          "internalType": "uint256",
          "name": "gas",
          "type": "uint256"
        },
        {
          "internalType": "uint256",
          "name": "value",
          "type": "uint256"
        }
      ],
      "name": "executeOrder",
      "outputs": [
        {
          "internalType": "bool",
          "name": "success",
          "type": "bool"
        },
        {
          "internalType": "bytes",
          "name": "result",
          "type": "bytes"
        }
      ],
      "stateMutability": "nonpayable",
      "type": "function"
    }
  ],
  "bytecode": "0x6080604052600180546001600160a01b0319163317905534801561002257600080fd5b506001600055610b8e806100376000396000f3fe6080604052600436106100595760003560e01c8063025e7c271461009c57806302d05d3f146100d95780632e1a7d4d146100f957806354e59cec1461011b578063797530b91461014b578063aa6773541461017957600080fd5b3661009757604051348152339030907f6047e5fc9c9d18a0e28e778d1344733e25b1c535c56ed9090b40aba96bc118ee9060200160405180910390a3005b600080fd5b3480156100a857600080fd5b506100bc6100b7366004610890565b610199565b6040516001600160a01b0390911681526020015b60405180910390f35b3480156100e557600080fd5b506001546100bc906001600160a01b031681565b34801561010557600080fd5b50610119610114366004610890565b6101b9565b005b34801561012757600080fd5b5061013b6101363660046108c5565b6102fc565b60405190151581526020016100d0565b34801561015757600080fd5b5061016b61016636600461090e565b610322565b6040516100d0929190610a3c565b34801561018557600080fd5b506101196101943660046108c5565b61055a565b600281600281106101a957600080fd5b01546001600160a01b0316905081565b6101e0600260005b01546001600160a01b03166002600101546001600160a01b03166102fc565b156102065760405162461bcd60e51b81526004016101fd90610a5f565b60405180910390fd5b6002546001600160a01b031633148061022957506003546001600160a01b031633145b6102455760405162461bcd60e51b81526004016101fd90610ab2565b600260005414156102985760405162461bcd60e51b815260206004820152601f60248201527f5265656e7472616e637947756172643a207265656e7472616e742063616c6c0060448201526064016101fd565b6002600055476102ea5760405162461bcd60e51b815260206004820152601a60248201527f4d696e696f6e3a20696e73756666696369656e742066756e647300000000000060448201526064016101fd565b6102f43382610739565b506001600055565b60006001600160a01b038316158061031b57506001600160a01b038216155b9392505050565b600060606103316002836101c1565b1561034e5760405162461bcd60e51b81526004016101fd90610a5f565b6002546001600160a01b031633148061037157506003546001600160a01b031633145b61038d5760405162461bcd60e51b81526004016101fd90610ab2565b600260005414156103e05760405162461bcd60e51b815260206004820152601f60248201527f5265656e7472616e637947756172643a207265656e7472616e742063616c6c0060448201526064016101fd565b6002600055478311156104355760405162461bcd60e51b815260206004820152601c60248201527f4d696e696f6e3a20696e73756666696369656e742062616c616e63650000000060448201526064016101fd565b60005a9050600080886001600160a01b03168688908a6040516104589190610b04565b600060405180830381858888f193505050503d8060008114610496576040519150601f19603f3d011682016040523d82523d6000602084013e61049b565b606091505b509150915060005a6104ad9085610b20565b90506104ef83836040518060400160405280601e81526020017f4d696e696f6e3a20657865637574696e67206f72646572206661696c65640000815250610857565b8051604080516001600160a01b038e1681529115602083018190529082018490529750909550339030907fe804b280aa12cd5093196599c6e208dac4edc6ea9d2e690031382a2bc8468bc39060600160405180910390a3505060016000555091969095509350505050565b61056482826102fc565b156105b15760405162461bcd60e51b815260206004820152601d60248201527f4d696e696f6e3a20696e76616c6964206164647265737320676976656e00000060448201526064016101fd565b6105bd600260006101c1565b6106135760405162461bcd60e51b815260206004820152602160248201527f4d696e696f6e3a206f776e65727320616c7265616479207265676973746572656044820152601960fa1b60648201526084016101fd565b806001600160a01b0316826001600160a01b031614156106815760405162461bcd60e51b815260206004820152602360248201527f4d696e696f6e3a2073616d65206164647265737320666f7220616c6c206f776e60448201526265727360e81b60648201526084016101fd565b6001546001600160a01b03838116911614806106aa57506001546001600160a01b038281169116145b61070b5760405162461bcd60e51b815260206004820152602c60248201527f4d696e696f6e3a20636f6e74726163742063726561746f722073686f756c642060448201526b626520696e206f776e65727360a01b60648201526084016101fd565b600280546001600160a01b039384166001600160a01b03199182161790915560038054929093169116179055565b804710156107895760405162461bcd60e51b815260206004820152601d60248201527f416464726573733a20696e73756666696369656e742062616c616e636500000060448201526064016101fd565b6000826001600160a01b03168260405160006040518083038185875af1925050503d80600081146107d6576040519150601f19603f3d011682016040523d82523d6000602084013e6107db565b606091505b50509050806108525760405162461bcd60e51b815260206004820152603a60248201527f416464726573733a20756e61626c6520746f2073656e642076616c75652c207260448201527f6563697069656e74206d6179206861766520726576657274656400000000000060648201526084016101fd565b505050565b6060831561086657508161031b565b8251156108765782518084602001fd5b8160405162461bcd60e51b81526004016101fd9190610b45565b6000602082840312156108a257600080fd5b5035919050565b80356001600160a01b03811681146108c057600080fd5b919050565b600080604083850312156108d857600080fd5b6108e1836108a9565b91506108ef602084016108a9565b90509250929050565b634e487b7160e01b600052604160045260246000fd5b6000806000806080858703121561092457600080fd5b61092d856108a9565b9350602085013567ffffffffffffffff8082111561094a57600080fd5b818701915087601f83011261095e57600080fd5b813581811115610970576109706108f8565b604051601f8201601f19908116603f01168101908382118183101715610998576109986108f8565b816040528281528a60208487010111156109b157600080fd5b826020860160208301376000928101602001929092525095989597505050506040840135936060013592915050565b60005b838110156109fb5781810151838201526020016109e3565b83811115610a0a576000848401525b50505050565b60008151808452610a288160208601602086016109e0565b601f01601f19169290920160200192915050565b8215158152604060208201526000610a576040830184610a10565b949350505050565b60208082526033908201527f4d696e696f6e3a20636f6e74726163742063616e206e6f742062652075736564604082015272206265666f7265207265676973746572696e6760681b606082015260800190565b60208082526032908201527f4d696e696f6e3a206f6e6c79206f776e65727320616c6c6f77656420746f207060408201527132b93337b936903a3434b99030b1ba34b7b760711b606082015260800190565b60008251610b168184602087016109e0565b9190910192915050565b600082821015610b4057634e487b7160e01b600052601160045260246000fd5b500390565b60208152600061031b6020830184610a1056fea26469706673582212208c35561d6e5115eddb830e99646ba8151b1b7d55aa76e22e664215e3ded432fb64736f6c63430008090033",
  "immutableReferences": {},
  "source": "\n//SPDX-License-Identifier: MIT\npragma solidity 0.8.9;\n\nimport \"@openzeppelin/contracts/security/ReentrancyGuard.sol\";\nimport \"@openzeppelin/contracts/utils/Address.sol\";\nimport \"./IAutomatonMinion.sol\";\n\ncontract AutomatonMinion is IAutomatonMinion, ReentrancyGuard {\n  using Address for address payable;\n\n  address public creator = msg.sender;\n  address[2] public owners;\n\n  event ReceivedFund(address indexed minion, address indexed payer, uint amount);\n  event OrderExecuted(address indexed minion, address indexed invoker, address target, bool result, uint gasLeft);\n\n  modifier onlyOwners() {\n    require(!_addressesAreEmpty(owners[0], owners[1]), 'Minion: contract can not be used before registering');\n    require(owners[0] == msg.sender || owners[1] == msg.sender, 'Minion: only owners allowed to perform this action');\n    _;\n  }\n\n  /**\n   * Checks whether any of the two given addresses are empty\n   */\n  function _addressesAreEmpty(address first, address second) public pure returns (bool) {\n    return first == address(0) || second == address(0);\n  }\n\n  function register(address automaton, address client) external {\n    require(!_addressesAreEmpty(automaton, client), 'Minion: invalid address given');\n    require(_addressesAreEmpty(owners[0], owners[1]), 'Minion: owners already registered');\n    require(automaton != client, 'Minion: same address for all owners');\n    require(automaton == creator || client == creator, 'Minion: contract creator should be in owners');\n\n    owners[0] = automaton;\n    owners[1] = client;\n  }\n\n  fallback() external payable {\n    revert();\n  }\n\n  receive() external payable {\n    emit ReceivedFund(address(this), msg.sender, msg.value);\n  }\n\n  function withdraw(uint amount) external onlyOwners nonReentrant {\n    require(address(this).balance > 0, 'Minion: insufficient funds');\n    payable(msg.sender).sendValue(amount);\n\n  }\n\n  function executeOrder(\n    address target,\n    bytes memory data,\n    uint gas,\n    uint value\n  ) external onlyOwners nonReentrant\n    returns (bool success, bytes memory result) {\n    require(address(this).balance >= value, \"Minion: insufficient balance\");\n\n    uint startGas = gasleft();\n    (bool _success, bytes memory returndata) = payable(target).call{value: value, gas: gas}(data);\n    uint remainingGas = startGas - gasleft();\n\n    result = Address.verifyCallResult(_success, returndata, 'Minion: executing order failed');\n    success = result.length == 0;\n\n    emit OrderExecuted(address(this), msg.sender, target, success, remainingGas);\n  }\n}\n",
  "sourcePath": "/Users/dimitriskyriazopoulos/Development/solid/consesys/blockchain-developer-bootcamp-final-project/solidity/contracts/AutomatonMinion.sol",
  "compiler": {
    "name": "solc",
    "version": "0.8.9+commit.e5eed63a.Emscripten.clang"
  },
  "schemaVersion": "3.4.3",
  "updatedAt": "2021-11-23T02:26:51.791Z",
  "devdoc": {
    "kind": "dev",
    "methods": {},
    "version": 1
  },
  "userdoc": {
    "kind": "user",
    "methods": {
      "_addressesAreEmpty(address,address)": {
        "notice": "Checks whether any of the two given addresses are empty"
      }
    },
    "version": 1
  }
}