{
  "contractName": "BaseFeeContract",
  "abi": [
    {
      "anonymous": false,
      "inputs": [
        {
          "indexed": false,
          "internalType": "uint256",
          "name": "newValue",
          "type": "uint256"
        },
        {
          "indexed": false,
          "internalType": "uint256",
          "name": "prevValue",
          "type": "uint256"
        }
      ],
      "name": "FeeCostChanged",
      "type": "event"
    },
    {
      "anonymous": false,
      "inputs": [
        {
          "indexed": true,
          "internalType": "address",
          "name": "sender",
          "type": "address"
        },
        {
          "indexed": false,
          "internalType": "uint256",
          "name": "amount",
          "type": "uint256"
        }
      ],
      "name": "FundsReceived",
      "type": "event"
    },
    {
      "anonymous": false,
      "inputs": [
        {
          "indexed": true,
          "internalType": "address",
          "name": "previousOwner",
          "type": "address"
        },
        {
          "indexed": true,
          "internalType": "address",
          "name": "newOwner",
          "type": "address"
        }
      ],
      "name": "OwnershipTransferred",
      "type": "event"
    },
    {
      "anonymous": false,
      "inputs": [
        {
          "indexed": false,
          "internalType": "address",
          "name": "account",
          "type": "address"
        }
      ],
      "name": "Paused",
      "type": "event"
    },
    {
      "anonymous": false,
      "inputs": [
        {
          "indexed": false,
          "internalType": "address",
          "name": "account",
          "type": "address"
        }
      ],
      "name": "Unpaused",
      "type": "event"
    },
    {
      "stateMutability": "payable",
      "type": "fallback"
    },
    {
      "inputs": [],
      "name": "fee",
      "outputs": [
        {
          "internalType": "uint256",
          "name": "",
          "type": "uint256"
        }
      ],
      "stateMutability": "view",
      "type": "function"
    },
    {
      "inputs": [],
      "name": "gasOverhead",
      "outputs": [
        {
          "internalType": "uint256",
          "name": "",
          "type": "uint256"
        }
      ],
      "stateMutability": "view",
      "type": "function"
    },
    {
      "inputs": [],
      "name": "owner",
      "outputs": [
        {
          "internalType": "address",
          "name": "",
          "type": "address"
        }
      ],
      "stateMutability": "view",
      "type": "function"
    },
    {
      "inputs": [],
      "name": "paused",
      "outputs": [
        {
          "internalType": "bool",
          "name": "",
          "type": "bool"
        }
      ],
      "stateMutability": "view",
      "type": "function"
    },
    {
      "inputs": [],
      "name": "renounceOwnership",
      "outputs": [],
      "stateMutability": "nonpayable",
      "type": "function"
    },
    {
      "inputs": [
        {
          "internalType": "address",
          "name": "newOwner",
          "type": "address"
        }
      ],
      "name": "transferOwnership",
      "outputs": [],
      "stateMutability": "nonpayable",
      "type": "function"
    },
    {
      "stateMutability": "payable",
      "type": "receive"
    },
    {
      "inputs": [
        {
          "internalType": "uint256",
          "name": "initialFee",
          "type": "uint256"
        }
      ],
      "name": "initialize",
      "outputs": [],
      "stateMutability": "nonpayable",
      "type": "function"
    },
    {
      "inputs": [],
      "name": "pause",
      "outputs": [],
      "stateMutability": "nonpayable",
      "type": "function"
    },
    {
      "inputs": [],
      "name": "unpause",
      "outputs": [],
      "stateMutability": "nonpayable",
      "type": "function"
    },
    {
      "inputs": [
        {
          "internalType": "uint256",
          "name": "newFee",
          "type": "uint256"
        }
      ],
      "name": "changeFeeCost",
      "outputs": [],
      "stateMutability": "nonpayable",
      "type": "function"
    },
    {
      "inputs": [
        {
          "internalType": "uint256",
          "name": "amount",
          "type": "uint256"
        }
      ],
      "name": "withdrawFees",
      "outputs": [],
      "stateMutability": "nonpayable",
      "type": "function"
    }
  ],
  "bytecode": "0x608060405234801561001057600080fd5b5061001a3361002d565b600180556002805460ff1916905561007d565b600080546001600160a01b038381166001600160a01b0319831681178455604051919092169283917f8be0079c531659141344cd1fd0a4f28419497f9722a3daafe3b4186f6b6457e09190a35050565b6108668061008c6000396000f3fe6080604052600436106100a05760003560e01c80638456cb59116100645780638456cb59146101795780638da5cb5b1461018e578063ddca3f43146101b6578063ed945983146101cc578063f2fde38b146101ec578063fe4b84df1461020c57600080fd5b80633f4ba83a146100e15780635c975abb146100f85780635e318e0714610120578063715018a61461014057806383fea4ef1461015557600080fd5b366100dc5760405134815233907f8e47b87b0ef542cdfa1659c551d88bad38aa7f452d2bbb349ab7530dfec8be8f9060200160405180910390a2005b600080fd5b3480156100ed57600080fd5b506100f661022c565b005b34801561010457600080fd5b5060025460ff1660405190151581526020015b60405180910390f35b34801561012c57600080fd5b506100f661013b3660046107b2565b610269565b34801561014c57600080fd5b506100f661039c565b34801561016157600080fd5b5061016b61fb2c81565b604051908152602001610117565b34801561018557600080fd5b506100f66103d0565b34801561019a57600080fd5b506000546040516001600160a01b039091168152602001610117565b3480156101c257600080fd5b5061016b60035481565b3480156101d857600080fd5b506100f66101e73660046107b2565b610402565b3480156101f857600080fd5b506100f66102073660046107cb565b610564565b34801561021857600080fd5b506100f66102273660046107b2565b6105ff565b6000546001600160a01b0316331461025f5760405162461bcd60e51b8152600401610256906107fb565b60405180910390fd5b610267610654565b565b6003546102b35760405162461bcd60e51b815260206004820152601860248201527710985cd95199594e881b9bdd081a5b9a5d1a585b1a5e995960421b6044820152606401610256565b6000546001600160a01b031633146102dd5760405162461bcd60e51b8152600401610256906107fb565b30803182111561032f5760405162461bcd60e51b815260206004820152601a60248201527f426173654665653a20696e737566696369656e742066756e64730000000000006044820152606401610256565b8161036f5760405133906001600160a01b0383163180156108fc02916000818181858888f1935050505015801561036a573d6000803e3d6000fd5b505050565b604051339083156108fc029084906000818181858888f1935050505015801561036a573d6000803e3d6000fd5b6000546001600160a01b031633146103c65760405162461bcd60e51b8152600401610256906107fb565b61026760006106e7565b6000546001600160a01b031633146103fa5760405162461bcd60e51b8152600401610256906107fb565b610267610737565b60035461044c5760405162461bcd60e51b815260206004820152601860248201527710985cd95199594e881b9bdd081a5b9a5d1a585b1a5e995960421b6044820152606401610256565b6000546001600160a01b031633146104765760405162461bcd60e51b8152600401610256906107fb565b60025460ff166104bf5760405162461bcd60e51b815260206004820152601460248201527314185d5cd8589b194e881b9bdd081c185d5cd95960621b6044820152606401610256565b6000811161051f5760405162461bcd60e51b815260206004820152602760248201527f426173654665653a206e657720666565206d757374206265206d6f7265207468604482015266616e207a65726f60c81b6064820152608401610256565b600380549082905560408051838152602081018390527f322db3b249bc1ef9ce998a3f21ae4d5225266d3a4d93e0684c5b128c114091f0910160405180910390a15050565b6000546001600160a01b0316331461058e5760405162461bcd60e51b8152600401610256906107fb565b6001600160a01b0381166105f35760405162461bcd60e51b815260206004820152602660248201527f4f776e61626c653a206e6577206f776e657220697320746865207a65726f206160448201526564647265737360d01b6064820152608401610256565b6105fc816106e7565b50565b6003541561064f5760405162461bcd60e51b815260206004820152601c60248201527f426173654665653a20616c726561647920696e697469616c697a6564000000006044820152606401610256565b600355565b60025460ff1661069d5760405162461bcd60e51b815260206004820152601460248201527314185d5cd8589b194e881b9bdd081c185d5cd95960621b6044820152606401610256565b6002805460ff191690557f5db9ee0a495bf2e6ff9c91a7834c1ba4fdd244a5e8aa4e537bd38aeae4b073aa335b6040516001600160a01b03909116815260200160405180910390a1565b600080546001600160a01b038381166001600160a01b0319831681178455604051919092169283917f8be0079c531659141344cd1fd0a4f28419497f9722a3daafe3b4186f6b6457e09190a35050565b60025460ff161561077d5760405162461bcd60e51b815260206004820152601060248201526f14185d5cd8589b194e881c185d5cd95960821b6044820152606401610256565b6002805460ff191660011790557f62e78cea01bee320cd4e420270b5ea74000d11b0c9f74754ebdbfc544b05a2586106ca3390565b6000602082840312156107c457600080fd5b5035919050565b6000602082840312156107dd57600080fd5b81356001600160a01b03811681146107f457600080fd5b9392505050565b6020808252818101527f4f776e61626c653a2063616c6c6572206973206e6f7420746865206f776e657260408201526060019056fea2646970667358221220a7be6e4229330f375acc59bf968183530bbc0a046690241f1be52ac9d983a82d64736f6c63430008090033",
  "immutableReferences": {},
  "source": "//SPDX-License-Identifier: MIT\npragma solidity 0.8.9;\n\nimport '@openzeppelin/contracts/utils/math/SafeMath.sol';\nimport '@openzeppelin/contracts/utils/Address.sol';\nimport '@openzeppelin/contracts/access/Ownable.sol';\nimport '@openzeppelin/contracts/security/ReentrancyGuard.sol';\nimport '@openzeppelin/contracts/security/Pausable.sol';\n\ncontract BaseFeeContract is Ownable, ReentrancyGuard, Pausable {\n  using SafeMath for uint256;\n  using Address for address payable;\n\n  ///  === === === === === State === === === === === ===\n\n  /**\n   * Service fee\n   */\n  uint256 public fee;\n\n  /**\n   * Stipend gas of 2300 + 2x Transfer gas of 21000.\n   * This gas gets allocated in order to call the minion once the condition has been met\n   * This call alone costs 21000 intrinsic gas + ~1500 gas for emmiting an event once the\n   * automation fullfiled.\n   * The rest goes to refund the chainlink keeper for calling (21000) Automaton plus changes\n   * (20000~) in the state of automation once executed.\n   */\n  uint256 public constant gasOverhead = 21000 + 21000 + 20000 + 2300;\n\n\n  ///  === === === === === Events === === === === === ===\n\n  event FeeCostChanged(uint256 newValue, uint256 prevValue);\n  event FundsReceived(address indexed sender, uint256 amount);\n\n\n  ///  === === === === === Modifiers === === === === === ===\n  modifier whenInitialized() {\n    require(fee != 0, 'BaseFee: not initialized');\n    _;\n  }\n\n\n  ///  === === === === === Function === === === === === ===\n  function initialize(uint initialFee) public {\n    require(fee == 0, 'BaseFee: already initialized');\n    fee = initialFee ; //150 gwei\n  }\n\n  fallback() external payable {\n    revert();\n  }\n\n  receive() external payable {\n    emit FundsReceived(msg.sender, msg.value);\n  }\n\n  function pause() public onlyOwner {\n    super._pause();\n  }\n\n  function unpause() public onlyOwner {\n    super._unpause();\n  }\n\n  /*\n   * Used only when contract is paused by the owner of Automaton\n   */\n  function changeFeeCost(uint256 newFee) public whenInitialized onlyOwner whenPaused  {\n    require(newFee > 0, 'BaseFee: new fee must be more than zero');\n    uint256 previousFee = fee;\n    fee = newFee;\n\n    emit FeeCostChanged(newFee, previousFee);\n  }\n\n  function _chargeFeeAndSendRest(uint256 amount, address payable recipient) internal whenInitialized whenNotPaused {\n    address self = address(this);\n    require(recipient != address(0), 'BaseFee: invalid recipient address');\n    require(recipient != self, 'BaseFee: same address on both ends');\n    require(amount >= 0, 'BaseFee: invalid amount value');\n    require(msg.value >= amount.add(fee), 'BaseFee: not enough ether send to cover fee cost');\n    if (amount > 0) {\n      uint256 startBalance = self.balance;\n      Address.sendValue(recipient, amount);\n      assert(self.balance >= startBalance - amount);\n    }\n  }\n\n  function _calculateUsableGasFromAmount(uint256 gasPrice, uint256 sendAmount)\n    internal\n    view\n    whenInitialized\n    returns (uint256 carriedGas)\n  {\n    require(msg.value > 0, 'BaseFee: insufficient funds');\n    require(gasPrice > 0, 'BaseFee: invalid gas price');\n\n    uint carriedGasCost = msg.value.sub(fee).sub(sendAmount); \n    carriedGas = carriedGasCost.div(gasPrice).sub(gasOverhead);\n\n    require(carriedGas > 0, 'BaseFee: insufficient gas');\n  }\n\n  function withdrawFees(uint256 amount) public whenInitialized onlyOwner {\n    address self = address(this);\n    require(amount <= self.balance, 'BaseFee: insuficient funds');\n\n    if (amount == 0) {\n      payable(msg.sender).transfer(self.balance);\n    } else {\n      payable(msg.sender).transfer(amount);\n    }\n  }\n}\n",
  "sourcePath": "/Users/dimitriskyriazopoulos/Development/solid/blockchain-developer-bootcamp-final-project/solidity/contracts/BaseFeeContract.sol",
  "compiler": {
    "name": "solc",
    "version": "0.8.9+commit.e5eed63a.Emscripten.clang"
  },
  "schemaVersion": "3.4.3",
  "updatedAt": "2022-01-17T03:00:15.593Z",
  "devdoc": {
    "kind": "dev",
    "methods": {
      "owner()": {
        "details": "Returns the address of the current owner."
      },
      "paused()": {
        "details": "Returns true if the contract is paused, and false otherwise."
      },
      "renounceOwnership()": {
        "details": "Leaves the contract without owner. It will not be possible to call `onlyOwner` functions anymore. Can only be called by the current owner. NOTE: Renouncing ownership will leave the contract without an owner, thereby removing any functionality that is only available to the owner."
      },
      "transferOwnership(address)": {
        "details": "Transfers ownership of the contract to a new account (`newOwner`). Can only be called by the current owner."
      }
    },
    "version": 1
  },
  "userdoc": {
    "events": {
      "FeeCostChanged(uint256,uint256)": {
        "notice": "=== === === === === Events === === === === === ==="
      }
    },
    "kind": "user",
    "methods": {
      "fee()": {
        "notice": "Service fee"
      },
      "gasOverhead()": {
        "notice": "Stipend gas of 2300 + 2x Transfer gas of 21000. This gas gets allocated in order to call the minion once the condition has been met This call alone costs 21000 intrinsic gas + ~1500 gas for emmiting an event once the automation fullfiled. The rest goes to refund the chainlink keeper for calling (21000) Automaton plus changes (20000~) in the state of automation once executed."
      },
      "initialize(uint256)": {
        "notice": "=== === === === === Function === === === === === ==="
      }
    },
    "version": 1
  }
}