{
  "contractName": "MinionFactory",
  "abi": [
    {
      "inputs": [
        {
          "internalType": "address",
          "name": "owner",
          "type": "address"
        }
      ],
      "name": "spawn",
      "outputs": [
        {
          "internalType": "address",
          "name": "minion",
          "type": "address"
        }
      ],
      "stateMutability": "nonpayable",
      "type": "function"
    }
  ],
  "bytecode": "0x608060405234801561001057600080fd5b50610e28806100206000396000f3fe608060405234801561001057600080fd5b506004361061002b5760003560e01c8063c63300a514610030575b600080fd5b61004361003e366004610129565b61005f565b6040516001600160a01b03909116815260200160405180910390f35b60006001600160a01b03821661007457600080fd5b6000336040516100839061011c565b6001600160a01b039091168152602001604051809103906000f0801580156100af573d6000803e3d6000fd5b50604051632a99dcd560e21b81526001600160a01b0385811660048301523360248301529192509082169063aa67735490604401600060405180830381600087803b1580156100fd57600080fd5b505af1158015610111573d6000803e3d6000fd5b509295945050505050565b610c998061015a83390190565b60006020828403121561013b57600080fd5b81356001600160a01b038116811461015257600080fd5b939250505056fe60a060405234801561001057600080fd5b50604051610c99380380610c9983398101604081905261002f91610058565b60016000556001600160a01b03811661004757600080fd5b6001600160a01b0316608052610088565b60006020828403121561006a57600080fd5b81516001600160a01b038116811461008157600080fd5b9392505050565b608051610be96100b06000396000818160eb0152818161069601526106d10152610be96000f3fe6080604052600436106100595760003560e01c8063025e7c271461009c57806302d05d3f146100d95780632e1a7d4d1461010d57806354e59cec1461012f578063797530b91461015f578063aa6773541461018d57600080fd5b3661009757604051348152339030907f6047e5fc9c9d18a0e28e778d1344733e25b1c535c56ed9090b40aba96bc118ee9060200160405180910390a3005b600080fd5b3480156100a857600080fd5b506100bc6100b73660046108eb565b6101ad565b6040516001600160a01b0390911681526020015b60405180910390f35b3480156100e557600080fd5b506100bc7f000000000000000000000000000000000000000000000000000000000000000081565b34801561011957600080fd5b5061012d6101283660046108eb565b6101cd565b005b34801561013b57600080fd5b5061014f61014a366004610920565b61030f565b60405190151581526020016100d0565b34801561016b57600080fd5b5061017f61017a366004610969565b610335565b6040516100d0929190610a97565b34801561019957600080fd5b5061012d6101a8366004610920565b61056d565b600181600281106101bd57600080fd5b01546001600160a01b0316905081565b6101f3600160005b01546001600160a01b031660018001546001600160a01b031661030f565b156102195760405162461bcd60e51b815260040161021090610aba565b60405180910390fd5b6001546001600160a01b031633148061023c57506002546001600160a01b031633145b6102585760405162461bcd60e51b815260040161021090610b0d565b600260005414156102ab5760405162461bcd60e51b815260206004820152601f60248201527f5265656e7472616e637947756172643a207265656e7472616e742063616c6c006044820152606401610210565b6002600055476102fd5760405162461bcd60e51b815260206004820152601a60248201527f4d696e696f6e3a20696e73756666696369656e742066756e64730000000000006044820152606401610210565b6103073382610794565b506001600055565b60006001600160a01b038316158061032e57506001600160a01b038216155b9392505050565b600060606103446001836101d5565b156103615760405162461bcd60e51b815260040161021090610aba565b6001546001600160a01b031633148061038457506002546001600160a01b031633145b6103a05760405162461bcd60e51b815260040161021090610b0d565b600260005414156103f35760405162461bcd60e51b815260206004820152601f60248201527f5265656e7472616e637947756172643a207265656e7472616e742063616c6c006044820152606401610210565b6002600055478311156104485760405162461bcd60e51b815260206004820152601c60248201527f4d696e696f6e3a20696e73756666696369656e742062616c616e6365000000006044820152606401610210565b60005a9050600080886001600160a01b03168688908a60405161046b9190610b5f565b600060405180830381858888f193505050503d80600081146104a9576040519150601f19603f3d011682016040523d82523d6000602084013e6104ae565b606091505b509150915060005a6104c09085610b7b565b905061050283836040518060400160405280601e81526020017f4d696e696f6e3a20657865637574696e67206f72646572206661696c656400008152506108b2565b8051604080516001600160a01b038e1681529115602083018190529082018490529750909550339030907fe804b280aa12cd5093196599c6e208dac4edc6ea9d2e690031382a2bc8468bc39060600160405180910390a3505060016000555091969095509350505050565b610577828261030f565b156105c45760405162461bcd60e51b815260206004820152601d60248201527f4d696e696f6e3a20696e76616c6964206164647265737320676976656e0000006044820152606401610210565b6105d0600160006101d5565b6106265760405162461bcd60e51b815260206004820152602160248201527f4d696e696f6e3a206f776e65727320616c7265616479207265676973746572656044820152601960fa1b6064820152608401610210565b806001600160a01b0316826001600160a01b031614156106945760405162461bcd60e51b815260206004820152602360248201527f4d696e696f6e3a2073616d65206164647265737320666f7220616c6c206f776e60448201526265727360e81b6064820152608401610210565b7f00000000000000000000000000000000000000000000000000000000000000006001600160a01b0316826001600160a01b0316148061070557507f00000000000000000000000000000000000000000000000000000000000000006001600160a01b0316816001600160a01b0316145b6107665760405162461bcd60e51b815260206004820152602c60248201527f4d696e696f6e3a20636f6e74726163742063726561746f722073686f756c642060448201526b626520696e206f776e65727360a01b6064820152608401610210565b600180546001600160a01b039384166001600160a01b03199182161790915560028054929093169116179055565b804710156107e45760405162461bcd60e51b815260206004820152601d60248201527f416464726573733a20696e73756666696369656e742062616c616e63650000006044820152606401610210565b6000826001600160a01b03168260405160006040518083038185875af1925050503d8060008114610831576040519150601f19603f3d011682016040523d82523d6000602084013e610836565b606091505b50509050806108ad5760405162461bcd60e51b815260206004820152603a60248201527f416464726573733a20756e61626c6520746f2073656e642076616c75652c207260448201527f6563697069656e74206d617920686176652072657665727465640000000000006064820152608401610210565b505050565b606083156108c157508161032e565b8251156108d15782518084602001fd5b8160405162461bcd60e51b81526004016102109190610ba0565b6000602082840312156108fd57600080fd5b5035919050565b80356001600160a01b038116811461091b57600080fd5b919050565b6000806040838503121561093357600080fd5b61093c83610904565b915061094a60208401610904565b90509250929050565b634e487b7160e01b600052604160045260246000fd5b6000806000806080858703121561097f57600080fd5b61098885610904565b9350602085013567ffffffffffffffff808211156109a557600080fd5b818701915087601f8301126109b957600080fd5b8135818111156109cb576109cb610953565b604051601f8201601f19908116603f011681019083821181831017156109f3576109f3610953565b816040528281528a6020848701011115610a0c57600080fd5b826020860160208301376000928101602001929092525095989597505050506040840135936060013592915050565b60005b83811015610a56578181015183820152602001610a3e565b83811115610a65576000848401525b50505050565b60008151808452610a83816020860160208601610a3b565b601f01601f19169290920160200192915050565b8215158152604060208201526000610ab26040830184610a6b565b949350505050565b60208082526033908201527f4d696e696f6e3a20636f6e74726163742063616e206e6f742062652075736564604082015272206265666f7265207265676973746572696e6760681b606082015260800190565b60208082526032908201527f4d696e696f6e3a206f6e6c79206f776e65727320616c6c6f77656420746f207060408201527132b93337b936903a3434b99030b1ba34b7b760711b606082015260800190565b60008251610b71818460208701610a3b565b9190910192915050565b600082821015610b9b57634e487b7160e01b600052601160045260246000fd5b500390565b60208152600061032e6020830184610a6b56fea26469706673582212202a5d14d1bbe92d393fb4f4be872c90ae370c1bbbf099548f38ecb450736d314564736f6c63430008090033a2646970667358221220cee077719307167f3184611bf6ceec17ee0129424641b7363eddf49ce6a698ff64736f6c63430008090033",
  "immutableReferences": {},
  "source": "//SPDX-License-Identifier: MIT\npragma solidity 0.8.9;\n\nimport './Minion.sol';\nimport './interfaces/IMinionFactory.sol';\n\ncontract MinionFactory is IMinionFactory {\n  /**\n   * Deploys a new minion contract for the given owner.\n   * Passes msg.sender as the creator and the co-owner of the minion\n   * @param owner - The address of the real owner of the contract\n   * @return minion - The address of the newly deployed minion contract\n   */\n  function spawn(address owner) public returns (address minion) {\n      require(owner != address(0));\n      Minion _minion = new Minion(msg.sender);\n      _minion.register(owner, msg.sender);\n      minion = address(_minion);\n  }\n}\n",
  "sourcePath": "/Users/dimitriskyriazopoulos/Development/solid/blockchain-developer-bootcamp-final-project/solidity/contracts/MinionFactory.sol",
  "compiler": {
    "name": "solc",
    "version": "0.8.9+commit.e5eed63a.Emscripten.clang"
  },
  "schemaVersion": "3.4.3",
  "updatedAt": "2022-01-17T03:49:16.102Z",
  "networkType": "ethereum",
  "devdoc": {
    "kind": "dev",
    "methods": {
      "spawn(address)": {
        "params": {
          "owner": "- The address of the real owner of the contract"
        },
        "returns": {
          "minion": "- The address of the newly deployed minion contract"
        }
      }
    },
    "version": 1
  },
  "userdoc": {
    "kind": "user",
    "methods": {
      "spawn(address)": {
        "notice": "Deploys a new minion contract for the given owner. Passes msg.sender as the creator and the co-owner of the minion"
      }
    },
    "version": 1
  }
}