{
  "contractName": "PublicBaseFeeContract",
  "abi": [
    {
      "anonymous": false,
      "inputs": [
        {
          "indexed": false,
          "internalType": "uint256",
          "name": "newValue",
          "type": "uint256"
        },
        {
          "indexed": false,
          "internalType": "uint256",
          "name": "prevValue",
          "type": "uint256"
        }
      ],
      "name": "FeeCostChanged",
      "type": "event"
    },
    {
      "anonymous": false,
      "inputs": [
        {
          "indexed": true,
          "internalType": "address",
          "name": "sender",
          "type": "address"
        },
        {
          "indexed": false,
          "internalType": "uint256",
          "name": "amount",
          "type": "uint256"
        }
      ],
      "name": "FundsReceived",
      "type": "event"
    },
    {
      "anonymous": false,
      "inputs": [
        {
          "indexed": true,
          "internalType": "address",
          "name": "previousOwner",
          "type": "address"
        },
        {
          "indexed": true,
          "internalType": "address",
          "name": "newOwner",
          "type": "address"
        }
      ],
      "name": "OwnershipTransferred",
      "type": "event"
    },
    {
      "anonymous": false,
      "inputs": [
        {
          "indexed": false,
          "internalType": "address",
          "name": "account",
          "type": "address"
        }
      ],
      "name": "Paused",
      "type": "event"
    },
    {
      "anonymous": false,
      "inputs": [
        {
          "indexed": false,
          "internalType": "address",
          "name": "account",
          "type": "address"
        }
      ],
      "name": "Unpaused",
      "type": "event"
    },
    {
      "stateMutability": "payable",
      "type": "fallback"
    },
    {
      "inputs": [
        {
          "internalType": "uint256",
          "name": "newFee",
          "type": "uint256"
        }
      ],
      "name": "changeFeeCost",
      "outputs": [],
      "stateMutability": "nonpayable",
      "type": "function"
    },
    {
      "inputs": [],
      "name": "fee",
      "outputs": [
        {
          "internalType": "uint256",
          "name": "",
          "type": "uint256"
        }
      ],
      "stateMutability": "view",
      "type": "function"
    },
    {
      "inputs": [],
      "name": "gasOverhead",
      "outputs": [
        {
          "internalType": "uint256",
          "name": "",
          "type": "uint256"
        }
      ],
      "stateMutability": "view",
      "type": "function"
    },
    {
      "inputs": [
        {
          "internalType": "uint256",
          "name": "initialFee",
          "type": "uint256"
        }
      ],
      "name": "initialize",
      "outputs": [],
      "stateMutability": "nonpayable",
      "type": "function"
    },
    {
      "inputs": [],
      "name": "owner",
      "outputs": [
        {
          "internalType": "address",
          "name": "",
          "type": "address"
        }
      ],
      "stateMutability": "view",
      "type": "function"
    },
    {
      "inputs": [],
      "name": "pause",
      "outputs": [],
      "stateMutability": "nonpayable",
      "type": "function"
    },
    {
      "inputs": [],
      "name": "paused",
      "outputs": [
        {
          "internalType": "bool",
          "name": "",
          "type": "bool"
        }
      ],
      "stateMutability": "view",
      "type": "function"
    },
    {
      "inputs": [],
      "name": "renounceOwnership",
      "outputs": [],
      "stateMutability": "nonpayable",
      "type": "function"
    },
    {
      "inputs": [
        {
          "internalType": "address",
          "name": "newOwner",
          "type": "address"
        }
      ],
      "name": "transferOwnership",
      "outputs": [],
      "stateMutability": "nonpayable",
      "type": "function"
    },
    {
      "inputs": [],
      "name": "unpause",
      "outputs": [],
      "stateMutability": "nonpayable",
      "type": "function"
    },
    {
      "inputs": [
        {
          "internalType": "uint256",
          "name": "amount",
          "type": "uint256"
        }
      ],
      "name": "withdrawFees",
      "outputs": [],
      "stateMutability": "nonpayable",
      "type": "function"
    },
    {
      "stateMutability": "payable",
      "type": "receive"
    },
    {
      "inputs": [
        {
          "internalType": "uint256",
          "name": "amount",
          "type": "uint256"
        },
        {
          "internalType": "address payable",
          "name": "receiver",
          "type": "address"
        }
      ],
      "name": "chargeFeeAndSendRest",
      "outputs": [],
      "stateMutability": "payable",
      "type": "function"
    },
    {
      "inputs": [
        {
          "internalType": "uint256",
          "name": "gasPrice",
          "type": "uint256"
        },
        {
          "internalType": "uint256",
          "name": "sendAmount",
          "type": "uint256"
        }
      ],
      "name": "calculateUsableGasFromAmount",
      "outputs": [
        {
          "internalType": "uint256",
          "name": "carriedGas",
          "type": "uint256"
        }
      ],
      "stateMutability": "view",
      "type": "function"
    }
  ],
  "bytecode": "0x608060405234801561001057600080fd5b5061001a3361002d565b600180556002805460ff1916905561007d565b600080546001600160a01b038381166001600160a01b0319831681178455604051919092169283917f8be0079c531659141344cd1fd0a4f28419497f9722a3daafe3b4186f6b6457e09190a35050565b610e0e8061008c6000396000f3fe6080604052600436106100c65760003560e01c80638456cb591161007f578063ddca3f4311610059578063ddca3f431461020f578063ed94598314610225578063f2fde38b14610245578063fe4b84df1461026557600080fd5b80638456cb59146101b25780638da5cb5b146101c7578063bf131f67146101ef57600080fd5b80630305111a146101075780633f4ba83a1461011c5780635c975abb146101315780635e318e0714610159578063715018a61461017957806383fea4ef1461018e57600080fd5b366101025760405134815233907f8e47b87b0ef542cdfa1659c551d88bad38aa7f452d2bbb349ab7530dfec8be8f9060200160405180910390a2005b600080fd5b61011a610115366004610c67565b610285565b005b34801561012857600080fd5b5061011a610293565b34801561013d57600080fd5b5060025460ff1660405190151581526020015b60405180910390f35b34801561016557600080fd5b5061011a610174366004610c97565b6102d0565b34801561018557600080fd5b5061011a6103d8565b34801561019a57600080fd5b506101a461fb2c81565b604051908152602001610150565b3480156101be57600080fd5b5061011a61040c565b3480156101d357600080fd5b506000546040516001600160a01b039091168152602001610150565b3480156101fb57600080fd5b506101a461020a366004610cb0565b61043e565b34801561021b57600080fd5b506101a460035481565b34801561023157600080fd5b5061011a610240366004610c97565b610451565b34801561025157600080fd5b5061011a610260366004610cd2565b610588565b34801561027157600080fd5b5061011a610280366004610c97565b610623565b61028f8282610678565b5050565b6000546001600160a01b031633146102c65760405162461bcd60e51b81526004016102bd90610cef565b60405180910390fd5b6102ce610866565b565b6003546102ef5760405162461bcd60e51b81526004016102bd90610d24565b6000546001600160a01b031633146103195760405162461bcd60e51b81526004016102bd90610cef565b30803182111561036b5760405162461bcd60e51b815260206004820152601a60248201527f426173654665653a20696e737566696369656e742066756e647300000000000060448201526064016102bd565b816103ab5760405133906001600160a01b0383163180156108fc02916000818181858888f193505050501580156103a6573d6000803e3d6000fd5b505050565b604051339083156108fc029084906000818181858888f193505050501580156103a6573d6000803e3d6000fd5b6000546001600160a01b031633146104025760405162461bcd60e51b81526004016102bd90610cef565b6102ce60006108f9565b6000546001600160a01b031633146104365760405162461bcd60e51b81526004016102bd90610cef565b6102ce610949565b600061044a83836109c4565b9392505050565b6003546104705760405162461bcd60e51b81526004016102bd90610d24565b6000546001600160a01b0316331461049a5760405162461bcd60e51b81526004016102bd90610cef565b60025460ff166104e35760405162461bcd60e51b815260206004820152601460248201527314185d5cd8589b194e881b9bdd081c185d5cd95960621b60448201526064016102bd565b600081116105435760405162461bcd60e51b815260206004820152602760248201527f426173654665653a206e657720666565206d757374206265206d6f7265207468604482015266616e207a65726f60c81b60648201526084016102bd565b600380549082905560408051838152602081018390527f322db3b249bc1ef9ce998a3f21ae4d5225266d3a4d93e0684c5b128c114091f0910160405180910390a15050565b6000546001600160a01b031633146105b25760405162461bcd60e51b81526004016102bd90610cef565b6001600160a01b0381166106175760405162461bcd60e51b815260206004820152602660248201527f4f776e61626c653a206e6577206f776e657220697320746865207a65726f206160448201526564647265737360d01b60648201526084016102bd565b610620816108f9565b50565b600354156106735760405162461bcd60e51b815260206004820152601c60248201527f426173654665653a20616c726561647920696e697469616c697a65640000000060448201526064016102bd565b600355565b6003546106975760405162461bcd60e51b81526004016102bd90610d24565b60025460ff16156106dd5760405162461bcd60e51b815260206004820152601060248201526f14185d5cd8589b194e881c185d5cd95960821b60448201526064016102bd565b306001600160a01b03821661073f5760405162461bcd60e51b815260206004820152602260248201527f426173654665653a20696e76616c696420726563697069656e74206164647265604482015261737360f01b60648201526084016102bd565b806001600160a01b0316826001600160a01b031614156107ac5760405162461bcd60e51b815260206004820152602260248201527f426173654665653a2073616d652061646472657373206f6e20626f746820656e604482015261647360f01b60648201526084016102bd565b6003546107ba908490610b15565b3410156108225760405162461bcd60e51b815260206004820152603060248201527f426173654665653a206e6f7420656e6f7567682065746865722073656e64207460448201526f1bc818dbdd995c881999594818dbdcdd60821b60648201526084016102bd565b82156103a6576001600160a01b0381163161083d8385610b21565b6108478482610d71565b826001600160a01b031631101561086057610860610d88565b50505050565b60025460ff166108af5760405162461bcd60e51b815260206004820152601460248201527314185d5cd8589b194e881b9bdd081c185d5cd95960621b60448201526064016102bd565b6002805460ff191690557f5db9ee0a495bf2e6ff9c91a7834c1ba4fdd244a5e8aa4e537bd38aeae4b073aa335b6040516001600160a01b03909116815260200160405180910390a1565b600080546001600160a01b038381166001600160a01b0319831681178455604051919092169283917f8be0079c531659141344cd1fd0a4f28419497f9722a3daafe3b4186f6b6457e09190a35050565b60025460ff161561098f5760405162461bcd60e51b815260206004820152601060248201526f14185d5cd8589b194e881c185d5cd95960821b60448201526064016102bd565b6002805460ff191660011790557f62e78cea01bee320cd4e420270b5ea74000d11b0c9f74754ebdbfc544b05a2586108dc3390565b6000600354600014156109e95760405162461bcd60e51b81526004016102bd90610d24565b60003411610a395760405162461bcd60e51b815260206004820152601b60248201527f426173654665653a20696e73756666696369656e742066756e6473000000000060448201526064016102bd565b60008311610a895760405162461bcd60e51b815260206004820152601a60248201527f426173654665653a20696e76616c69642067617320707269636500000000000060448201526064016102bd565b6000610aaa83610aa460035434610c3a90919063ffffffff16565b90610c3a565b9050610abc61fb2c610aa48387610c46565b915060008211610b0e5760405162461bcd60e51b815260206004820152601960248201527f426173654665653a20696e73756666696369656e74206761730000000000000060448201526064016102bd565b5092915050565b600061044a8284610d9e565b80471015610b715760405162461bcd60e51b815260206004820152601d60248201527f416464726573733a20696e73756666696369656e742062616c616e636500000060448201526064016102bd565b6000826001600160a01b03168260405160006040518083038185875af1925050503d8060008114610bbe576040519150601f19603f3d011682016040523d82523d6000602084013e610bc3565b606091505b50509050806103a65760405162461bcd60e51b815260206004820152603a60248201527f416464726573733a20756e61626c6520746f2073656e642076616c75652c207260448201527f6563697069656e74206d6179206861766520726576657274656400000000000060648201526084016102bd565b600061044a8284610d71565b600061044a8284610db6565b6001600160a01b038116811461062057600080fd5b60008060408385031215610c7a57600080fd5b823591506020830135610c8c81610c52565b809150509250929050565b600060208284031215610ca957600080fd5b5035919050565b60008060408385031215610cc357600080fd5b50508035926020909101359150565b600060208284031215610ce457600080fd5b813561044a81610c52565b6020808252818101527f4f776e61626c653a2063616c6c6572206973206e6f7420746865206f776e6572604082015260600190565b60208082526018908201527f426173654665653a206e6f7420696e697469616c697a65640000000000000000604082015260600190565b634e487b7160e01b600052601160045260246000fd5b600082821015610d8357610d83610d5b565b500390565b634e487b7160e01b600052600160045260246000fd5b60008219821115610db157610db1610d5b565b500190565b600082610dd357634e487b7160e01b600052601260045260246000fd5b50049056fea2646970667358221220f4b2882e26ea619aeeb1fca3b0b13ada78920d6d19a0c05e3c6f5bdbae6e532f64736f6c63430008090033",
  "immutableReferences": {},
  "source": "//SPDX-License-Identifier: MIT\npragma solidity 0.8.9;\n\nimport '../BaseFeeContract.sol';\n\ncontract PublicBaseFeeContract is BaseFeeContract {\n  function chargeFeeAndSendRest(uint256 amount, address payable receiver)\n    public\n    payable\n  {\n    _chargeFeeAndSendRest(amount, receiver);\n  }\n\n  function calculateUsableGasFromAmount(uint256 gasPrice, uint256 sendAmount)\n    public\n    view\n    returns (uint256 carriedGas)\n  {\n    carriedGas = _calculateUsableGasFromAmount(gasPrice, sendAmount);\n  }\n}\n",
  "sourcePath": "/Users/dimitriskyriazopoulos/Development/solid/blockchain-developer-bootcamp-final-project/solidity/contracts/test-helpers/PublicBaseFeeContract.sol",
  "compiler": {
    "name": "solc",
    "version": "0.8.9+commit.e5eed63a.Emscripten.clang"
  },
  "schemaVersion": "3.4.3",
  "updatedAt": "2022-01-17T03:00:15.596Z",
  "devdoc": {
    "kind": "dev",
    "methods": {
      "owner()": {
        "details": "Returns the address of the current owner."
      },
      "paused()": {
        "details": "Returns true if the contract is paused, and false otherwise."
      },
      "renounceOwnership()": {
        "details": "Leaves the contract without owner. It will not be possible to call `onlyOwner` functions anymore. Can only be called by the current owner. NOTE: Renouncing ownership will leave the contract without an owner, thereby removing any functionality that is only available to the owner."
      },
      "transferOwnership(address)": {
        "details": "Transfers ownership of the contract to a new account (`newOwner`). Can only be called by the current owner."
      }
    },
    "version": 1
  },
  "userdoc": {
    "events": {
      "FeeCostChanged(uint256,uint256)": {
        "notice": "=== === === === === Events === === === === === ==="
      }
    },
    "kind": "user",
    "methods": {
      "fee()": {
        "notice": "Service fee"
      },
      "gasOverhead()": {
        "notice": "Stipend gas of 2300 + 2x Transfer gas of 21000. This gas gets allocated in order to call the minion once the condition has been met This call alone costs 21000 intrinsic gas + ~1500 gas for emmiting an event once the automation fullfiled. The rest goes to refund the chainlink keeper for calling (21000) Automaton plus changes (20000~) in the state of automation once executed."
      },
      "initialize(uint256)": {
        "notice": "=== === === === === Function === === === === === ==="
      }
    },
    "version": 1
  }
}