{
  "contractName": "SimpleStorage",
  "abi": [
    {
      "inputs": [],
      "name": "storedData",
      "outputs": [
        {
          "internalType": "uint256",
          "name": "",
          "type": "uint256"
        }
      ],
      "stateMutability": "view",
      "type": "function"
    },
    {
      "inputs": [
        {
          "internalType": "uint256",
          "name": "x",
          "type": "uint256"
        }
      ],
      "name": "set",
      "outputs": [],
      "stateMutability": "nonpayable",
      "type": "function"
    },
    {
      "inputs": [
        {
          "internalType": "uint256",
          "name": "x",
          "type": "uint256"
        }
      ],
      "name": "pay",
      "outputs": [],
      "stateMutability": "payable",
      "type": "function"
    },
    {
      "inputs": [],
      "name": "get",
      "outputs": [
        {
          "internalType": "uint256",
          "name": "",
          "type": "uint256"
        }
      ],
      "stateMutability": "view",
      "type": "function"
    }
  ],
  "bytecode": "0x608060405234801561001057600080fd5b506101ca806100206000396000f3fe60806040526004361061003f5760003560e01c80632a1afcd91461004457806360fe47b11461006f5780636d4ce63c14610098578063c290d691146100c3575b600080fd5b34801561005057600080fd5b506100596100df565b604051610066919061011b565b60405180910390f35b34801561007b57600080fd5b5061009660048036038101906100919190610167565b6100e5565b005b3480156100a457600080fd5b506100ad6100ef565b6040516100ba919061011b565b60405180910390f35b6100dd60048036038101906100d89190610167565b6100f8565b005b60005481565b8060008190555050565b60008054905090565b8060008190555050565b6000819050919050565b61011581610102565b82525050565b6000602082019050610130600083018461010c565b92915050565b600080fd5b61014481610102565b811461014f57600080fd5b50565b6000813590506101618161013b565b92915050565b60006020828403121561017d5761017c610136565b5b600061018b84828501610152565b9150509291505056fea26469706673582212202becba9725fd6686abb57a9c6e735d091a550cc7f9c389ad1fe1226bc5fc0a7f64736f6c63430008090033",
  "immutableReferences": {},
  "source": "//SPDX-License-Identifier: MIT\npragma solidity 0.8.9;\n\ncontract SimpleStorage {\n  uint public storedData;\n\n  function set(uint x) public {\n    storedData = x;\n  }\n\n  function pay(uint x) public payable {\n    storedData = x;\n  }\n\n  function get() public view returns (uint) {\n    return storedData;\n  }\n}",
  "sourcePath": "/Users/dimitriskyriazopoulos/Development/solid/consesys/blockchain-developer-bootcamp-final-project/solidity/contracts/SimpleStorage.sol",
  "compiler": {
    "name": "solc",
    "version": "0.8.9+commit.e5eed63a.Emscripten.clang"
  },
  "schemaVersion": "3.4.3",
  "updatedAt": "2021-11-16T23:35:32.151Z",
  "devdoc": {
    "kind": "dev",
    "methods": {},
    "version": 1
  },
  "userdoc": {
    "kind": "user",
    "methods": {},
    "version": 1
  }
}