{
  "contractName": "SimpleStorage",
  "abi": [
    {
      "inputs": [],
      "name": "storedData",
      "outputs": [
        {
          "internalType": "uint256",
          "name": "",
          "type": "uint256"
        }
      ],
      "stateMutability": "view",
      "type": "function"
    },
    {
      "inputs": [
        {
          "internalType": "uint256",
          "name": "x",
          "type": "uint256"
        }
      ],
      "name": "set",
      "outputs": [],
      "stateMutability": "nonpayable",
      "type": "function"
    },
    {
      "inputs": [
        {
          "internalType": "uint256",
          "name": "x",
          "type": "uint256"
        }
      ],
      "name": "pay",
      "outputs": [],
      "stateMutability": "payable",
      "type": "function"
    },
    {
      "inputs": [],
      "name": "get",
      "outputs": [
        {
          "internalType": "uint256",
          "name": "",
          "type": "uint256"
        }
      ],
      "stateMutability": "view",
      "type": "function"
    }
  ],
  "bytecode": "0x608060405234801561001057600080fd5b5060ec8061001f6000396000f3fe608060405260043610603a5760003560e01c80632a1afcd914603f57806360fe47b11460655780636d4ce63c146083578063c290d691146096575b600080fd5b348015604a57600080fd5b50605360005481565b60405190815260200160405180910390f35b348015607057600080fd5b506081607c366004609e565b600055565b005b348015608e57600080fd5b506000546053565b6081607c3660045b60006020828403121560af57600080fd5b503591905056fea26469706673582212206e6bc6966644cf459dd14fc60251a8e066619f5777508a694010909d2a3538ee64736f6c63430008090033",
  "immutableReferences": {},
  "source": "//SPDX-License-Identifier: MIT\npragma solidity 0.8.9;\n\ncontract SimpleStorage {\n  uint public storedData;\n\n  function set(uint x) public {\n    storedData = x;\n  }\n\n  function pay(uint x) public payable {\n    storedData = x;\n  }\n\n  function get() public view returns (uint) {\n    return storedData;\n  }\n}",
  "sourcePath": "/Users/dimitriskyriazopoulos/Development/solid/consesys/blockchain-developer-bootcamp-final-project/solidity/contracts/SimpleStorage.sol",
  "compiler": {
    "name": "solc",
    "version": "0.8.9+commit.e5eed63a.Emscripten.clang"
  },
  "schemaVersion": "3.4.3",
  "updatedAt": "2021-11-23T02:26:51.797Z",
  "devdoc": {
    "kind": "dev",
    "methods": {},
    "version": 1
  },
  "userdoc": {
    "kind": "user",
    "methods": {},
    "version": 1
  }
}